:100000000C9491000C94B9000C94B9000C94B900B4
:100010000C94B9000C94B9000C94B9000C94B9007C
:100020000C94B9000C94B9000C94B9000C94B9006C
:100030000C94B9000C94B9000C94B9000C94B9005C
:100040000C947A050C94B9000C9461080C949B08EC
:100050000C94B9000C94B9000C94B9000C94B9003C
:100060000C9476170C94B900084AD73B3BCE016E2E
:1000700084BCBFFDC12F3D6C74319ABD56833DDAFF
:100080003D00C77F11BED9E4BB4C3E916BAAAABE0E
:10009000000000803F05A84CCDB2D44EB93836A937
:1000A000020C50B9918688083CA6AAAA2ABE000074
:1000B00000803F000000000700020100000304066A
:1000C0000000000000000000010204081020408031
:1000D0000102040810200102040810200404040492
:1000E00004040404020202020202030303030303E2
:1000F0000000000023002600290000000000250069
:1001000028002B0000000000240027002A002A02FB
:10011000C10757097E0A6B0CE00C3C0D77117C1A65
:10012000871A11241FBECFEFD8E0DEBFCDBF11E08C
:10013000A0E0B1E0EEEFFBE302C005900D92AE3718
:10014000B107D9F723E0AEE7B1E001C01D92A53AAF
:10015000B207E1F711E0C2E2D1E004C02297FE014C
:100160000E94F91DCE30D107C9F70E9455030C94A7
:10017000A81A0C9400008F929F92BF92CF92DF92A8
:10018000EF92FF920F931F93CF93DF9300D000D095
:10019000CDB7DEB74C01B62EC701B6012B833C8329
:1001A00049835A830E94DD1BF401B0825A81518336
:1001B000498142833C8133832B81248315830683C9
:1001C000778360870F900F900F900F90DF91CF9102
:1001D0001F910F91FF90EF90DF90CF90BF909F9075
:1001E0008F9008959F92AF92BF92CF92DF92EF923D
:1001F000FF920F931F93CF93DF935C01962EEA013A
:10020000CA010E9484016B017C010F8D18A18DA190
:100210009EA1081B190B2D8D3E8D8BA19CA1281B27
:10022000390B4B8D5C8D89A19AA1481B590B692D07
:10023000C5010E94BB00DF91CF911F910F91FF90EC
:10024000EF90DF90CF90BF90AF909F900895CF93A5
:10025000DF93EC010E94E0041F86188A198A1A8A2B
:100260001B8A1C8A1D8A1E8A1F8A188E198E1A8E56
:100270001AA219A21CA21BA21EA21DA240E050E0BD
:1002800060E07FE34FA358A769A77AA740E050E05A
:1002900060E271E44BA75CA76DA77EA71BAA1CAA0E
:1002A0001DAA1EAA1FAA18AE19AE1AAEDF91CF91D1
:1002B0000895CF93DF93EC018FE992E00E94440A06
:1002C000CE01DF91CF910C946605FC0181A192A132
:1002D000860F971F92A381A383A194A1840F951FDA
:1002E00094A383A385A196A1820F931F96A385A3B0
:1002F0000895FC012081318142815381648175819F
:10030000868197810C941F1B43960E94790120E0FF
:1003100030E044E353E40E94011D2BED3FE049E44B
:1003200050E40E94751B0895CF93DF93EC01439630
:100330000E9479016F87788B898B9A8BDF91CF919F
:1003400008954F925F926F927F928F929F92AF9299
:10035000BF92CF92DF92EF92FF92CF93DF93EC01A7
:100360009C01215E3F4FAC01435E5F4FBC01655E67
:100370007F4F0E94FA048F849888A988BA886D8D6F
:100380007E8D8BA19CA1681B790B882777FD8095BA
:10039000982F0E94101C6B017C016B8D7C8D89A1B4
:1003A0009AA1681B790B882777FD8095982F0E946A
:1003B000101C6B8B7C8B8D8B9E8BCF8AD88EE98E9D
:1003C000FA8E9B01AC010E94011D2B013C01A7018B
:1003D0009601C701B6010E94011D9B01AC01C3013A
:1003E000B2010E94AC1A0E946E1D6B017C01CE010D
:1003F00043960E947901A50194010E94AB1A4B011A
:100400005C010E94721B9B01AC01C701B6010E94F6
:10041000011D6B8B7C8B8D8B9E8BC501B4010E9463
:10042000641D9B01AC01C701B6010E94011D6F8BC9
:10043000788F898F9A8FDF91CF91FF90EF90DF9027
:10044000CF90BF90AF909F908F907F906F905F9074
:100450004F9008950F9300E020E040E060E080EED0
:1004600091E00E94AA0785EA91E00E9427010CE230
:1004700020E048EA60EC86E991E00E94AA070AE2DF
:1004800020E048EA60EC80E991E00E94AA0720E0C1
:1004900048EA60EC8AE891E00E94AA0700E02FEFAA
:1004A0004FEF6FEF84E891E00E94AA0769E375E0DF
:1004B0008EE791E00F910C944210EF92FF920F9310
:1004C0001F93CF93DF93CDB7DEB768970FB6F8943D
:1004D000DEBF0FBECDBF22E131E03A832983809198
:1004E000860190918701A0918801B09189018B8349
:1004F0009C83AD83BE8338872F8380918C0190913C
:100500008D01A0918E01B0918F0189879A87AB8769
:10051000BC873E872D878091920190919301A09195
:100520009401B09195018F87988BA98BBA8B3C8BE6
:100530002B8B8091980190919901A0919A01B09193
:100540009B018D8B9E8BAF8BB88FCE0101967C016A
:100550008E01095F1F4F9E01235F3F4FAE014D5E2D
:100560005F4F64E071E087EF92E00E948B0C8EE7B2
:1005700091E00E94FE0F40E052EC61E070E085EFF8
:1005800091E00E94D60885EA91E00E94590161E05D
:100590008DE00E947D0662E087E00E947D066896FD
:1005A0000FB6F894DEBF0FBECDBFDF91CF911F9184
:1005B0000F91FF90EF900895CF93DF93CDB7DEB703
:1005C0002D970FB6F894DEBF0FBECDBF85EA91E040
:1005D0000E94A10145EA51E060E08CE991E00E94AF
:1005E000F20049E050E06CE971E08EE791E00E9492
:1005F000AE106EE771E0CE0101960E940611CE01A9
:1006000001960E94AF0A8823B1F0CE0101960E94A4
:10061000D10A892B81F049E050E06CE971E0CE010C
:1006200001960E94430780919C018130E1F485EAA4
:1006300091E00E94940187E00E94EC06892B21F44E
:1006400085EA91E00E94940164E170E080E090E02E
:100650000E94F3052D960FB6F894DEBF0FBECDBFF6
:10066000DF91CF910895823031F78091A2012091DE
:10067000A10130E0322F2227280F311D8091A001E7
:1006800040919F0150E0542F4427480F511D809105
:100690009E0160919D0170E0762F6627680F711DA5
:1006A00085EA91E00E946501C6CF0E9419060E946A
:1006B0005D02C0E0D1E0CD276C2F8DE00E94B60630
:1006C0000E94DC02F8CFEF92FF920F931F93CF931B
:1006D000DF9300D0CDB7DEB7062F142F682F8FE938
:1006E00092E029833A830E945E0A602F8FE992E0AC
:1006F0000E94050A2981022FE22E3A81F32E8E2DC7
:10070000801B811740F4F70161917F018FE992E02E
:100710000E94050AF4CF8FE992E00E947B0A91E0E3
:10072000811190E0892F0F900F90DF91CF911F9151
:100730000F91FF90EF900895CF93DF931F92CDB765
:10074000DEB749839E012F5F3F4F41E00E94630364
:100750000F90DF91CF9108953F924F925F926F92E9
:100760007F928F929F92AF92BF92CF92DF92EF9241
:10077000FF920F931F93CF93DF9300D000D000D050
:10078000CDB7DEB7682E562E742E3A8329830E9489
:10079000C4056B017C01312C412C872D90E09C839A
:1007A0008B834801A12CB12C3714B0F5662D8FE94D
:1007B00092E00E945E0A652D8FE992E00E94050A90
:1007C0008FE992E00E947B0A662D8FE992E00E94F9
:1007D0005E0A4B815C81431951094132510514F085
:1007E00040E250E0662D8FE992E00E945B0A8FE9BB
:1007F00092E00E94AD09892B59F10115110599F17B
:100800000E94C4056C197D098E099F096815790538
:100810008A059B0540F11CC001151105A9F10E9434
:10082000C4056C197D098E099F0920E030E060172E
:1008300071078207930740F1872D90E0242D33271D
:1008400027FD309528173907FCF444244A941CC02E
:100850008FE992E00E947B0A872D90E2971508F4B9
:1008600080E2380EA1CFE981FA81E40DF11D47FC49
:10087000FA95FE83ED838FE992E00E94B509ED8140
:10088000FE8180834394B3CF842D26960FB6F894CF
:10089000DEBF0FBECDBFDF91CF911F910F91FF90B3
:1008A000EF90DF90CF90BF90AF909F908F907F9010
:1008B0006F905F904F903F9008950F931F93890121
:1008C0009A0141E00E94AC031F910F910895EF92AD
:1008D000FF920F931F93CF93DF931F92CDB7DEB795
:1008E000182F062FF42EE22E20910A0130910B01D1
:1008F000AE014F5F5F4F0E945D04898121E030E0CF
:100900000F2C01C0220F0A94EAF7EE2019F0482FAD
:10091000422B03C0422F409548234983602F812FEB
:100920000E949C030F90DF91CF911F910F91FF9038
:10093000EF900895DF92EF92FF920F931F93CF9362
:10094000DF931F92CDB7DEB7F82EE62ED42E122FEE
:1009500020910A0130910B01AE014F5F5F4F0E9461
:100960005D04882319F14D2D50E0411B51094F5F63
:100970005F4FE1E0F0E002C0EE0FFF1F1A95E2F7D3
:100980003197042E01C0EE0F0A94EAF701C0000F60
:100990004A95EAF74E2F409589814823E0234E2B54
:1009A00049836E2D8F2D0E949C0301C080E00F9023
:1009B000DF91CF911F910F91FF90EF90DF900895FD
:1009C00028E6FC01208308950F93062F22E044E0DF
:1009D0006BE1FC0180810E949A040F9108950F93AE
:1009E000062F22E044E06CE1FC0180810E949A0421
:1009F0000F9108958F929F92AF92BF92CF92DF9204
:100A0000EF92FF920F931F93CF93DF93EC014B0173
:100A10005A01690142E067E3FC0181917F010E9474
:100A20009C036AE070E080E090E00E94F30541E002
:100A30006AE08CE00E949C036AE070E080E090E055
:100A40000E94F30500910A0110910B01970146E005
:100A500063E08CE00E94AC038A8190E0982F8827A5
:100A60002981822BF401918380838C8190E0982FDF
:100A700088272B81822BF501918380838E8190E0E2
:100A8000982F88272D81822BF60191838083DF9117
:100A9000CF911F910F91FF90EF90DF90CF90BF907B
:100AA000AF909F908F900895262F46E06BE6FC0153
:100AB00080810C9467040F93062F23E042E06BE6DD
:100AC000FC0180810E949A040F910895CF93DF93D7
:100AD000EC0161E00E945B0560E0CE010E94E4044D
:100AE00060E0CE010E94EF0460E0CE01DF91CF9183
:100AF0000C9454051F920F920FB60F9211242F934E
:100B00003F938F939F93AF93BF938091E701909111
:100B1000E801A091E901B091EA013091E60123E0FA
:100B2000230F2D3720F40196A11DB11D05C026E825
:100B3000230F0296A11DB11D2093E6018093E701CA
:100B40009093E801A093E901B093EA018091EB0151
:100B50009091EC01A091ED01B091EE010196A11DE3
:100B6000B11D8093EB019093EC01A093ED01B09344
:100B7000EE01BF91AF919F918F913F912F910F9077
:100B80000FBE0F901F9018952FB7F8946091E70152
:100B90007091E8018091E9019091EA012FBF0895D9
:100BA0003FB7F8948091EB019091EC01A091ED0199
:100BB000B091EE0126B5A89B05C02F3F19F0019614
:100BC000A11DB11D3FBF6627782F892F9A2F620F75
:100BD000711D811D911D42E0660F771F881F991FAF
:100BE0004A95D1F70895CF92DF92EF92FF92CF937B
:100BF000DF936B017C010E94D005EB01C114D1048D
:100C0000E104F10479F00E94D0056C1B7D0B683E75
:100C10007340A0F381E0C81AD108E108F108C85177
:100C2000DC4FECCFDF91CF91FF90EF90DF90CF9032
:100C30000895789484B5826084BD84B5816084BD54
:100C400085B5826085BD85B5816085BDEEE6F0E045
:100C5000808181608083E1E8F0E0108280818260A1
:100C60008083808181608083E0E8F0E08081816022
:100C70008083E1EBF0E0808184608083E0EBF0E052
:100C8000808181608083EAE7F0E0808184608083F6
:100C900080818260808380818160808380818068A0
:100CA00080831092C1000895833081F028F4813050
:100CB00099F08230A1F008958630A9F08730B9F01C
:100CC0008430D1F4809180008F7D03C080918000BA
:100CD0008F7780938000089584B58F7702C084B5A4
:100CE0008F7D84BD08958091B0008F7703C080917F
:100CF000B0008F7D8093B0000895CF93DF9390E094
:100D0000FC01E853FF4F2491FC01E452FF4F849112
:100D1000882349F190E0880F991FFC01EC5FFE4F9A
:100D2000A591B49186509F4FFC01C591D4919FB776
:100D3000611108C0F8948C91209582238C9388814E
:100D400082230AC0623051F4F8948C91322F30958E
:100D500083238C938881822B888304C0F8948C91A0
:100D6000822B8C939FBFDF91CF9108950F931F9398
:100D7000CF93DF931F92CDB7DEB7282F30E0F90174
:100D8000EC54FF4F8491F901E853FF4F1491F9019E
:100D9000E452FF4F04910023C9F0882321F06983B6
:100DA0000E9454066981E02FF0E0EE0FFF1FE6502D
:100DB000FF4FA591B4919FB7F8948C91611103C036
:100DC0001095812301C0812B8C939FBF0F90DF91E1
:100DD000CF911F910F910895CF93DF93282F30E08B
:100DE000F901EC54FF4F8491F901E853FF4FD4917E
:100DF000F901E452FF4FC491CC2391F081110E947C
:100E00005406EC2FF0E0EE0FFF1FE051FF4FA591CD
:100E1000B4912C912D2381E090E021F480E002C078
:100E200080E090E0DF91CF9108950F931F93CF93CF
:100E3000DF93EC010E94C405688779878A879B87C6
:100E4000E881F9810680F781E02DCE01099597FFB1
:100E500015C00E94C405088519852A853B85601B3D
:100E6000710B820B930B0C811D812E813F816017CA
:100E700071078207930720F38FEF9FEFDF91CF91E8
:100E80001F910F910895CF92DF92EF92FF920F93EF
:100E90001F93CF93DF937C016A01EB0100E010E028
:100EA0000C151D0549F0C7010E94150797FD04C0E8
:100EB00089930F5F1F4FF4CFC801DF91CF911F912E
:100EC0000F91FF90EF90DF90CF900895AF92BF9277
:100ED000CF92DF92EF92FF920F931F93CF93DF9306
:100EE0006C017B01C0E0D0E000E010E0F601EC0F07
:100EF000FD1F4AE050E06281C7010E9491165C012B
:100F00006EE2C7010E9424168A0D9B1D080F191F4F
:100F10002196C330D10551F74AE050E0F6016581D2
:100F2000C7010E949116800F911FDF91CF911F91F1
:100F30000F91FF90EF90DF90CF90BF90AF9008950A
:100F400022E131E0FC01318320831282138214827A
:100F5000158208950F93FC0182E191E091838083D3
:100F600062834383248305830F910895FB014081AD
:100F7000518162817381FC01428353836483758351
:100F8000089582E191E09093F0018093EF01109237
:100F9000F1011092F2011092F3011092F401089500
:100FA000FC0124853585F901E05CFF4F808191814A
:100FB000329620813181821B930B8F73992708957C
:100FC000FC0184859585FC01E05CFF4F40815181E7
:100FD0003296208131814217530741F00190F08110
:100FE000E02DE80FF91F808190E008958FEF9FEFCB
:100FF0000895FC0184859585FC01E05CFF4F4081EC
:1010000051813296208131814217530779F0A081B6
:10101000B181A80FB91F8C91208131812F5F3F4F83
:101020002F7333273183208390E008958FEF9FEF54
:101030000895FC0181A1882329F0A489B5898C91A8
:1010400086FFFBCF11A20895CF93DF93FC01268585
:101050003785D901A05CBF4F8D919C911197019666
:101060008F739927E901CE5BDF4F4881598184173F
:101070009507D9F30D90BC91A02DA20FB31F6C93CF
:10108000A685B785A05CBF4F11969C938E93A689C9
:10109000B7892C9181E090E0078C02C0880F991FDE
:1010A0000A94E2F7282B2C9381E081A30488F58928
:1010B000E02D80818064808381E090E0DF91CF919A
:1010C00008951F920F920FB60F9211242F933F9302
:1010D0004F938F939F93EF93FF938091C00082FD76
:1010E0001CC04091C60080919B0290919C02019689
:1010F0008F73992720919D0230919E02821793074A
:1011000071F0E0919B02F0919C02E55AFD4F408303
:1011100090939C0280939B0202C08091C600FF9135
:10112000EF919F918F914F913F912F910F900FBE13
:101130000F901F9018951F920F920FB60F921124C7
:101140002F933F938F939F93EF93FF932091570299
:10115000309158028091590290915A02281739070C
:1011600031F48091C1008F7D8093C10014C0E09163
:101170005902F0915A02E95EFD4F20818091590297
:1011800090915A0201968F73992790935A028093F7
:1011900059022093C600FF91EF919F918F913F914B
:1011A0002F910F900FBE0F901F901895CF92DF9246
:1011B000EF92FF92CF93DF93EC016A017B0141151F
:1011C00081EE580761057105F9F0EC89FD8981E030
:1011D00090E008A002C0880F991F0A94E2F780836C
:1011E00060E079E08DE390E0A70196010E94D51DB3
:1011F0002150310941095109569547953795279551
:10120000211580E1380798F0EC89FD89108260E8AB
:1012100074E88EE190E0A70196010E94D51D21504F
:101220003109410951095695479537952795E88920
:10123000F9893083EA89FB89208319A2EE89FF8925
:10124000408181E090E09C010C8C02C0220F331F92
:101250000A94E2F7422B4083EE89FF8940819C018A
:101260000D8C02C0220F331F0A94E2F7422B4083F9
:10127000EE89FF8940819C010E8C02C0220F331F32
:101280000A94E2F7422B4083EE89FF8920810F8C7C
:1012900002C0880F991F0A94E2F780958223808309
:1012A000DF91CF91FF90EF90DF90CF900895109253
:1012B000F8011092F70188EE93E0A0E0B0E080938F
:1012C000F9019093FA01A093FB01B093FC0188E12E
:1012D00091E09093F6018093F5018BE592E0909375
:1012E00002028093010287E192E0909304028093CE
:1012F000030285EC90E0909306028093050284EC53
:1013000090E0909308028093070280EC90E0909325
:101310000A028093090281EC90E090930C02809382
:101320000B0282EC90E090930E0280930D0286EC0B
:1013300090E09093100280930F0284E0809311025A
:1013400083E08093120287E08093130285E080930C
:10135000140281E08093150208958091CF0290E0FD
:101360002091D002821B910908952091D002809192
:10137000CF02281750F4E22FF0E0EF52FD4F8081AA
:1013800090E02F5F2093D00208958FEF9FEF089594
:10139000E091D0028091CF02E81730F4F0E0EF52F4
:1013A000FD4F808190E008958FEF9FEF089508959D
:1013B000CF92DF92EF92FF920F931F93CF93DF9321
:1013C0007C01CB018A012091AB02222389F0EB0141
:1013D0006B01C40ED51ECC15DD0569F06991D701EE
:1013E000ED91FC910190F081E02DC7010995F3CFBB
:1013F000642F0E944D17C801DF91CF911F910F916B
:10140000FF90EF90DF90CF900895CF93DF931F92DE
:10141000CDB7DEB769832091AB022223D1F02091B2
:10142000AC02203240F021E030E0FC013383228323
:1014300080E090E015C08091AD02E82FF0E0E25529
:10144000FD4F998190838F5F8093AD028093AC02B2
:1014500005C061E0CE0101960E944D1781E090E049
:101460000F90DF91CF910895FC011382128248EE14
:1014700053E060E070E0448355836683778388E2BD
:1014800091E09183808308951092D0021092CF0250
:101490001092AD021092AC020C949816862F413235
:1014A00008F040E261ED72E00E94B6161092D002A0
:1014B0008093CF02089521E00C944E0A81E080933E
:1014C000AB026093CE021092AD021092AC0208956E
:1014D0000F93062F21E04091AC026EEA72E08091FA
:1014E000CE020E94FA161092AD021092AC02109237
:1014F000AB020F91089561E00C94680A8FE992E0C5
:101500000C94340ACF93DF931F92CDB7DEB7698373
:10151000DC01ED91FC910280F381E02D41E050E08F
:10152000BE016F5F7F4F09950F90DF91CF910895B6
:10153000CF93DF93EC01E881F9810480F581E02D00
:10154000CE010995892B41F0E881F9810680F78168
:10155000E02DCE010995EFCFDF91CF91089521E0E5
:10156000FC018485843009F420E0822F08950F93D4
:101570001F93CF93DF93EC018A018C85843021F097
:101580000E94CD14892B39F481E090E09B838A83FB
:1015900080E090E001C0C801DF91CF911F910F91D1
:1015A0000895FC016485643021F089E193E00C9496
:1015B0009D1280E090E00895CF93DF931F92CDB706
:1015C000DEB741E050E0BE016F5F7F4FFC018485D4
:1015D0000E941F15181619061CF4898190E002C09C
:1015E0008FEF9FEF0F90DF91CF910895FC018485DD
:1015F0000C941F150F931F93CF93DF931F92CDB7BA
:10160000DEB78C01DC01ED91FC910480F581E02DC9
:101610000995892B51F0BE016F5F7F4FF8018485DA
:101620000E946315898190E002C08FEF9FEF0F90B9
:10163000DF91CF911F910F910895CF92DF92EF929A
:10164000FF920F931F93CF93DF93CDB7DEB7AF9782
:101650000FB6F894DEBF0FBECDBF7C018B016A01CF
:10166000CE0101960E94A007CE0109960E94091A98
:10167000CE018A960E94A00767EF72E0CE018496A1
:101680000E94D00CBE016C5D7F4FCE0101960E947E
:10169000EE0CAE01465D5F4FB801CE0101960E948F
:1016A000530F81309105C1F4D701ED91FC91048471
:1016B000F585E02D82E191E09DA38CA30CA51DA5ED
:1016C0002EA53FA50EA31FA328A739A7A601BE01DB
:1016D0006C5D7F4FC7010995AF960FB6F894DEBFDA
:1016E0000FBECDBFDF91CF911F910F91FF90EF9073
:1016F000DF90CF900895FC01262F1382128248EECE
:1017000053E060E070E0448355836683778388E329
:1017100091E09183808324870895FC01848584303F
:1017200039F090E0982F88278D5F9B4F0C942712FB
:1017300080E00895AF92BF92CF92DF92EF92FF9236
:101740000F931F93CF93DF93EC015B016A018C85AC
:10175000843009F04EC033E0E32E34E0F32E00E095
:1017600010E0C7010E942712811102C00C8709C036
:101770008B7F8831D9F30F5F1F4FF394043011052D
:1017800081F78C858430A9F120910C0130910D01F5
:101790002F5F3F4F2115310511F420E034E03093E5
:1017A0000D0120930C0140910C0150910D0120E09E
:1017B00061E00E943C14B5016E5F7F4FA6018C85ED
:1017C0000E949014811103C084E08C8712C0CE0166
:1017D0000E948D0B873151F061E070E080E090E075
:1017E0000E94F305CE010E948D0BECCF81E090E0CA
:1017F00002C080E090E0DF91CF911F910F91FF90A8
:10180000EF90DF90CF90BF90AF900895CF92DF928E
:10181000EF92FF92CF93DF93EC018C85843081F1BE
:101820000E94C6140E94C4056B017C01CE010E9477
:101830008D0B882359F00E94C4056C197D098E090F
:101840009F09683E73408105910598F0CE010E9482
:101850008D0B882319F08C850E942E14EC85F0E006
:10186000EE0FFF1FE150FD4F1182108284E08C8744
:1018700007C061E070E080E090E00E94F305D6CF01
:10188000DF91CF91FF90EF90DF90CF900895CF93AD
:10189000DF93EC018C858430D1F0CE010E948D0B5A
:1018A0008431A9F0882399F0883189F08C3169F46A
:1018B000E881F9810480F581E02DCE01099521E0D0
:1018C000892B09F420E0822F03C081E001C080E071
:1018D000DF91CF9108950F9300E020E040E060E0B9
:1018E00081EF92E00E94AA070F91089544E050E032
:1018F000BC0181E090E00C94F81144E050E0BC01A0
:1019000085E090E00C94F81144E050E0BC018FE0D9
:1019100090E00C94F8118F929F92AF92BF92CF9269
:10192000DF92EF92FF920F931F93CF93DF9300D03C
:10193000CDB7DEB74C016A01590189E193E06983B3
:101940007A830E94AE1146E050E069817A8189E095
:1019500090E00E94F811C60102960E94840CC80112
:1019600002960E94760CC70102960E947D0CF5013A
:101970004281538164817581F4014283538364837E
:1019800075830F900F90DF91CF911F910F91FF9072
:10199000EF90DF90CF90BF90AF909F908F90089581
:1019A00022E131E0FC0131832083FB01428153813C
:1019B00064817581FC014283538364837583089538
:1019C0000F9300E020E040E060E087E093E00E94B9
:1019D000AA0787EF92E00F910C94A007FB014281C8
:1019E000538164817581FC014283538364837583D1
:1019F000178216820895CF93FB0181918111FDCF4B
:101A0000FB0180E090E020E030E0CAE061916623D5
:101A100009F12430310564F56E3271F48F3F910580
:101A200009F034F5DA01A20FB31F12968C932F5FE1
:101A30003F4F80E090E0EACFDC01CA9FC001CB9F1E
:101A4000900D1124772767FD709560537109860FFB
:101A5000971FDCCF8F3F910509F054F424303105F6
:101A60003CF4FA01E20FF31F828381E090E002C0B0
:101A700080E090E0CF9108950F9300E020E040E0F7
:101A800060E08DE093E00E94AA070F910895AF9265
:101A9000BF92CF92DF92EF92FF920F931F93CF935B
:101AA000DF9300D01F92CDB7DEB76C017B010E949F
:101AB000C405F601778366838601085F1F4FB60170
:101AC0006A5F7F4F42E050E0C8010E940B1981E03D
:101AD00090E09A83898342E050E0BE016F5F7F4FC0
:101AE000C8010E940B1980E091E09A83898342E04B
:101AF00050E0BE016F5F7F4FC8010E940B191A8230
:101B0000198242E050E0BE016F5F7F4FC8010E9422
:101B10000B1942E050E0BE016F5F7F4FC8010E9489
:101B20000B1942E050E0BE016F5F7F4FC8010E9479
:101B30000B196701F6018081882311F1F7016F010C
:101B40008191811115C05601AE18BF081A141B04EB
:101B500094F4AB8241E050E0BE016D5F7F4FC8015D
:101B60000E940B19A501B701C8010E940B1903C0FF
:101B70008E3229F7E8CF7601FFEFEF1AFF0ADACFAE
:101B80001B8241E050E0BE016D5F7F4FC8010E94A3
:101B90000B19E12CFF24F394FA82E98242E050E031
:101BA000BE016F5F7F4FC8010E940B19FA82E98264
:101BB00042E050E0BE016F5F7F4FC8010E940B19E9
:101BC00081E090E00F900F900F90DF91CF911F91E7
:101BD0000F91FF90EF90DF90CF90BF90AF9008955E
:101BE0004F925F926F927F928F929F92AF92BF922D
:101BF000CF92DF92EF92FF920F931F93CF93DF93D9
:101C0000CDB7DEB763970FB6F894DEBF0FBECDBF7A
:101C10007C015B016A010E94C4052B013C01870124
:101C2000085F1F4F4501A12CB12CC8010E947E19ED
:101C30001816190694F00E94C405641975098609DE
:101C4000970986169706A806B906D0F062E370E0F9
:101C500080E090E00E94F305E8CFF70142815381D4
:101C600064817581818D928DA38DB48D481759073C
:101C70006A077B0741F4858D968DC59721F406C0D0
:101C80008FEF9FEFF9C08EEF9FEFF6C0C8010E9463
:101C9000BE180C970CF4EEC04CE050E0BE016F5F34
:101CA0007F4FC8010E9448198B819C819827892702
:101CB00098279A8B898BF7014681578129813A8130
:101CC0004217530711F497FD06C0C8010E94D818A7
:101CD0008CEF9FEFD1C08F709270892B31F0C801CB
:101CE0000E94D8188BEF9FEFC7C0AF80B884BA248A
:101CF000AB24BA24A114B10419F0E12CF12C23C0B7
:101D0000C8010E94D8188AEF9FEFB6C041E050E0AA
:101D1000BE01635F7F4FC8010E9448198D85811104
:101D20001BC08D858111F2CFC8010E941F19C80107
:101D30000E941F19C8010E941F19C8010E941F1983
:101D4000FFEFEF1AFF0A8D819E8198278927982738
:101D5000E816F906D8F20AC08D859FEF980F9D8787
:101D60008823F9F2C8010E941F19F6CFE12CF12C4B
:101D700041E050E0BE016D5E7F4FC8010E944819EE
:101D80008B89982F907C61F4882371F08B899FEF69
:101D9000980F9B8B882341F0C8010E941F19F6CF32
:101DA000C8010E941F191B8A8B898111E1CF42E073
:101DB00050E0BE01615F7F4FC8010E94481942E0B8
:101DC00050E0BE01635F7F4FC8010E944819C801FF
:101DD0000E941F19C8010E941F19C8010E941F19E3
:101DE000C8010E941F1942E050E0BE016F5E7F4FA4
:101DF000C8010E9448198F8598898115914029F45E
:101E00008D859E858115914019F0812C912C16C0ED
:101E100089899A898115944031F0C8010E94D818A7
:101E200087EF9FEF29C0B6016E5F7F4F44E050E01F
:101E3000C8010E94481981E090E01EC089899A89F2
:101E40009827892798278816990638F4C8010E9490
:101E50001F192FEF821A920AF1CF8FEFE81AF80AB2
:101E6000EA14FB0409F084CFC8010E94D81886EF59
:101E70009FEF02C08DEF9FEF63960FB6F894DEBF21
:101E80000FBECDBFDF91CF911F910F91FF90EF90CB
:101E9000DF90CF90BF90AF909F908F907F906F908A
:101EA0005F904F9008958F929F92AF92BF92CF9282
:101EB000DF92EF92FF920F931F93CF93DF9300D0A7
:101EC00000D000D0CDB7DEB78C015B016A010E9463
:101ED000FB0C4C01009709F05FC0F801428153816F
:101EE0006481758180910F0390911003A09111037B
:101EF000B0911203481759076A077B0709F450C0CD
:101F00000E94C4057801F8E0EF0EF11C6F7077278E
:101F10007C5FC7010E94CF19813009F045C082E182
:101F200091E09A838983F80182819381A481B581AC
:101F30008B839C83AD83BE8345E350E0BE016F5F1E
:101F40007F4FC7010E94FF18892B19F4812C912C17
:101F50001FC0B501C8010E94470D892BB9F3C70105
:101F60000E940719892B91F333E0A32EB12CA6010F
:101F700068E873E1C8010E94F00D4C01F1E0AF1A6E
:101F8000B108A114B10421F08F3F2FEF920779F32C
:101F9000C7010E94EA1808C088248394912C04C0C9
:101FA0009EEF892E99249A94C40126960FB6F89430
:101FB000DEBF0FBECDBFDF91CF911F910F91FF907C
:101FC000EF90DF90CF90BF90AF909F908F9008954B
:101FD000CF93DF931F92CDB7DEB76983DC01ED911C
:101FE000FC910280F381E02D41E050E0BE016F5F83
:101FF0007F4F09950F90DF91CF910895EF92FF9257
:102000000F931F93CF93DF93CDB7DEB72D970FB606
:10201000F894DEBF0FBECDBF7C0100E010E0602F62
:10202000CE0101960E947B0BCE0101960E948D0B82
:10203000811116C0F7014481558120E061E0802FB5
:102040000E943C14802F0E947C14F70184819581AA
:10205000F801EE0FFF1FE150FD4F9183808305C013
:102060000F5F1F4F04301105D1F62D960FB6F8946F
:10207000DEBF0FBECDBFDF91CF911F910F91FF90BB
:10208000EF900895FC011382128284E591E0918320
:102090008083758364830895BF92CF92DF92EF921D
:1020A000FF920F931F93CF93DF93CDB7DEB72D979A
:1020B0000FB6F894DEBF0FBECDBF8C014FEFC42E1C
:1020C00042E0D42EB12CE12CF12C6B2DCE010196E7
:1020D0000E947B0BD6012D913D916D01F801848109
:1020E000958128173907B1F4CE0101960E948D0B16
:1020F000843169F0CE0101960E948D0B8C3151F430
:10210000CE0101960E94D10A892B99F003C0EE24DA
:10211000E394F12CB394F4E0BF12D7CFEF2871F41D
:10212000D801ED91FC910480F581E02DC80109955D
:1021300005C0CE0101960E94060CECCF2D960FB67D
:10214000F894DEBF0FBECDBFDF91CF911F910F91ED
:10215000FF90EF90DF90CF90BF9008957F928F9285
:102160009F92AF92BF92CF92DF92EF92FF920F9326
:102170001F93CF93DF93CDB7DEB72D970FB6F894AB
:10218000DEBF0FBECDBF6C015B014A010E944C1047
:102190005FEFE52E52E0F52E712C00E010E0672D88
:1021A000CE0101960E947B0BF701219131917F01B5
:1021B000F601848195812817390731F4CE01019603
:1021C0000E948D0B8731C9F07394F4E07F12E7CF42
:1021D000C8012D960FB6F894DEBF0FBECDBFDF91BC
:1021E000CF911F910F91FF90EF90DF90CF90BF9014
:1021F000AF909F908F907F900895A401B501CE017C
:1022000001960E94B70A080F191FDECFBF92CF9226
:10221000DF92EF92FF920F931F93CF93DF93CDB78F
:10222000DEB72D970FB6F894DEBF0FBECDBF8C0181
:102230006B01CB010E944C106FEFE62E62E0F62E90
:10224000B12C6B2DCE0101960E947B0BF7012191E1
:1022500031917F01F601848195812817390761F456
:10226000CE0101960E948D0B873179F0CE01019647
:102270000E948D0B8C3149F0B394F4E0BF12E1CF92
:1022800064E0C8010E947B0B21C0CE0101960E9430
:10229000D10A892B89F38B819C81F80193838283F6
:1022A0008D819E81AF81B88584839583A683B78312
:1022B00049855A856B857C854087518762877387FE
:1022C00088E391E0918380838D858487C8012D9672
:1022D0000FB6F894DEBF0FBECDBFDF91CF911F9137
:1022E0000F91FF90EF90DF90CF90BF9008950F93E4
:1022F00000E020E040E060E083E193E00E94AA0774
:102300000F9108958EBD0DB407FEFDCF8EB50895D3
:102310002A9808952A9A08951F93CF93DF9300D0A7
:10232000CDB7DEB7182F6A8399830E94881180EF9A
:102330000E9482119981892F0E948211812F0E940F
:1023400082116A81862F0E9482110E948A1181E087
:102350000F900F90DF91CF911F910895CF93DF934E
:10236000EC016CE271E080E090E00E94F3050E94D5
:10237000921A229A60E880E090E00E948C1165E554
:102380008BE190E00E948C1165E58AE190E00E946B
:102390008C1180E090E49983888380E090E69987AF
:1023A000888780E098E49B838A8380E098E69B8717
:1023B0008A8780E090E59D838C8380E090E79D870D
:1023C0008C8780E098E59F838E8380E098E79F87E5
:1023D0008E87DF91CF910895FB01282F30E02C5F8D
:1023E0003F4F922F8827642F8E0F9F1F0C948C11C4
:1023F000CF92DF92EF92FF920F931F93CF93DF93D1
:10240000EC017A018B016C01C40ED51ECC15DD05E3
:10241000A1F00E94881180EF0E9482118D2F0E94EE
:1024200082118C2F0E9482112196F80181918F01D7
:102430000E9482110E948A11E9CFC701DF91CF91DA
:102440001F910F91FF90EF90DF90CF9008951F9311
:10245000CF93DF931F92CDB7DEB7182F99830E94D9
:1024600088118FE00E9482119981892F0E94821128
:10247000812F0E94821180E00E94821189830E9434
:102480008A1189810F90DF91CF911F910895282F94
:1024900030E02C5F3F4F922F8827860F971F0C94B8
:1024A00027121F93CF93DF93182F60E270E00E94F2
:1024B0004712C82FD0E061E270E0812F0E944712DE
:1024C000DC2FCC279E01282BC901DF91CF911F91D2
:1024D0000895FF920F931F93CF93DF93F62EC0E0E2
:1024E000D0E08F2D0E9451128C01009721F08F2D8A
:1024F0000E945112EC01C017D10799F7CE01DF916C
:10250000CF911F910F91FF9008951F93CF93DF9369
:10251000182F66E270E00E944712C82FD0E067E2F1
:1025200070E0812F0E944712DC2FCC279E01282BC0
:10253000C901DF91CF911F910895FF920F931F93CF
:10254000CF93DF93F62EC0E0D0E08F2D0E9485124E
:102550008C01009721F08F2D0E948512EC01C0178D
:10256000D10799F7CE01DF91CF911F910F91FF9085
:1025700008956F927F929F92AF92BF92CF92DF9217
:10258000EF92FF920F931F93CF93DF931F92CDB7DC
:10259000DEB7D82E962E3A01590164E270E0892DFB
:1025A00099830E944712E82EF12C65E270E0892D94
:1025B0000E944712FE2CEE24E82AE60CF71C970135
:1025C00037706D2C9981792E690C711C690C711C06
:1025D000D301ED91FC91E20FF31FC901800F911F10
:1025E00081309840A0F0C12C48E0D42EC21AD30A02
:1025F000A601B501CF010E94F811A8014C195D098F
:10260000B5016C0D7D1DF3018081918103C0A8018E
:10261000B501CF010E94F811E00EF11E4F2D64E2CA
:1026200070E0892D0E94EC114E2D65E270E0892D3D
:102630000F90DF91CF911F910F91FF90EF90DF905E
:10264000CF90BF90AF909F907F906F900C94EC11C3
:102650000F931F9389019A0140E050E00E94B91244
:102660001F910F910895CF92DF92EF92FF920F93F7
:102670001F93CF93DF93EC017A018B016C01C40EA1
:10268000D51ECC15DD05A9F00E9488118FE00E94AF
:1026900082118D2F0E9482118C2F0E94821121960F
:1026A00080E00E948211F80181938F010E948A11BB
:1026B000E8CFC701DF91CF911F910F91FF90EF906D
:1026C000DF90CF900895CF92DF92EF92FF920F9319
:1026D0001F93CF93DF9369015770EC01C60FD11D93
:1026E000C60FD11D88859985840F951F9A01200FEB
:1026F000311F2130384090F0E12C68E0F62EE41ACA
:10270000F50AA701B6010E943313A8014E195F090B
:10271000B6016E0D7F1D8885998502C0A801B6019E
:10272000DF91CF911F910F91FF90EF90DF90CF90AD
:102730000C9433138F929F92AF92BF92CF92DF92FD
:10274000EF92FF920F931F93CF93DF936C01962E1E
:102750005A017901802E68E270E0892D0E944712AB
:10276000C82FD0E069E270E0892D0E944712DC2F6B
:10277000CC27C82B87019501AE01692DC6010E94A7
:10278000631381101AC0CE0DDF1D4D2F68E270E07B
:10279000892D0E94EC114C2F69E270E0892DDF91A8
:1027A000CF911F910F91FF90EF90DF90CF90BF904E
:1027B000AF909F908F900C94EC11DF91CF911F916F
:1027C0000F91FF90EF90DF90CF90BF90AF909F90D0
:1027D0008F900895CF93C62F61E070E08C2F0E94F8
:1027E000EC1161E070E08C2F0E9447128111F9CF4B
:1027F000CF91089590E0982F882744E050E0845FBF
:102800009B4F0C94F81162E070E00C944712CF9348
:10281000DF93C82FD62F472F64E070E00E94EC11A1
:102820004D2F65E070E08C2FDF91CF910C94EC116F
:10283000462F62E070E00C94EC11CF93DF93C82F29
:10284000D62F472F60E170E00E94EC114D2F61E11F
:1028500070E08C2FDF91CF910C94EC11CF93C82FA7
:1028600040E150E0682F89E193E00E94EA136FEFA6
:102870008C2FCF910C941814EF92FF921F93CF934B
:10288000DF9300D0CDB7DEB7182F7A018FEF860F18
:10289000853048F5812F2A8369830E942E142A816E
:1028A0006981462F422B60E070E0812F0E94EC117D
:1028B000E114F10411F0B7010AC06091290370918D
:1028C0002A036F5F7F4F70932A0360932903812F40
:1028D0000E94071441E050E0612F89E193E00E94DB
:1028E000EA1381E001C080E00F900F90DF91CF915B
:1028F0001F91FF90EF900895CF93C82F63E070E091
:102900000E944712833149F442E050E06C2F89E184
:1029100093E00E94EA1381E001C080E0CF91089526
:102920001F93CF93DF93182FFB01EA0180818F3F24
:1029300051F481818F3F91F482818F3F79F48381BB
:102940008F3F61F41EC0811109C08181811106C0D1
:102950008281811103C08381882399F0209789F0B7
:10296000BF01812F0E94FA13BE01812F0E941D1406
:1029700044E050E0612F89E193E00E94EA1381E096
:1029800001C080E0DF91CF911F91089548E050E0B1
:10299000682F89E193E00C94EA13DF92EF92FF92A3
:1029A0000F931F93CF93DF93D82E8B01EA01413011
:1029B00088E0580710F0C0E0D8E06D2D89E193E081
:1029C0000E9469127C0163E070E08D2D0E94471225
:1029D000873111F08C3121F4EC16FD0670F302C042
:1029E000C0E0D0E09E01A8016D2D89E193E00E9436
:1029F000281340E250E06D2D89E193E00E94EA1334
:102A00008D2D0E94031484FD0DC063E070E08D2DB8
:102A10000E9447128111F4CF8D2D0E942E1480E068
:102A200090E005C060E18D2D0E941814CE01DF9169
:102A3000CF911F910F91FF90EF90DF900895DF925B
:102A4000EF92FF920F931F93CF93DF93D82E7B01CA
:102A50008A01682F89E193E00E949D12EC010097A2
:102A600099F463E070E08D2D0E944712843111F1DA
:102A7000882301F1C1E0D0E08C3111F4C0E0D0E056
:102A8000D195C195D10916C0081719070CF4E801B2
:102A90001C161D067CF400E09E01A7016D2D89E146
:102AA00093E00E949A1340E450E06D2D89E193E099
:102AB0000E94EA13CE01DF91CF911F910F91FF90F9
:102AC000EF90DF9008950F93AB0101E021E030E03B
:102AD000682F89E193E00E949A1381E090E00F91C2
:102AE0000895BF92CF92DF92EF92FF920F931F93C0
:102AF000CF93DF93B82E7B016A01E901682F89E14A
:102B000093E00E9469128C179D0730F46B2D89E1C8
:102B100093E00E946912EC018E019601A7016B2DD2
:102B200089E193E00E94B912CE01DF91CF911F910C
:102B30000F91FF90EF90DF90CF90BF9008951F937B
:102B4000CF93DF93182FFB01EA018081811109C027
:102B50008181811106C08281811103C08381882314
:102B600069F0209759F0BF01812F0E94FA13BE012E
:102B7000812F0E941D1481E090E002C080E090E06F
:102B8000DF91CF911F910895CF93C82F40E250E07D
:102B9000682F89E193E00E94EA138C2F0E940314AE
:102BA00084FD0CC08C2F0E94031483FFF6CF68E1D4
:102BB0008C2F0E94181480E090E006C060E18C2FFA
:102BC0000E94181481E090E0CF910895CF92DF9297
:102BD000EF92FF920F931F93CF93DF936C017A01D3
:102BE000EB01E60EF71E00E010E0CE15DF0561F008
:102BF0006991D601ED91FC910190F081E02DC60123
:102C00000995080F191FF1CFC801DF91CF911F91CE
:102C10000F91FF90EF90DF90CF90089561157105AF
:102C200081F0DB010D900020E9F7AD014150510921
:102C3000461B570BDC01ED91FC910280F381E02DE6
:102C4000099480E090E00895DC01ED91FC91019001
:102C5000F081E02D09948F929F92AF92BF92CF9214
:102C6000DF92EF92FF920F931F93CF93DF93CDB735
:102C7000DEB7A1970FB6F894DEBF0FBECDBF7C01C3
:102C8000C42EE52FCB01D22E19A221E02D1510F074
:102C90002AE0D22E8E010F5D1F4F8D2C912CA12C7E
:102CA000B12C6C2D7E2FA50194010E94D51D8C2D79
:102CB000D29E80191124015011098A3014F4805DCC
:102CC00001C0895CF801808321153105410551055A
:102CD00021F0C22EE32FCA01E4CFB801C7010E9440
:102CE0000E16A1960FB6F894DEBF0FBECDBFDF91D2
:102CF000CF911F910F91FF90EF90DF90CF90BF90F9
:102D0000AF909F908F9008952115310541F4DC011B
:102D1000ED91FC910190F081E02D642F09940C94C9
:102D20002B169A01462F50E060E070E00C94841658
:102D30001092980381E0809396031092950361E0CE
:102D400082E10E94B60661E083E10E94B606E9EBEB
:102D5000F0E080818E7F808380818D7F808388E416
:102D60008093B80085E48093BC000895413208F058
:102D70003FC0909198039111FCCF91E090939803FC
:102D8000209396032FEF20932B0310927003240FB0
:102D900020936F039093970390919703880F892B4B
:102DA0008093970380919503813041F410929503AD
:102DB000809197038093BB0085EC01C085EE8093E2
:102DC000BC00809198038130E1F3809170038417F7
:102DD00010F44091700321E733E0FB01D9018A2F01
:102DE000821B841718F48D918193F9CF842F089555
:102DF00080E008950F93413208F046C09091980307
:102E00009111FCCF92E090939803009396039FEF6B
:102E100090932B031092700340936F03FB0161E7C3
:102E200073E0DB019A2F961B941718F491919D93F0
:102E3000F9CF1092970390919703880F892B809375
:102E4000970380919503813041F41092950380910E
:102E500097038093BB0085EC01C085EE8093BC0096
:102E6000222321F0809198038230E1F380912B039B
:102E70008F3F61F080912B03803251F080912B03C2
:102E8000803341F483E007C081E005C080E003C0E7
:102E900082E001C084E00F910895613298F420919E
:102EA0009803243089F460934D03FC018FE493E090
:102EB000DC012A2F281B261718F421912D93F9CF16
:102EC00080E0089581E0089582E0089585ED809383
:102ED000BC008091BC0084FDFCCF10929803089543
:102EE00085EC8093BC001092980308951F920F9276
:102EF0000FB60F9211242F933F934F935F936F93CD
:102F00007F938F939F93AF93BF93EF93FF938091A2
:102F1000B900887F803609F49CC068F5883209F4CE
:102F20005BC090F4803109F454C038F4882309F46C
:102F3000F5C0883009F44DC0F5C0883109F44CC0A3
:102F4000803209F45DC0EEC0803409F468C048F4F2
:102F5000803309F455C0883309F0E4C080932B0313
:102F6000A8C0803509F44FC0883509F45DC08834A5
:102F700009F0D8C0D5C0883909F4C6C0A8F488378C
:102F800009F467C038F4883609F463C0803709F45F
:102F900060C0C8C0883809F4B7C0803909F45FC080
:102FA000803809F0BFC05BC0803B09F485C038F4AD
:102FB000803A09F466C0883A09F47EC0B3C0803C08
:102FC00009F4A6C0883C09F4A3C0883B09F489C071
:102FD000A9C08091970310C09091700380916F03F6
:102FE000981770F5E091700381E08E0F8093700365
:102FF000F0E0EF58FC4F80818093BB0085EC85C0EA
:1030000080932B038DC0E091700381E08E0F80933D
:1030100070038091BB00F0E0EF58FC4F80839091EB
:10302000700380916F036DC0E091700381E08E0F9B
:10303000809370038091BB00F0E0EF58FC4F8083D9
:103040008091960381116CC081E08093950384EA9E
:1030500060C083E08093980310922C03CFCF8091BF
:103060002C03803208F050C0E0912C0381E08E0FD9
:1030700080932C038091BB00F0E0E35DFC4F8083E4
:10308000BDCF80912C03803230F4E0912C03F0E02E
:10309000E35DFC4F10820E94661760912C0370E084
:1030A000E0919103F09192038DE293E009951092E3
:1030B0002C030E94701736C084E08093980310920E
:1030C0004E0310924D03E0919303F0919403099500
:1030D00080914D03811105C081E080934D031092D2
:1030E0004F03E0914E0381E08E0F80934E03F0E09A
:1030F000E15BFC4F80818093BB0090914E038091F7
:103100004D03981708F47ACF85E88093BC000AC075
:1031100085EC8093BC001092980304C010922B039E
:103120000E946617FF91EF91BF91AF919F918F9190
:103130007F916F915F914F913F912F910F900FBEB3
:103140000F901F901895DC01ED91FC91008CF18D92
:10315000E02D099422E131E0FC0131832083FB0161
:103160004189528963897489FC0142835383648352
:1031700075830895FC01858996890895FC01818DE8
:10318000928D0895CF93DF931F92CDB7DEB76983F9
:10319000DC01ED91FC910280F381E02D41E050E0F3
:1031A000BE016F5F7F4F09950F90DF91CF9108951A
:1031B000CF93DF93EC01898D9A8D892B41F0E881C3
:1031C000F9810680F781E02DCE010995F4CFDF91DA
:1031D000CF910895CF93DF93EC018C85843061F01B
:1031E0000E942E14EC85F0E0EE0FFF1FE150FD4F22
:1031F0001182108284E08C87DF91CF910895FC01C9
:10320000108E178A6E5F7F4F84850C949F15FC018A
:1032100084850C94C415CF93DF93EC019A018F89B8
:10322000988DAB01BC018C850E9471152F89388D5A
:10323000280F391F388F2F8BDF91CF9108950F936F
:103240001F93CF93DF931F92CDB7DEB78C01FC01A4
:10325000818D928D892B59F041E050E0BE016F5F66
:103260007F4F84850E941F15181619061CF08FEFDA
:103270009FEF08C0F801818D928D0197928F818F09
:10328000898190E00F90DF91CF911F910F91089568
:10329000CF93DF93EC01898D9A8D009719F48FEF0E
:1032A0009FEF10C04817590708F0AC018C850E94A9
:1032B0001F15181619069CF7298D3A8D281B390BF6
:1032C0003A8F298FDF91CF910895CF93DF931F928B
:1032D000CDB7DEB7FC01218D328D232B49F0BE0125
:1032E0006F5F7F4F84850E946315898190E002C0E3
:1032F0008FEF9FEF0F90DF91CF9108950F931F9362
:10330000CF93DF93CDB7DEB728970FB6F894DEBF23
:103310000FBECDBF8C01DC01ED91FC910284F385E1
:10332000E02D0995F801648589E193E00E949D12E2
:10333000892B41F148E050E0BE016F5F7F4FD8011B
:103340001C968C910E941F1518161906ECF4BE01EC
:103350006F5F7F4FC8010F960E94B6078D8190E086
:10336000982F88272E81820F911DF801968B858BCF
:103370008F8190E0982F88272885820F911D928F4A
:10338000818F02C080E090E028960FB6F894DEBFEF
:103390000FBECDBFDF91CF911F910F910895CF92B6
:1033A000DF92EF92FF920F931F93CF93DF93EC0185
:1033B0006B018C85843019F543E0E42E44E0F42E53
:1033C00000E010E0C7010E942712811102C00C87A3
:1033D00008C08831E1F30F5F1F4FF39404301105EB
:1033E00089F78C85843059F0DE86CD861A8E198E49
:1033F00020E0A60162E00E943C1481E001C080E070
:10340000DF91CF911F910F91FF90EF90DF90CF90C0
:103410000895FC011382128248EE53E060E070E0F0
:1034200044835583668377838EE591E0918380831F
:1034300084E08487CF010F960C94A007CF92DF928F
:10344000EF92FF920F931F93CF93DF93CDB7DEB729
:10345000AF970FB6F894DEBF0FBECDBF7C018B01D6
:103460006A01CE0101960E94A007CE0109960E9432
:10347000091ACE018A960E94A00767EF72E0CE017A
:1034800084960E94D00CBE016C5D7F4FCE010196E8
:103490000E94EE0CAE01465D5F4FB801CE01019671
:1034A0000E94530F81309105C1F4D701ED91FC9139
:1034B0000088F189E02D82E191E09DA38CA30CA509
:1034C0001DA52EA53FA50EA31FA328A739A7A601BA
:1034D000BE016C5D7F4FC7010995AF960FB6F8949A
:1034E000DEBF0FBECDBFDF91CF911F910F91FF9037
:1034F000EF90DF90CF9008950F9300E020E040E040
:1035000060E089E993E00E94AA070F9108950F9364
:1035100000E020E040E060E08FE993E00E94AA072D
:103520000F91089561E08AE00E94B60661E08AE0AA
:103530000E947D068CB580618CBD8CB580648CBD8D
:1035400061E08DE00E947D0661E08BE00C947D06D9
:10355000F8940C94FD1D5058BB27AA270ED0FFC12C
:10356000C8D130F0CDD120F031F49F3F11F41EF4DA
:1035700098C10EF4E095E7FB8EC1E92F12D280F3DB
:10358000BA17620773078407950718F071F49EF560
:103590002AC20EF4E0950B2EBA2FA02D0B01B90113
:1035A00090010C01CA01A0011124FF27591B99F0B9
:1035B000593F50F4503E68F11A16F040A22F232FC5
:1035C000342F4427585FF3CF469537952795A79515
:1035D000F0405395C9F77EF41F16BA0B620B730BBC
:1035E000840BBAF09150A1F0FF0FBB1F661F771F2D
:1035F000881FC2F70EC0BA0F621F731F841F48F4E2
:10360000879577956795B795F7959E3F08F0B3CF67
:103610009395880F08F09927EE0F97958795089551
:1036200068D158F080E891E009F49EEF69D128F064
:1036300040E851E059F45EEF09C033C1D4C1E92F2D
:10364000E078AFD168F3092E052AC1F326173707B2
:103650004807590738F00E2E07F8E02569F0E025F5
:10366000E0640AC0EF6307F8009407FADB01B901D0
:103670009D01DC01CA01AD01EF9346D070D10AD0A3
:103680005F91552331F02BED3FE049E450FD49ECCB
:1036900063CF0895DF93DD27B92FBF7740E85FE35D
:1036A0001616170648075B0710F4D92FA3D19F936E
:1036B0008F937F936F9350D2E8E6F0E0F5D04FD12F
:1036C0002F913F914F915F91A8D1DD2349F0905800
:1036D000A2EA2AED3FE049EC5FE3D0785D274DDFB9
:1036E000DF913DC115D1E3954BC10CD038C108D154
:1036F00040F0FFD030F021F45F3F19F0CCC0511101
:1037000073C1CFC04ED198F39923C9F35523B1F3B8
:10371000951B550BBB27AA2762177307840738F040
:103720009F5F5F4F220F331F441FAA1FA9F333D09F
:103730000E2E3AF0E0E830D091505040E695001C53
:10374000CAF729D0FE2F27D0660F771F881FBB1F0F
:10375000261737074807AB07B0E809F0BB0B802DE9
:10376000BF01FF2793585F4F2AF09E3F510568F035
:1037700092C03AC15F3FECF3983EDCF386957795B3
:103780006795B795F7959F5FC9F7880F911D969537
:10379000879597F90895E1E0660F771F881FBB1F93
:1037A000621773078407BA0720F0621B730B840B40
:1037B000BA0BEE1F88F7E095089504D06894B11114
:1037C00013C10895F6D088F09F5790F0B92F99272C
:1037D000B751A0F0D1F0660F771F881F991F1AF01C
:1037E000BA95C9F712C0B13081F0FDD0B1E00895AB
:1037F000FAC0672F782F8827B85F39F0B93FCCF32C
:10380000869577956795B395D9F73EF49095809511
:10381000709561957F4F8F4F9F4F0895E89409C031
:1038200097FB3EF490958095709561957F4F8F4FF3
:103830009F4F9923A9F0F92F96E9BB279395F69509
:10384000879577956795B795F111F8CFFAF4BB0F87
:1038500011F460FF1BC06F5F7F4F8F4F9F4F16C0EB
:10386000882311F096E911C0772321F09EE8872F75
:10387000762F05C0662371F096E8862F70E060E031
:103880002AF09A95660F771F881FDAF7880F9695AA
:10389000879597F9089597F99F6780E870E060E051
:1038A00008959FEF80EC0895DF93CF931F930F93BC
:1038B000FF92EF92DF927B018C01689405C0DA2EB3
:1038C000EF01ABD0FE01E894A5912591359145918A
:1038D0005591AEF3EF0151DEFE019701A801DA9494
:1038E00079F7DF90EF90FF900F911F91CF91DF91CB
:1038F000089500240A941616170618060906089556
:1039000000240A9412161306140605060895C9CF5A
:1039100050D0E8F3E894E0E0BB279F57F0F02AEDA1
:103920003FE049EC06C0EE0FBB0F661F771F881FF4
:1039300028F0B23A62077307840728F0B25A620B84
:10394000730B840BE3959A9572F7803830F49A954F
:10395000BB0F661F771F881FD2F7904802C1092E40
:103960000394000C11F4882352F0BB0F40F4BF2BDA
:1039700011F460FF04C06F5F7F4F8F4F9F4F08951A
:10398000EF93E0FF06C0A2EA2AED3FE049EC5FEBCF
:10399000F4DDE5DF0F90039401FC9058E5E9F0E0D9
:1039A000F3C057FD9058440F551F59F05F3F71F019
:1039B0004795880F97FB991F61F09F3F79F0879596
:1039C0000895121613061406551FF2CF4695F1DF1F
:1039D00008C0161617061806991FF1CF86957105AF
:1039E000610508940895E894BB2766277727CB01E3
:1039F00097F908959B01AC0160E070E080E89FE3D7
:103A000074CE0BD0ACCF75DF28F07ADF18F0952399
:103A100009F041CF46CF1124E7CFC3DFA0F3959F34
:103A2000D1F3950F50E0551F629FF001729FBB27A5
:103A3000F00DB11D639FAA27F00DB11DAA1F649F51
:103A40006627B00DA11D661F829F2227B00DA11D04
:103A5000621F739FB00DA11D621F839FA00D611D8A
:103A6000221F749F3327A00D611D231F849F600DAB
:103A7000211D822F762F6A2F11249F5750408AF0E4
:103A8000E1F088234AF0EE0FFF1FBB1F661F771F70
:103A9000881F91505040A9F79E3F510570F0FBCE12
:103AA000A3CF5F3FECF3983EDCF38695779567955F
:103AB000B795F795E7959F5FC1F7FE2B880F911D8E
:103AC0009695879597F908959F9322DF0F9007FCAD
:103AD000EE5F56CF11F40EF4E4CE41C06ADFD0F3AE
:103AE0009923D9F3CEF39F57550B87FF46D0002477
:103AF000A0E640EA900180585695979528F4805C9E
:103B0000660F771F881F20F026173707480730F405
:103B1000621B730B840B202931294A2BA69517941D
:103B20000794202531254A2758F7660F771F881FED
:103B300020F026173707480730F4620B730B840B0D
:103B4000200D311D411DA09581F7B901842F915899
:103B5000880F9695879508959B01AC0152CF9F3FA2
:103B600031F0915020F4879577956795B795880F38
:103B7000911D9695879597F9089591505040660F3D
:103B8000771F881FD2F708959F938F937F936F932A
:103B9000FF93EF939B01AC0134DFEF91FF9184DE43
:103BA0002F913F914F915F912CCFA1E21A2EAA1B2A
:103BB000BB1BFD010DC0AA1FBB1FEE1FFF1FA217DD
:103BC000B307E407F50720F0A21BB30BE40BF50BDA
:103BD000661F771F881F991F1A9469F76095709563
:103BE000809590959B01AC01BD01CF010895EE0F2A
:0E3BF000FF1F0590F491E02D0994F894FFCF8B
:103BFE0001000000B00B5ADADADAE8030004000024
:103C0E0000006607000000002408E615D007F9073B
:103C1E00E007190800000000050AD809AD09B5092A
:103C2E00C809D70900000000820AB70AD10ADC0AC7
:103C3E00FA0A980A9A0B1D0BF60A060C470CAF0AE5
:103C4E0000000000E80FAE10FE0F00000000C218CA
:103C5E000B19BE181F196519D818CF19EA18FF18B5
:0E3C6E001E1A07197E194819A318AA18BA18A9
:00000001FF
