:100000000C9491000C94B9000C94B9000C94B900B4
:100010000C94B9000C94B9000C94B9000C94B9007C
:100020000C94B9000C94B9000C94B9000C94B9006C
:100030000C94B9000C94B9000C94B9000C94B9005C
:100040000C94B3050C94B9000C949F0D0C94D90D2D
:100050000C94B9000C94B9000C94B9000C94B9003C
:100060000C94021C0C94B900084AD73B3BCE016E9D
:1000700084BCBFFDC12F3D6C74319ABD56833DDAFF
:100080003D00C77F11BED9E4BB4C3E916BAAAABE0E
:10009000000000803F05A84CCDB2D44EB93836A937
:1000A000020C50B9918688083CA6AAAA2ABE000074
:1000B00000803F000000000700020100000304066A
:1000C0000000000000000000010204081020408031
:1000D0000102040810200102040810200404040492
:1000E00004040404020202020202030303030303E2
:1000F0000000000023002600290000000000250069
:1001000028002B0000000000240027002A005602CF
:10011000FF0C950EBC0FA9111E127A12B516081FFE
:10012000131F11241FBECFEFD8E0DEBFCDBF11E0FB
:10013000A0E0B1E0E8EAF5E402C005900D92AA392A
:10014000B107D9F723E0AAE9B1E001C01D92A63BAF
:10015000B207E1F711E0C2E2D1E004C02297FE014C
:100160000E94CE22CE30D107C9F70E948E030C9494
:10017000341F0C940000CF93DF93EC010E949C038A
:100180001F86188A198A1A8A1B8A1C8A1D8A1E8A47
:100190001F8A188E198E1A8E40E050E060E07FE3CF
:1001A00049A35AA36BA37CA340E050E060E271E452
:1001B0004DA35EA36FA378A71DA61EA61FA618AA0F
:1001C00019AA1AAA1BAA1CAADF91CF910895CF934E
:1001D000DF93EC018CEA92E00E94820FCE01DF9166
:1001E000CF910C942204CF92DF92EF92FF92CF93A3
:1001F000DF93EC019C01215E3F4FAC01435E5F4FFA
:10020000BC01655E7F4F0E94B6036D8D7E8D645686
:100210007109882777FD8095982F0E94B9206B017E
:100220007C016B8D7C8D6C507109882777FD8095E2
:10023000982F0E94B9206B8B7C8B8D8B9E8BCF8AE5
:10024000D88EE98EFA8EDF91CF91FF90EF90DF90FC
:10025000CF900895FC0120813181428153816481D6
:100260007581868197810C94C41FCF93DF93EC0135
:100270000E94F300CE0143960E942A016F87788B7B
:10028000898B9A8BDF91CF9108958F929F92AF9235
:10029000BF92CF92DF92EF92FF920F931F93CF9373
:1002A000DF93EC018B01688179818A819B81CC800D
:1002B000DD80EE80FF809B01AC010E94D2214B01CA
:1002C0005C01A7019601C701B6010E94D2219B01E2
:1002D000AC01C501B4010E94511F0E943F226B0175
:1002E0007C01CE010E942A014B015C01F8012081B2
:1002F0003181428153810E94511F0E941B209B012A
:10030000AC01C701B6010E94D221688379838A8338
:100310009B83F8012081318142815381C501B40161
:100320000E94511F0E9435229B01AC01C701B601FA
:100330000E94D2216C837D838E839F83CE01DF91C7
:10034000CF911F910F91FF90EF90DF90CF90BF90D2
:10035000AF909F908F9008954F925F926F927F928F
:100360008F929F92AF92BF92CF92DF92EF92FF92C5
:100370000F931F93CF93DF93CDB7DEB728970FB6B8
:10038000F894DEBF0FBECDBF8C010E94F300F801D0
:1003900087859089A189B289B05889839A83AB8374
:1003A000BC83BE016F5F7F4FC80143960E94450129
:1003B0000E942A016D837E838F839887F80121A193
:1003C00032A143A154A161A972A983A994A90E9451
:1003D000511F6B017C01F80125A136A147A150A551
:1003E0000E94511F9B01AC01C701B6010E941E2053
:1003F0004B015C01F80161A772A783A794A745A4EC
:1004000056A467A470A820E030E044E353E46D8173
:100410007E818F8198850E94D2212BED3FE049E4B7
:1004200050E40E941E20A30192010E94501F9B01D4
:10043000AC01C501B4010E94D2219B01AC01C301F2
:10044000B2010E94511F2B013C01F80165A776A75C
:1004500087A790ABA501940160E070E080E89FE37E
:100460000E94501F9B01AC01C701B6010E94D2211E
:10047000F80161AB72AB83AB94ABC301B2012896B8
:100480000FB6F894DEBF0FBECDBFDF91CF911F91A5
:100490000F91FF90EF90DF90CF90BF90AF909F9023
:1004A0008F907F906F905F904F9008950F9300E032
:1004B00020E040E060E08DEE91E00E94E80C88EBE7
:1004C00091E00E94BB000DE42AE248EA60EC82EB76
:1004D00091E00E94E80C01E02AE248EA60EC8CEA34
:1004E00091E00E94E80C2AE248EA60EC86EA91E09A
:1004F0000E94E80C00E02FEF4FEF6FEF80EA91E0F1
:100500000E94E80C69E375E08AE991E00F910C9490
:100510008015EF92FF920F931F93CF93DF93CDB788
:10052000DEB768970FB6F894DEBF0FBECDBF2EE2E0
:1005300031E03A8329838091A2019091A301A09197
:10054000A401B091A5018B839C83AD83BE833887C2
:100550002F838091A8019091A901A091AA01B09147
:10056000AB0189879A87AB87BC873E872D878091AF
:10057000AE019091AF01A091B001B091B1018F8710
:10058000988BA98BBA8B3C8B2B8B8091B40190916B
:10059000B501A091B601B091B7018D8B9E8BAF8B49
:1005A000B88FCE0101967C018E01095F1F4F9E011D
:1005B000235F3F4FAE014D5E5F4F64E071E084E02A
:1005C00093E00E94C9118AE991E00E943C1540E045
:1005D00052EC61E070E082E092E00E94140E88EB41
:1005E00091E00E94E70061E08DE00E94B60662E0C3
:1005F00087E00E94B60668960FB6F894DEBF0FBE7D
:10060000CDBFDF91CF911F910F91FF90EF90089593
:10061000CF92DF92EF92FF92CF93DF93CDB7DEB709
:1006200064970FB6F894DEBF0FBECDBF88EB91E0A4
:100630000E94AC0120910A0130910B01232B09F09B
:1006400048C020E030E044E353E40E94511F6B01B6
:100650007C0122E030E0AB01BC0182E092E00E942C
:10066000590B22E030E0B701A6018AE991E00E942F
:10067000590B6AE971E0CE0101960E944416CE0141
:1006800001960E94ED0F8823F1F0CE0101960E94A1
:100690000F10892BC1F04AE0BE016F5F7F4FCE0182
:1006A0000E960E94990B66E171E0CE010E960E94B3
:1006B000850C882321F088EB91E00E943501CE0162
:1006C0000E960E94C10B81E090E090930B01809305
:1006D0000A0187E00E942507892B21F488EB91E02D
:1006E0000E94350164E170E080E090E00E942C06F9
:1006F00080910A0190910B01019790930B018093D7
:100700000A0164960FB6F894DEBF0FBECDBFDF912D
:10071000CF91FF90EF90DF90CF9008950E94520606
:100720000E948902C0E0D1E0CD276C2F8DE00E94AD
:10073000EF060E940803F8CF28E6FC012083089505
:100740000F93062F22E044E06BE1FC0180810E94C0
:100750006D050F9108950F93062F22E044E06CE1A0
:10076000FC0180810E946D050F9108958F929F92E8
:10077000AF92BF92CF92DF92EF92FF920F931F93AF
:10078000CF93DF93EC014B015A01690142E067E32B
:10079000FC0181917F010E946F046AE070E080E0BB
:1007A00090E00E942C0641E06AE08CE00E946F0419
:1007B0006AE070E080E090E00E942C0600910C015D
:1007C00010910D01970146E063E08CE00E947F04E8
:1007D0008A8190E0982F88272981822BF4019183C8
:1007E00080838C8190E0982F88272B81822BF501C4
:1007F000918380838E8190E0982F88272D81822B92
:10080000F60191838083DF91CF911F910F91FF902B
:10081000EF90DF90CF90BF90AF909F908F90089512
:10082000262F46E06BE6FC0180810C943A050F937D
:10083000062F23E042E06BE6FC0180810E946D05FB
:100840000F910895CF93DF93EC0161E00E941704AC
:1008500060E0CE010E94A00360E0CE010E94AB03E5
:1008600060E0CE01DF91CF910C941004EF92FF92E3
:100870000F931F93CF93DF9300D0CDB7DEB7062F32
:10088000142F682F8CEA92E029833A830E949C0FF0
:10089000602F8CEA92E00E94430F2981022FE22E02
:1008A0003A81F32E8E2D801B811740F4F701619160
:1008B0007F018CEA92E00E94430FF4CF8CEA92E031
:1008C0000E94B90F91E0811190E0892F0F900F9055
:1008D000DF91CF911F910F91FF90EF900895CF93EB
:1008E000DF931F92CDB7DEB749839E012F5F3F4F45
:1008F00041E00E9436040F90DF91CF9108953F921E
:100900004F925F926F927F928F929F92AF92BF921F
:10091000CF92DF92EF92FF920F931F93CF93DF93CB
:1009200000D000D000D0CDB7DEB7682E562E742E82
:100930003A8329830E94FD056B017C01312C412CF7
:10094000872D90E09C838B834801A12CB12C371418
:10095000B0F5662D8CEA92E00E949C0F652D8CEA22
:1009600092E00E94430F8CEA92E00E94B90F662D3C
:100970008CEA92E00E949C0F4B815C8143195109E3
:100980004132510514F040E250E0662D8CEA92E0CD
:100990000E94990F8CEA92E00E94EB0E892B59F18C
:1009A0000115110599F10E94FD056C197D098E094B
:1009B0009F09681579058A059B0540F11CC0011542
:1009C0001105A9F10E94FD056C197D098E099F0989
:1009D00020E030E0601771078207930740F1872D10
:1009E00090E0242D332727FD309528173907FCF494
:1009F00044244A941CC08CEA92E00E94B90F872DCF
:100A000090E2971508F480E2380EA1CFE981FA81CF
:100A1000E40DF11D47FCFA95FE83ED838CEA92E02C
:100A20000E94F30EED81FE8180834394B3CF842D29
:100A300026960FB6F894DEBF0FBECDBFDF91CF91E3
:100A40001F910F91FF90EF90DF90CF90BF90AF90EC
:100A50009F908F907F906F905F904F903F90089500
:100A60000F931F9389019A0141E00E947F041F9117
:100A70000F910895EF92FF920F931F93CF93DF93FF
:100A80001F92CDB7DEB7182F062FF42EE22E20913D
:100A90000C0130910D01AE014F5F5F4F0E94300598
:100AA000898121E030E00F2C01C0220F0A94EAF77F
:100AB000EE2019F0482F422B03C0422F40954823C7
:100AC0004983602F812F0E946F040F90DF91CF9197
:100AD0001F910F91FF90EF900895DF92EF92FF9298
:100AE0000F931F93CF93DF931F92CDB7DEB7F82EEE
:100AF000E62ED42E122F20910C0130910D01AE0163
:100B00004F5F5F4F0E943005882319F14D2D50E053
:100B1000411B51094F5F5F4FE1E0F0E002C0EE0F73
:100B2000FF1F1A95E2F73197042E01C0EE0F0A94C9
:100B3000EAF701C0000F4A95EAF74E2F40958981E8
:100B40004823E0234E2B49836E2D8F2D0E946F0486
:100B500001C080E00F90DF91CF911F910F91FF9026
:100B6000EF90DF9008951F920F920FB60F9211240D
:100B70002F933F938F939F93AF93BF938091F401F3
:100B80009091F501A091F601B091F7013091F30138
:100B900023E0230F2D3720F40196A11DB11D05C0C0
:100BA00026E8230F0296A11DB11D2093F301809327
:100BB000F4019093F501A093F601B093F7018091B1
:100BC000F8019091F901A091FA01B091FB01019611
:100BD000A11DB11D8093F8019093F901A093FA0132
:100BE000B093FB01BF91AF919F918F913F912F9156
:100BF0000F900FBE0F901F9018952FB7F89460912B
:100C0000F4017091F5018091F6019091F7012FBFE9
:100C100008953FB7F8948091F8019091F901A0915F
:100C2000FA01B091FB0126B5A89B05C02F3F19F032
:100C30000196A11DB11D3FBF6627782F892F9A2FDE
:100C4000620F711D811D911D42E0660F771F881F85
:100C5000991F4A95D1F70895CF92DF92EF92FF92B4
:100C6000CF93DF936B017C010E940906EB01C11455
:100C7000D104E104F10479F00E9409066C1B7D0B9C
:100C8000683E7340A0F381E0C81AD108E108F1087A
:100C9000C851DC4FECCFDF91CF91FF90EF90DF9008
:100CA000CF900895789484B5826084BD84B58160C6
:100CB00084BD85B5826085BD85B5816085BDEEE664
:100CC000F0E0808181608083E1E8F0E01082808143
:100CD00082608083808181608083E0E8F0E08081B1
:100CE00081608083E1EBF0E0808184608083E0EBD1
:100CF000F0E0808181608083EAE7F0E080818460B9
:100D00008083808182608083808181608083808114
:100D1000806880831092C1000895833081F028F4A8
:100D2000813099F08230A1F008958630A9F08730A3
:100D3000B9F08430D1F4809180008F7D03C0809120
:100D400080008F7780938000089584B58F7702C0EC
:100D500084B58F7D84BD08958091B0008F7703C0E6
:100D60008091B0008F7D8093B0000895CF93DF9382
:100D700090E0FC01E853FF4F2491FC01E452FF4F47
:100D80008491882349F190E0880F991FFC01EC5F62
:100D9000FE4FA591B49186509F4FFC01C591D4910F
:100DA0009FB7611108C0F8948C91209582238C9391
:100DB000888182230AC0623051F4F8948C91322FDA
:100DC000309583238C938881822B888304C0F89488
:100DD0008C91822B8C939FBFDF91CF9108950F93BD
:100DE0001F93CF93DF931F92CDB7DEB7282F30E04C
:100DF000F901EC54FF4F8491F901E853FF4F14912E
:100E0000F901E452FF4F04910023C9F0882321F037
:100E100069830E948D066981E02FF0E0EE0FFF1FCD
:100E2000E650FF4FA591B4919FB7F8948C91611152
:100E300003C01095812301C0812B8C939FBF0F901D
:100E4000DF91CF911F910F910895CF93DF93282FBA
:100E500030E0F901EC54FF4F8491F901E853FF4F62
:100E6000D491F901E452FF4FC491CC2391F0811148
:100E70000E948D06EC2FF0E0EE0FFF1FE051FF4FB8
:100E8000A591B4912C912D2381E090E021F480E094
:100E900002C080E090E0DF91CF9108956F927F9241
:100EA0008F929F92AF92BF92CF92DF92EF92FF927A
:100EB0000F931F93CF93DF93EC01CB01209781F425
:100EC000DF91CF911F910F91FF90EF90DF90CF9026
:100ED000BF90AF909F908F907F906F900C94370849
:100EE000FE01E60FF71F9E0122503109E217F307BA
:100EF00008F4ACC0D9010D911C9111970617170782
:100F0000B8F00530110508F49FC0A80144505109FC
:100F10004617570708F498C002501109061B170B13
:100F2000019311936D937C93CF010E94CF088CC0E5
:100F30005B01A01AB10A4E01800E911EA091B4036C
:100F4000B091B503612C712C60E070E0109709F44A
:100F500049C0A815B905C9F5ED90FC901197670136
:100F600042E0C40ED11CCA14DB0478F147018A1890
:100F70009B08640142E0C40ED11C1296BC901297EB
:100F80001396AC91B5E0CB16D10440F0B282A383A6
:100F900091828082D9018D939C9309C00E5F1F4F6F
:100FA0000E0D1F1DF90111830083EB2DFA2F611522
:100FB000710531F0DB011396FC93EE93129744C058
:100FC000F093B503E093B4033FC06D917C9111970A
:100FD0006616770608F43B01BD0112960D90BC9190
:100FE000A02DB4CF6091B2037091B3036815790559
:100FF000E9F468167906D0F440910E0150910F0182
:101000004115510541F44DB75EB7609112017091E1
:101010001301461B570BE417F507C0F4F093B30315
:10102000E093B203F901918380830EC00E943708D8
:101030007C01009759F0A801BE010E94371FCE0124
:101040000E94CF08C70104C0CE0102C080E090E03A
:10105000DF91CF911F910F91FF90EF90DF90CF9094
:10106000BF90AF909F908F907F906F900895CF9397
:10107000DF938230910510F482E090E0E091B403B8
:10108000F091B50320E030E0A0E0B0E0309739F116
:101090004081518148175907B8F04817590771F432
:1010A00082819381109729F013969C938E931297C7
:1010B0002CC09093B5038093B40327C0211531054C
:1010C00031F04217530718F0A901DB0101C0EF010D
:1010D0009A01BD01DF010280F381E02DD7CF2115F8
:1010E0003105F9F0281B390B2430310580F48A8151
:1010F0009B816115710521F0FB019383828304C0FC
:101100009093B5038093B403FE01329644C0FE0170
:10111000E20FF31F81939193225031093983288381
:101120003AC02091B2033091B303232B41F42091B4
:101130001001309111013093B3032093B203209139
:101140000E0130910F012115310541F42DB73EB745
:101150004091120150911301241B350BE091B20311
:10116000F091B303E217F307A0F42E1B3F0B2817EF
:10117000390778F0AC014E5F5F4F2417350748F010
:101180004E0F5F1F5093B3034093B203819391932B
:1011900002C0E0E0F0E0CF01DF91CF910895CF935E
:1011A000DF93009709F487C0FC0132971382128203
:1011B000C091B403D091B503209781F4208131818F
:1011C000280F391F8091B2039091B30382179307C0
:1011D00079F5F093B303E093B2036DC0DE0120E034
:1011E00030E0AE17BF0750F412964D915C91139703
:1011F0009D014115510509F1DA01F3CFB383A283B3
:1012000040815181840F951F8A179B0771F48D913E
:101210009C911197840F951F02969183808312965B
:101220008D919C911397938382832115310529F425
:10123000F093B503E093B4033EC0D9011396FC9339
:10124000EE9312974D915D91A40FB51FEA17FB071E
:1012500079F480819181840F951F0296D9011196AE
:101260009C938E938281938113969C938E93129775
:10127000E0E0F0E08A819B81009719F0FE01EC012B
:10128000F9CFCE01029628813981820F931F2091D8
:10129000B2033091B3032817390769F4309729F462
:1012A0001092B5031092B40302C013821282D0933D
:1012B000B303C093B203DF91CF910895CF92DF9231
:1012C000EF92FF920F931F93CF93DF936C017A01FC
:1012D000EB01E60EF71E00E010E0CE15DF0561F031
:1012E0006991D601ED91FC910190F081E02DC6014C
:1012F0000995080F191FF1CFC801DF91CF911F91F8
:101300000F91FF90EF90DF90CF90089561157105D8
:1013100081F0DB010D900020E9F7AD01415051094A
:10132000461B570BDC01ED91FC910280F381E02D0F
:10133000099480E090E00895DC01ED91FC9101902A
:10134000F081E02D09940F931F93CF93DF93EC016D
:101350006DE00E949C098C016AE0CE010E949C090C
:10136000800F911FDF91CF911F910F9108958F9260
:101370009F92AF92BF92CF92DF92EF92FF920F9324
:101380001F93CF93DF93CDB7DEB7A1970FB6F89435
:10139000DEBF0FBECDBF7C01C42EE52FCB01D22E08
:1013A00019A221E02D1510F02AE0D22E8E010F5D3A
:1013B0001F4F8D2C912CA12CB12C6C2D7E2FA501B3
:1013C00094010E94AA228C2DD29E801911240150D2
:1013D00011098A3014F4805D01C0895CF8018083B2
:1013E000211531054105510521F0C22EE32FCA0117
:1013F000E4CFB801C7010E948609A1960FB6F89400
:10140000DEBF0FBECDBFDF91CF911F910F91FF9037
:10141000EF90DF90CF90BF90AF909F908F90089506
:10142000CF92DF92EF92FF920F931F93CF93DF93B0
:10143000EC016A017B012115310579F4E881F9811C
:101440000190F081E02D642FDF91CF911F910F91DA
:10145000FF90EF90DF90CF9009942A303105E9F4A6
:1014600077FF1AC06DE20E949C098C014427552722
:10147000BA014C195D096E097F092AE0CE010E946C
:10148000B709800F911FDF91CF911F910F91FF90AE
:10149000EF90DF90CF9008952AE0B701A601CE012A
:1014A000DF91CF911F910F91FF90EF90DF90CF9040
:1014B0000C94B7092115310541F4DC01ED91FC9143
:1014C0000190F081E02D642F09940C94B7099A01E2
:1014D000462F50E060E070E00C945A0A4F925F9201
:1014E0006F927F928F929F92AF92BF92CF92DF9234
:1014F000EF92FF920F931F93CF93DF93EC016A015A
:101500007B01B22E9A01AB01C701B6010E94802275
:10151000882319F06CE171E027C026013701E894B7
:1015200077F82FEF3FEF4FE75FE7C301B2010E946B
:10153000802281110DC02FEF3FEF4FE75FE7C3011E
:10154000B2010E94172018161CF460E271E00CC072
:101550002FEF3FEF4FE75FE4C701B6010E94C721BD
:101560001816ACF464E271E0CE01DF91CF911F91C7
:101570000F91FF90EF90DF90CF90BF90AF909F9032
:101580008F907F906F905F904F900C9486092FEF13
:101590003FEF4FE75FECC701B6010E94172087FDC0
:1015A000E1CF20E030E0A901C701B6010E94172079
:1015B00087FF0AC06DE2CE010E949C098C01F7FAF8
:1015C000F094F7F8F09402C000E010E0A12C60E085
:1015D00070E080E09FE3AB1441F020E030E040E2B7
:1015E00051E40E941E20A394F6CF9B01AC01C701D9
:1015F000B6010E94511F6B017C010E948B202B01C0
:101600003C010E94B7209B01AC01C701B6010E94BA
:10161000501F6B017C012AE0B301A201CE010E94A0
:10162000B709080F191FBB2039F068E271E0CE013D
:101630000E948609080F191F7B2C772041F120E0BA
:1016400030E040E251E4C701B6010E94D2216B01B3
:101650007C010E9486204B01AA2497FCA094BA2CFE
:101660002AE030E0B501A401CE010E94100A080F63
:10167000191FC501B4010E94B9209B01AC01C7012B
:10168000B6010E94501F6B017C017A94D6CFC8012D
:10169000DF91CF911F910F91FF90EF90DF90CF904E
:1016A000BF90AF909F908F907F906F905F904F9082
:1016B00008950F931F93CF93DF93EC010E946E0A5E
:1016C0008C01CE010E94A309800F911FDF91CF9161
:1016D0001F910F9108950F931F93CF93DF93EC0108
:1016E0000E94FD05688779878A879B87E881F98151
:1016F0000680F781E02DCE01099597FF15C00E9465
:10170000FD05088519852A853B85601B710B820BB9
:10171000930B0C811D812E813F8160177107820719
:10172000930720F38FEF9FEFDF91CF911F910F91E0
:101730000895EF92FF920F931F93CF93DF93EC01E5
:101740008B01E42E69E271E00E942F0CC8010E9417
:101750006B0BFF24E7FCF09497FD0BC08E159F05E3
:1017600041F0682FCE010E94720CC8010E946B0BE1
:10177000F3CFCE01DF91CF911F910F91FF90EF90AA
:101780000895FC01808191810C94CF08CF93DF9361
:10179000EC0188819981009711F00E94CF0819828D
:1017A00018821D821C821B821A82DF91CF910895BC
:1017B0000F931F93CF93DF93EC018B016F5F7F4FEC
:1017C000888199810E944E07009731F09983888320
:1017D0001B830A8381E001C080E0DF91CF911F91DC
:1017E0000F910895CF93DF93EC0188819981892B24
:1017F00029F08A819B818617970760F4CE010E94A9
:10180000D80B882341F08C819D81892B19F4E881C4
:10181000F981108281E0DF91CF910895EF92FF92DC
:101820000F931F93CF93DF93EC017B018A01BA01E1
:101830000E94F20B811104C0CE010E94C60B07C0AA
:101840001D830C83B701888199810E94491FCE01B5
:10185000DF91CF911F910F91FF90EF900895FC01C0
:1018600011821082138212821582148216826115EF
:10187000710559F0FB0101900020E9F7AF014150DB
:101880005109461B570B0C940E0C0895EF92FF92D2
:101890000F931F93CF93DF93EC017B010C811D818C
:1018A0006115710511F480E016C04115510591F0E4
:1018B000040F151FB8010E94F20B8823A1F32881A1
:1018C00039818C819D81B701820F931F0E94491F2E
:1018D0001D830C8381E0DF91CF911F910F91FF90C9
:1018E000EF900895CF93DF9300D0CDB7DEB7698333
:1018F0001A8241E050E0BE016F5F7F4F0E94460CAC
:101900000F900F90DF91CF910895FC0124813581D4
:10191000232B31F421E061157105A1F0FB0108C012
:10192000FC01808191816115710531F421E0FC0198
:101930008081882339F005C00E94401F21E0892B57
:1019400009F020E0822F0895AF92BF92CF92DF92EC
:10195000EF92FF920F931F93CF93DF936C017B0164
:10196000C0E0D0E000E010E0F601EC0FFD1F4AE01F
:1019700050E06281C7010E94670A5C016EE2C70104
:101980000E949C098A0D9B1D080F191F2196C330C8
:10199000D10551F74AE050E0F6016581C7010E9488
:1019A000670A800F911FDF91CF911F910F91FF90D8
:1019B000EF90DF90CF90BF90AF9008952EE231E08E
:1019C000FC013183208312821382148215820895D0
:1019D0000F93FC018EE291E09183808362834383C5
:1019E000248305830F910895FB0140815181628119
:1019F0007381FC01428353836483758308958EE26F
:101A000091E09093FD018093FC011092FE011092F1
:101A1000FF0110920002109201020895FC0124853A
:101A20003585F901E05CFF4F8081918132962081FC
:101A30003181821B930B8F7399270895FC01848554
:101A40009585FC01E05CFF4F4081518132962081F9
:101A500031814217530741F00190F081E02DE80FEA
:101A6000F91F808190E008958FEF9FEF0895FC01AA
:101A700084859585FC01E05CFF4F40815181329661
:101A8000208131814217530779F0A081B181A80FDD
:101A9000B91F8C91208131812F5F3F4F2F733327E6
:101AA0003183208390E008958FEF9FEF0895FC012C
:101AB00081A1882329F0A489B5898C9186FFFBCF69
:101AC00011A20895CF93DF93FC0126853785D901B4
:101AD000A05CBF4F8D919C91119701968F739927B0
:101AE000E901CE5BDF4F4881598184179507D9F30F
:101AF0000D90BC91A02DA20FB31F6C93A685B78546
:101B0000A05CBF4F11969C938E93A689B7892C91A8
:101B100081E090E0078C02C0880F991F0A94E2F7D9
:101B2000282B2C9381E081A30488F589E02D808106
:101B30008064808381E090E0DF91CF9108951F92CF
:101B40000F920FB60F9211242F933F934F938F93C1
:101B50009F93EF93FF938091C00082FD1CC0409142
:101B6000C6008091A8029091A90201968F739927CF
:101B70002091AA023091AB028217930771F0E09195
:101B8000A802F091A902E859FD4F40839093A90261
:101B90008093A80202C08091C600FF91EF919F91AF
:101BA0008F914F913F912F910F900FBE0F901F90EB
:101BB00018951F920F920FB60F9211242F933F93F7
:101BC0008F939F93EF93FF9320916402309165026E
:101BD00080916602909167022817390731F480914D
:101BE000C1008F7D8093C10014C0E0916602F09126
:101BF0006702EC5DFD4F2081809166029091670243
:101C000001968F73992790936702809366022093C1
:101C1000C600FF91EF919F918F913F912F910F906F
:101C20000FBE0F901F901895CF92DF92EF92FF9208
:101C3000CF93DF93EC016A017B01411581EE5807D8
:101C400061057105F9F0EC89FD8981E090E008A05B
:101C500002C0880F991F0A94E2F7808360E079E060
:101C60008DE390E0A70196010E94AA22215031093C
:101C7000410951095695479537952795211580E1DA
:101C8000380798F0EC89FD89108260E874E88EE1ED
:101C900090E0A70196010E94AA2221503109410932
:101CA00051095695479537952795E889F9893083E5
:101CB000EA89FB89208319A2EE89FF89408181E0AE
:101CC00090E09C010C8C02C0220F331F0A94E2F7B3
:101CD000422B4083EE89FF8940819C010D8C02C01C
:101CE000220F331F0A94E2F7422B4083EE89FF89CB
:101CF00040819C010E8C02C0220F331F0A94E2F730
:101D0000422B4083EE89FF8920810F8C02C0880F0F
:101D1000991F0A94E2F7809582238083DF91CF9107
:101D2000FF90EF90DF90CF900895109205021092EF
:101D3000040288EE93E0A0E0B0E080930602909366
:101D40000702A0930802B093090284E391E0909304
:101D500003028093020288E692E090930F02809340
:101D60000E0284E292E0909311028093100285ECBF
:101D700090E0909313028093120284EC90E0909391
:101D800015028093140280EC90E0909317028093E8
:101D9000160281EC90E0909319028093180282EC75
:101DA00090E090931B0280931A0286EC90E090934F
:101DB0001D0280931C0284E080931E0283E08093C6
:101DC0001F0287E08093200285E08093210281E05A
:101DD0008093220208958091DC0290E02091DD0240
:101DE000821B910908952091DD028091DC02281761
:101DF00050F4E22FF0E0E252FD4F808190E02F5F3F
:101E00002093DD0208958FEF9FEF0895E091DD02AA
:101E10008091DC02E81730F4F0E0E252FD4F80815F
:101E200090E008958FEF9FEF08950895CF92DF928D
:101E3000EF92FF920F931F93CF93DF937C01CB011F
:101E40008A012091B802222389F0EB016B01C40EB4
:101E5000D51ECC15DD0569F06991D701ED91FC9196
:101E60000190F081E02DC7010995F3CF642F0E9406
:101E7000D91BC801DF91CF911F910F91FF90EF9077
:101E8000DF90CF900895CF93DF931F92CDB7DEB749
:101E900069832091B8022223D1F02091B902203227
:101EA00040F021E030E0FC013383228380E090E0C9
:101EB00015C08091BA02E82FF0E0E554FD4F9981FA
:101EC00090838F5F8093BA028093B90205C061E06E
:101ED000CE0101960E94D91B81E090E00F90DF9126
:101EE000CF910895FC011382128248EE53E060E026
:101EF00070E0448355836683778384E491E0918323
:101F0000808308951092DD021092DC021092BA02D2
:101F10001092B9020C94241B862F413208F040E243
:101F20006EED72E00E94421B1092DD028093DC0293
:101F3000089521E00C948C0F81E08093B8026093A7
:101F4000DB021092BA021092B90208950F93062F85
:101F500021E04091B9026BEB72E08091DB020E94BC
:101F6000861B1092BA021092B9021092B8020F9119
:101F7000089561E00C94A60F8CEA92E00C94720F25
:101F8000CF93DF931F92CDB7DEB76983DC01ED916C
:101F9000FC910280F381E02D41E050E0BE016F5FD3
:101FA0007F4F09950F90DF91CF910895CF93DF93E5
:101FB000EC01E881F9810480F581E02DCE010995DD
:101FC000892B41F0E881F9810680F781E02DCE016F
:101FD0000995EFCFDF91CF91089521E0FC01848531
:101FE000843009F420E0822F08950F931F93CF933C
:101FF000DF93EC018A018C85843021F00E940B1A5A
:10200000892B39F481E090E09B838A8380E090E023
:1020100001C0C801DF91CF911F910F910895FC017C
:102020006485643021F086E293E00C94DB1780E055
:1020300090E00895CF93DF931F92CDB7DEB741E0D4
:1020400050E0BE016F5F7F4FFC0184850E945D1AE6
:10205000181619061CF4898190E002C08FEF9FEFDB
:102060000F90DF91CF910895FC0184850C945D1A47
:102070000F931F93CF93DF931F92CDB7DEB78C01E1
:10208000DC01ED91FC910480F581E02D0995892B0F
:1020900051F0BE016F5F7F4FF80184850E94A11A45
:1020A000898190E002C08FEF9FEF0F90DF91CF9179
:1020B0001F910F910895CF92DF92EF92FF920F93AD
:1020C0001F93CF93DF93CDB7DEB7AF970FB6F894DA
:1020D000DEBF0FBECDBF7C018B016A01CE01019630
:1020E0000E94DE0CCE0109960E94951ECE018A96B2
:1020F0000E94DE0C64E073E0CE0184960E940E1212
:10210000BE016C5D7F4FCE0101960E942C12AE0184
:10211000465D5F4FB801CE0101960E949114813057
:102120009105C1F4D701ED91FC910484F585E02D72
:102130008EE291E09DA38CA30CA51DA52EA53FA525
:102140000EA31FA328A739A7A601BE016C5D7F4F70
:10215000C7010995AF960FB6F894DEBF0FBECDBF8D
:10216000DF91CF911F910F91FF90EF90DF90CF9073
:102170000895FC01262F1382128248EE53E060E09E
:1021800070E0448355836683778384E591E091838F
:10219000808324870895FC018485843039F090E0A1
:1021A000982F88278D5F9B4F0C94651780E00895CA
:1021B000AF92BF92CF92DF92EF92FF920F931F9355
:1021C000CF93DF93EC015B016A018C85843009F0C9
:1021D0004EC033E0E32E34E0F32E00E010E0C70100
:1021E0000E946517811102C00C8709C08B7F88315E
:1021F000D9F30F5F1F4FF3940430110581F78C85DD
:102200008430A9F120911401309115012F5F3F4FC7
:102210002115310511F420E034E0309315012093AD
:102220001401409114015091150120E061E00E94D9
:102230007A19B5016E5F7F4FA6018C850E94CE1979
:10224000811103C084E08C8712C0CE010E94CB10A4
:10225000873151F061E070E080E090E00E942C0650
:10226000CE010E94CB10ECCF81E090E002C080E074
:1022700090E0DF91CF911F910F91FF90EF90DF9051
:10228000CF90BF90AF900895CF92DF92EF92FF92E0
:10229000CF93DF93EC018C85843081F10E94041A86
:1022A0000E94FD056B017C01CE010E94CB108823AA
:1022B00059F00E94FD056C197D098E099F09683E41
:1022C00073408105910598F0CE010E94CB108823C0
:1022D00019F08C850E946C19EC85F0E0EE0FFF1F61
:1022E000E45FFC4F1182108284E08C8707C061E0BC
:1022F00070E080E090E00E942C06D6CFDF91CF9175
:10230000FF90EF90DF90CF900895CF93DF93EC0193
:102310008C858430D1F0CE010E94CB108431A9F09D
:10232000882399F0883189F08C3169F4E881F9814A
:102330000480F581E02DCE01099521E0892B09F477
:1023400020E0822F03C081E001C080E0DF91CF91C7
:1023500008950F9300E020E040E060E08EEF92E00F
:102360000E94E80C0F91089544E050E0BC0181E028
:1023700090E00C94361744E050E0BC0185E090E01A
:102380000C94361744E050E0BC018FE090E00C94D0
:1023900036178F929F92AF92BF92CF92DF92EF92B9
:1023A000FF920F931F93CF93DF9300D0CDB7DEB78B
:1023B0004C016A01590186E293E069837A830E94A5
:1023C000EC1646E050E069817A8189E090E00E9455
:1023D0003617C60102960E94C211C80102960E94D9
:1023E000B411C70102960E94BB11F50142815381CD
:1023F00064817581F40142835383648375830F90F4
:102400000F90DF91CF911F910F91FF90EF90DF9090
:10241000CF90BF90AF909F908F9008952EE231E0C3
:10242000FC0131832083FB014281538164817581EA
:10243000FC01428353836483758308950F9300E006
:1024400020E040E060E084E193E00E94E80C84E05A
:1024500093E00F910C94DE0CFB0142815381648167
:102460007581FC01428353836483758317821682CE
:102470000895CF93FB0181918111FDCFFB0180E095
:1024800090E020E030E0CAE06191662309F1243059
:10249000310564F56E3271F48F3F910509F034F522
:1024A000DA01A20FB31F12968C932F5F3F4F80E08B
:1024B00090E0EACFDC01CA9FC001CB9F900D1124B0
:1024C000772767FD709560537109860F971FDCCFE2
:1024D0008F3F910509F054F4243031053CF4FA01A2
:1024E000E20FF31F828381E090E002C080E090E081
:1024F000CF9108950F9300E020E040E060E08AE192
:1025000093E00E94E80C0F910895AF92BF92CF9292
:10251000DF92EF92FF920F931F93CF93DF9300D040
:102520001F92CDB7DEB76C017B010E94FD05F6015D
:10253000778366838601085F1F4FB6016A5F7F4F0E
:1025400042E050E0C8010E94971D81E090E09A832C
:10255000898342E050E0BE016F5F7F4FC8010E9457
:10256000971D80E091E09A83898342E050E0BE01AC
:102570006F5F7F4FC8010E94971D1A82198242E047
:1025800050E0BE016F5F7F4FC8010E94971D42E07F
:1025900050E0BE016F5F7F4FC8010E94971D42E06F
:1025A00050E0BE016F5F7F4FC8010E94971D670119
:1025B000F6018081882311F1F7016F01819181116A
:1025C00015C05601AE18BF081A141B0494F4AB8250
:1025D00041E050E0BE016D5F7F4FC8010E94971D32
:1025E000A501B701C8010E94971D03C08E3229F7CB
:1025F000E8CF7601FFEFEF1AFF0ADACF1B8241E046
:1026000050E0BE016D5F7F4FC8010E94971DE12C15
:10261000FF24F394FA82E98242E050E0BE016F5F4A
:102620007F4FC8010E94971DFA82E98242E050E084
:10263000BE016F5F7F4FC8010E94971D81E090E04F
:102640000F900F900F90DF91CF911F910F91FF90FE
:10265000EF90DF90CF90BF90AF9008954F925F9230
:102660006F927F928F929F92AF92BF92CF92DF92A2
:10267000EF92FF920F931F93CF93DF93CDB7DEB707
:1026800063970FB6F894DEBF0FBECDBF7C015B0130
:102690006A010E94FD052B013C018701085F1F4F65
:1026A0004501A12CB12CC8010E940A1E181619065A
:1026B00094F00E94FD05641975098609970986162C
:1026C0009706A806B906D0F062E370E080E090E0DB
:1026D0000E942C06E8CFF701428153816481758105
:1026E000818D928DA38DB48D481759076A077B079A
:1026F00041F4858D968DC59721F406C08FEF9FEF2D
:10270000F9C08EEF9FEFF6C0C8010E944A1D0C97DA
:102710000CF4EEC04CE050E0BE016F5F7F4FC8018B
:102720000E94D41D8B819C819827892798279A8B9A
:10273000898BF7014681578129813A8142175307D6
:1027400011F497FD06C0C8010E94641D8CEF9FEF35
:10275000D1C08F709270892B31F0C8010E94641D26
:102760008BEF9FEFC7C0AF80B884BA24AB24BA24E4
:10277000A114B10419F0E12CF12C23C0C8010E946E
:10278000641D8AEF9FEFB6C041E050E0BE01635F79
:102790007F4FC8010E94D41D8D8581111BC08D857E
:1027A0008111F2CFC8010E94AB1DC8010E94AB1D70
:1027B000C8010E94AB1DC8010E94AB1DFFEFEF1ABC
:1027C000FF0A8D819E81982789279827E816F906A8
:1027D000D8F20AC08D859FEF980F9D878823F9F264
:1027E000C8010E94AB1DF6CFE12CF12C41E050E076
:1027F000BE016D5E7F4FC8010E94D41D8B89982F4A
:10280000907C61F4882371F08B899FEF980F9B8BEC
:10281000882341F0C8010E94AB1DF6CFC8010E9479
:10282000AB1D1B8A8B898111E1CF42E050E0BE01D4
:10283000615F7F4FC8010E94D41D42E050E0BE019D
:10284000635F7F4FC8010E94D41DC8010E94AB1D69
:10285000C8010E94AB1DC8010E94AB1DC8010E94A7
:10286000AB1D42E050E0BE016F5E7F4FC8010E9489
:10287000D41D8F8598898115914029F48D859E8579
:102880008115914019F0812C912C16C089899A8963
:102890008115944031F0C8010E94641D87EF9FEFBD
:1028A00029C0B6016E5F7F4F44E050E0C8010E942E
:1028B000D41D81E090E01EC089899A8998278927D4
:1028C00098278816990638F4C8010E94AB1D2FEF8F
:1028D000821A920AF1CF8FEFE81AF80AEA14FB0481
:1028E00009F084CFC8010E94641D86EF9FEF02C0EB
:1028F0008DEF9FEF63960FB6F894DEBF0FBECDBF8E
:10290000DF91CF911F910F91FF90EF90DF90CF90CB
:10291000BF90AF909F908F907F906F905F904F90FF
:1029200008958F929F92AF92BF92CF92DF92EF92D3
:10293000FF920F931F93CF93DF9300D000D000D06E
:10294000CDB7DEB78C015B016A010E9439124C01E0
:10295000009709F05FC0F80142815381648175815D
:1029600080911C0390911D03A0911E03B0911F0341
:10297000481759076A077B0709F450C00E94FD05F4
:102980007801F8E0EF0EF11C6F7077277C5FC701CC
:102990000E945B1E813009F045C08EE291E09A836F
:1029A0008983F80182819381A481B5818B839C8383
:1029B000AD83BE8345E350E0BE016F5F7F4FC7012B
:1029C0000E948B1D892B19F4812C912C1FC0B501FD
:1029D000C8010E948512892BB9F3C7010E94931D7B
:1029E000892B91F333E0A32EB12CA60168E873E1A3
:1029F000C8010E942E134C01F1E0AF1AB108A114D6
:102A0000B10421F08F3F2FEF920779F3C7010E94A5
:102A1000761D08C088248394912C04C09EEF892ED3
:102A200099249A94C40126960FB6F894DEBF0FBE7F
:102A3000CDBFDF91CF911F910F91FF90EF90DF906D
:102A4000CF90BF90AF909F908F900895CF93DF93DA
:102A50001F92CDB7DEB76983DC01ED91FC91028056
:102A6000F381E02D41E050E0BE016F5F7F4F09959B
:102A70000F90DF91CF910895EF92FF920F931F93E4
:102A8000CF93DF93CDB7DEB72D970FB6F894DEBFA7
:102A90000FBECDBF7C0100E010E0602FCE0101969B
:102AA0000E94B910CE0101960E94CB10811116C070
:102AB000F7014481558120E061E0802F0E947A195E
:102AC000802F0E94BA19F70184819581F801EE0FD9
:102AD000FF1FE45FFC4F9183808305C00F5F1F4F92
:102AE00004301105D1F62D960FB6F894DEBF0FBE57
:102AF000CDBFDF91CF911F910F91FF90EF9008957F
:102B0000FC011382128280E791E0918380837583B8
:102B100064830895BF92CF92DF92EF92FF920F935A
:102B20001F93CF93DF93CDB7DEB72D970FB6F894F1
:102B3000DEBF0FBECDBF8C014CE0C42E43E0D42ECF
:102B4000B12CE12CF12C6B2DCE0101960E94B91015
:102B5000D6012D913D916D01F80184819581281751
:102B60003907B1F4CE0101960E94CB10843169F08F
:102B7000CE0101960E94CB108C3151F4CE0101960A
:102B80000E940F10892B99F003C0EE24E394F12CDE
:102B9000B394F4E0BF12D7CFEF2871F4D801ED91D0
:102BA000FC910480F581E02DC801099505C0CE0196
:102BB00001960E944411ECCF2D960FB6F894DEBF1B
:102BC0000FBECDBFDF91CF911F910F91FF90EF907E
:102BD000DF90CF90BF9008957F928F929F92AF9297
:102BE000BF92CF92DF92EF92FF920F931F93CF93FA
:102BF000DF93CDB7DEB72D970FB6F894DEBF0FBECB
:102C0000CDBF6C015B014A010E948A155CE0E52E94
:102C100053E0F52E712C00E010E0672DCE010196F7
:102C20000E94B910F701219131917F01F601848151
:102C300095812817390731F4CE0101960E94CB10F7
:102C40008731C9F07394F4E07F12E7CFC8012D9665
:102C50000FB6F894DEBF0FBECDBFDF91CF911F91AD
:102C60000F91FF90EF90DF90CF90BF90AF909F902B
:102C70008F907F900895A401B501CE0101960E9426
:102C8000F50F080F191FDECFBF92CF92DF92EF92A0
:102C9000FF920F931F93CF93DF93CDB7DEB72D979E
:102CA0000FB6F894DEBF0FBECDBF8C016B01CB0118
:102CB0000E948A156CE0E62E63E0F62EB12C6B2D97
:102CC000CE0101960E94B910F701219131917F0147
:102CD000F601848195812817390761F4CE010196A8
:102CE0000E94CB10873179F0CE0101960E94CB1063
:102CF0008C3149F0B394F4E0BF12E1CF64E0C80135
:102D00000E94B91021C0CE0101960E940F10892B9C
:102D100089F38B819C81F801938382838D819E81CD
:102D2000AF81B88584839583A683B78349855A8507
:102D30006B857C85408751876287738784E591E046
:102D4000918380838D858487C8012D960FB6F89472
:102D5000DEBF0FBECDBFDF91CF911F910F91FF90CE
:102D6000EF90DF90CF90BF9008950F9300E020E0A8
:102D700040E060E080E293E00E94E80C0F9108954B
:102D80008EBD0DB407FEFDCF8EB508952A98089527
:102D90002A9A08951F93CF93DF9300D0CDB7DEB763
:102DA000182F6A8399830E94C61680EF0E94C0166E
:102DB0009981892F0E94C016812F0E94C0166A81B6
:102DC000862F0E94C0160E94C81681E00F900F90B7
:102DD000DF91CF911F910895CF93DF93EC016CE2C7
:102DE00071E080E090E00E942C060E941E1F229A53
:102DF00060E880E090E00E94CA1665E58BE190E013
:102E00000E94CA1665E58AE190E00E94CA1680E039
:102E100090E49983888380E090E69987888780E0B2
:102E200098E49B838A8380E098E69B878A8780E08A
:102E300090E59D838C8380E090E79D878C8780E080
:102E400098E59F838E8380E098E79F878E87DF9148
:102E5000CF910895FB01282F30E02C5F3F4F922F38
:102E60008827642F8E0F9F1F0C94CA16CF92DF9273
:102E7000EF92FF920F931F93CF93DF93EC017A01B0
:102E80008B016C01C40ED51ECC15DD05A1F00E948E
:102E9000C61680EF0E94C0168D2F0E94C0168C2F80
:102EA0000E94C0162196F80181918F010E94C016E0
:102EB0000E94C816E9CFC701DF91CF911F910F91F2
:102EC000FF90EF90DF90CF9008951F93CF93DF9303
:102ED0001F92CDB7DEB7182F99830E94C6168FE0D8
:102EE0000E94C0169981892F0E94C016812F0E94CE
:102EF000C01680E00E94C01689830E94C81689818E
:102F00000F90DF91CF911F910895282F30E02C5F13
:102F10003F4F922F8827860F971F0C9465171F939A
:102F2000CF93DF93182F60E270E00E948517C82FBF
:102F3000D0E061E270E0812F0E948517DC2FCC2762
:102F40009E01282BC901DF91CF911F910895FF9217
:102F50000F931F93CF93DF93F62EC0E0D0E08F2D19
:102F60000E948F178C01009721F08F2D0E948F17E0
:102F7000EC01C017D10799F7CE01DF91CF911F91D6
:102F80000F91FF9008951F93CF93DF93182F66E260
:102F900070E00E948517C82FD0E067E270E0812FB3
:102FA0000E948517DC2FCC279E01282BC901DF91B9
:102FB000CF911F910895FF920F931F93CF93DF93AB
:102FC000F62EC0E0D0E08F2D0E94C3178C01009731
:102FD00021F08F2D0E94C317EC01C017D10799F77C
:102FE000CE01DF91CF911F910F91FF9008956F92C5
:102FF0007F929F92AF92BF92CF92DF92EF92FF9219
:103000000F931F93CF93DF931F92CDB7DEB7D82EC8
:10301000962E3A01590164E270E0892D99830E944D
:103020008517E82EF12C65E270E0892D0E94851746
:10303000FE2CEE24E82AE60CF71C970137706D2C65
:103040009981792E690C711C690C711CD301ED9169
:10305000FC91E20FF31FC901800F911F813098404E
:10306000A0F0C12C48E0D42EC21AD30AA601B501A3
:10307000CF010E943617A8014C195D09B5016C0DEE
:103080007D1DF3018081918103C0A801B501CF01AD
:103090000E943617E00EF11E4F2D64E270E0892D7C
:1030A0000E942A174E2D65E270E0892D0F90DF9166
:1030B000CF911F910F91FF90EF90DF90CF90BF9035
:1030C000AF909F907F906F900C942A170F931F934F
:1030D00089019A0140E050E00E94F7171F910F917B
:1030E0000895CF92DF92EF92FF920F931F93CF93A9
:1030F000DF93EC017A018B016C01C40ED51ECC1557
:10310000DD05A9F00E94C6168FE00E94C0168D2F23
:103110000E94C0168C2F0E94C016219680E00E944B
:10312000C016F80181938F010E94C816E8CFC7012D
:10313000DF91CF911F910F91FF90EF90DF90CF9093
:103140000895CF92DF92EF92FF920F931F93CF9348
:10315000DF9369015770EC01C60FD11DC60FD11D59
:1031600088859985840F951F9A01200F311F213082
:10317000384090F0E12C68E0F62EE41AF50AA70139
:10318000B6010E947118A8014E195F09B6016E0DB3
:103190007F1D8885998502C0A801B601DF91CF9176
:1031A0001F910F91FF90EF90DF90CF900C947118CA
:1031B0008F929F92AF92BF92CF92DF92EF92FF9247
:1031C0000F931F93CF93DF936C01962E5A017901D1
:1031D000802E68E270E0892D0E948517C82FD0E00C
:1031E00069E270E0892D0E948517DC2FCC27C82B5F
:1031F00087019501AE01692DC6010E94A1188110B9
:103200001AC0CE0DDF1D4D2F68E270E0892D0E949F
:103210002A174C2F69E270E0892DDF91CF911F9121
:103220000F91FF90EF90DF90CF90BF90AF909F9065
:103230008F900C942A17DF91CF911F910F91FF90DF
:10324000EF90DF90CF90BF90AF909F908F900895B8
:10325000CF93C62F61E070E08C2F0E942A1761E0A7
:1032600070E08C2F0E9485178111F9CFCF910895BE
:1032700090E0982F882744E050E0845F9B4F0C94A7
:10328000361762E070E00C948517CF93DF93C82F58
:10329000D62F472F64E070E00E942A174D2F65E07B
:1032A00070E08C2FDF91CF910C942A17462F62E0AB
:1032B00070E00C942A17CF93DF93C82FD62F472F97
:1032C00060E170E00E942A174D2F61E170E08C2FC1
:1032D000DF91CF910C942A17CF93C82F40E150E093
:1032E000682F86E293E00E9428196FEF8C2FCF9110
:1032F0000C945619EF92FF921F93CF93DF9300D057
:10330000CDB7DEB7182F7A018FEF860F853048F5DD
:10331000812F2A8369830E946C192A816981462F33
:10332000422B60E070E0812F0E942A17E114F10423
:1033300011F0B7010AC060913603709137036F5FD7
:103340007F4F7093370360933603812F0E94451996
:1033500041E050E0612F86E293E00E94281981E06D
:1033600001C080E00F900F90DF91CF911F91FF90EF
:10337000EF900895CF93C82F63E070E00E94851707
:10338000833149F442E050E06C2F86E293E00E94E2
:10339000281981E001C080E0CF9108951F93CF9359
:1033A000DF93182FFB01EA0180818F3F51F4818167
:1033B0008F3F91F482818F3F79F483818F3F61F455
:1033C0001EC0811109C08181811106C082818111D5
:1033D00003C08381882399F0209789F0BF01812F52
:1033E0000E943819BE01812F0E945B1944E050E011
:1033F000612F86E293E00E94281981E001C080E0FD
:10340000DF91CF911F91089548E050E0682F86E248
:1034100093E00C942819DF92EF92FF920F931F9381
:10342000CF93DF93D82E8B01EA01413088E0580713
:1034300010F0C0E0D8E06D2D86E293E00E94A7175F
:103440007C0163E070E08D2D0E948517873111F0BB
:103450008C3121F4EC16FD0670F302C0C0E0D0E020
:103460009E01A8016D2D86E293E00E94661840E25D
:1034700050E06D2D86E293E00E9428198D2D0E9468
:10348000411984FD0DC063E070E08D2D0E94851709
:103490008111F4CF8D2D0E946C1980E090E005C061
:1034A00060E18D2D0E945619CE01DF91CF911F91C1
:1034B0000F91FF90EF90DF900895DF92EF92FF92CF
:1034C0000F931F93CF93DF93D82E7B018A01682F30
:1034D00086E293E00E94DB17EC01009799F463E029
:1034E00070E08D2D0E948517843111F1882301F140
:1034F000C1E0D0E08C3111F4C0E0D0E0D195C195AD
:10350000D10916C0081719070CF4E8011C161D068E
:103510007CF400E09E01A7016D2D86E293E00E94FD
:10352000D81840E450E06D2D86E293E00E942819FF
:10353000CE01DF91CF911F910F91FF90EF90DF901F
:1035400008950F93AB0101E021E030E0682F86E29F
:1035500093E00E94D81881E090E00F910895BF9207
:10356000CF92DF92EF92FF920F931F93CF93DF934F
:10357000B82E7B016A01E901682F86E293E00E9480
:10358000A7178C179D0730F46B2D86E293E00E94FD
:10359000A717EC018E019601A7016B2D86E293E03F
:1035A0000E94F717CE01DF91CF911F910F91FF90ED
:1035B000EF90DF90CF90BF9008951F93CF93DF934C
:1035C000182FFB01EA018081811109C081818111DD
:1035D00006C08281811103C08381882369F020970E
:1035E00059F0BF01812F0E943819BE01812F0E941E
:1035F0005B1981E090E002C080E090E0DF91CF9124
:103600001F910895CF93C82F40E250E0682F86E2C3
:1036100093E00E9428198C2F0E94411984FD0CC050
:103620008C2F0E94411983FFF6CF68E18C2F0E94F6
:10363000561980E090E006C060E18C2F0E94561978
:1036400081E090E0CF9108951092A50381E08093EE
:10365000A3031092A20361E082E10E94EF0661E001
:1036600083E10E94EF06E9EBF0E080818E7F8083AA
:1036700080818D7F808388E48093B80085E4809387
:10368000BC000895413208F03FC09091A50391110C
:10369000FCCF91E09093A5032093A3032FEF2093F9
:1036A000380310927D03240F20937C039093A4038E
:1036B0009091A403880F892B8093A4038091A20387
:1036C000813041F41092A2038091A4038093BB0047
:1036D00085EC01C085EE8093BC008091A50381300C
:1036E000E1F380917D03841710F440917D032EE770
:1036F00033E0FB01D9018A2F821B841718F48D91C6
:103700008193F9CF842F089580E008950F9341327B
:1037100008F046C09091A5039111FCCF92E09093E0
:10372000A5030093A3039FEF9093380310927D03AA
:1037300040937C03FB016EE773E0DB019A2F961B3D
:10374000941718F491919D93F9CF1092A40390913E
:10375000A403880F892B8093A4038091A203813056
:1037600041F41092A2038091A4038093BB0085ECE6
:1037700001C085EE8093BC00222321F08091A50337
:103780008230E1F3809138038F3F61F080913803FC
:10379000803251F080913803803341F483E007C0D8
:1037A00081E005C080E003C082E001C084E00F91A9
:1037B0000895613298F42091A503243089F4609330
:1037C0005A03FC018CE593E0DC012A2F281B261705
:1037D00018F421912D93F9CF80E0089581E00895A8
:1037E00082E0089585ED8093BC008091BC0084FD4B
:1037F000FCCF1092A503089585EC8093BC00109235
:10380000A50308951F920F920FB60F9211242F93C4
:103810003F934F935F936F937F938F939F93AF9358
:10382000BF93EF93FF938091B900887F803609F4AE
:103830009CC068F5883209F45BC090F4803109F4CB
:1038400054C038F4882309F4F5C0883009F44DC019
:10385000F5C0883109F44CC0803209F45DC0EEC077
:10386000803409F468C048F4803309F455C08833C3
:1038700009F0E4C080933803A8C0803509F44FC034
:10388000883509F45DC0883409F0D8C0D5C08839BE
:1038900009F4C6C0A8F4883709F467C038F488363C
:1038A00009F463C0803709F460C0C8C0883809F4DF
:1038B000B7C0803909F45FC0803809F0BFC05BC071
:1038C000803B09F485C038F4803A09F466C0883A30
:1038D00009F47EC0B3C0803C09F4A6C0883C09F45A
:1038E000A3C0883B09F489C0A9C08091A40310C07B
:1038F00090917D0380917C03981770F5E0917D0392
:1039000081E08E0F80937D03F0E0E258FC4F8081D0
:103910008093BB0085EC85C0809338038DC0E09117
:103920007D0381E08E0F80937D038091BB00F0E0EA
:10393000E258FC4F808390917D0380917C036DC0A1
:10394000E0917D0381E08E0F80937D038091BB0029
:10395000F0E0E258FC4F80838091A30381116CC09A
:1039600081E08093A20384EA60C083E08093A50392
:1039700010923903CFCF80913903803208F050C0C4
:10398000E091390381E08E0F809339038091BB0071
:10399000F0E0E65CFC4F8083BDCF8091390380323C
:1039A00030F4E0913903F0E0E65CFC4F10820E94B5
:1039B000F21B6091390370E0E0919E03F0919F0348
:1039C0008AE393E00995109239030E94FC1B36C0EC
:1039D00084E08093A50310925B0310925A03E09158
:1039E000A003F091A103099580915A03811105C0AC
:1039F00081E080935A0310925C03E0915B0381E0C5
:103A00008E0F80935B03F0E0E45AFC4F808180933B
:103A1000BB0090915B0380915A03981708F47ACF0A
:103A200085E88093BC000AC085EC8093BC001092AE
:103A3000A50304C0109238030E94F21BFF91EF917E
:103A4000BF91AF919F918F917F916F915F914F91B6
:103A50003F912F910F900FBE0F901F901895DC0192
:103A6000ED91FC91008CF18DE02D09942EE231E076
:103A7000FC0131832083FB01418952896389748968
:103A8000FC0142835383648375830895FC01858917
:103A900096890895FC01818D928D0895CF93DF93CF
:103AA0001F92CDB7DEB76983DC01ED91FC910280F6
:103AB000F381E02D41E050E0BE016F5F7F4F09953B
:103AC0000F90DF91CF910895CF93DF93EC01898D13
:103AD0009A8D892B41F0E881F9810680F781E02DEC
:103AE000CE010995F4CFDF91CF910895CF93DF9365
:103AF000EC018C85843061F00E946C19EC85F0E05B
:103B0000EE0FFF1FE45FFC4F1182108284E08C8770
:103B1000DF91CF910895FC01108E178A6E5F7F4F61
:103B200084850C94DD1AFC0184850C94021BCF93D0
:103B3000DF93EC019A018F89988DAB01BC018C85D4
:103B40000E94AF1A2F89388D280F391F388F2F8B7D
:103B5000DF91CF9108950F931F93CF93DF931F921F
:103B6000CDB7DEB78C01FC01818D928D892B59F088
:103B700041E050E0BE016F5F7F4F84850E945D1A77
:103B8000181619061CF08FEF9FEF08C0F801818D01
:103B9000928D0197928F818F898190E00F90DF91B4
:103BA000CF911F910F910895CF93DF93EC01898DF1
:103BB0009A8D009719F48FEF9FEF10C0481759079F
:103BC00008F0AC018C850E945D1A181619069CF746
:103BD000298D3A8D281B390B3A8F298FDF91CF9190
:103BE0000895CF93DF931F92CDB7DEB7FC01218DEF
:103BF000328D232B49F0BE016F5F7F4F84850E9479
:103C0000A11A898190E002C08FEF9FEF0F90DF91A2
:103C1000CF9108950F931F93CF93DF93CDB7DEB766
:103C200028970FB6F894DEBF0FBECDBF8C01DC0124
:103C3000ED91FC910284F385E02D0995F8016485EE
:103C400086E293E00E94DB17892B41F148E050E0C7
:103C5000BE016F5F7F4FD8011C968C910E945D1A48
:103C600018161906ECF4BE016F5F7F4FC8010F965E
:103C70000E94F40C8D8190E0982F88272E81820F6E
:103C8000911DF801968B858B8F8190E0982F882766
:103C90002885820F911D928F818F02C080E090E075
:103CA00028960FB6F894DEBF0FBECDBFDF91CF913F
:103CB0001F910F910895CF92DF92EF92FF920F9391
:103CC0001F93CF93DF93EC016B018C85843019F542
:103CD00043E0E42E44E0F42E00E010E0C7010E942F
:103CE0006517811102C00C8708C08831E1F30F5FAE
:103CF0001F4FF3940430110589F78C85843059F0F7
:103D0000DE86CD861A8E198E20E0A60162E00E9422
:103D10007A1981E001C080E0DF91CF911F910F916E
:103D2000FF90EF90DF90CF900895FC0113821282F4
:103D300048EE53E060E070E0448355836683778308
:103D40008AE791E09183808384E08487CF010F9696
:103D50000C94DE0CCF92DF92EF92FF920F931F93A1
:103D6000CF93DF93CDB7DEB7AF970FB6F894DEBF32
:103D70000FBECDBF7C018B016A01CE0101960E946E
:103D8000DE0CCE0109960E94951ECE018A960E94F5
:103D9000DE0C64E073E0CE0184960E940E12BE0138
:103DA0006C5D7F4FCE0101960E942C12AE01465DE4
:103DB0005F4FB801CE0101960E94911481309105A8
:103DC000C1F4D701ED91FC910088F189E02D8EE2DC
:103DD00091E09DA38CA30CA51DA52EA53FA50EA328
:103DE0001FA328A739A7A601BE016C5D7F4FC7019D
:103DF0000995AF960FB6F894DEBF0FBECDBFDF9129
:103E0000CF911F910F91FF90EF90DF90CF90089589
:103E10000F9300E020E040E060E086EA93E00E943B
:103E2000E80C0F9108950F9300E020E040E060E07F
:103E30008CEA93E00E94E80C0F91089561E08AE01B
:103E40000E94EF0661E08AE00E94B6068CB58061B0
:103E50008CBD8CB580648CBD61E08DE00E94B6069F
:103E600061E08BE00C94B606F8940C94D222FB012E
:103E7000DC0102C001900D9241505040D8F70895E6
:103E8000FB01DC018D91019080190110D9F3990B90
:103E90000895FB01DC0101900D920020E1F70895E7
:103EA0005058BB27AA270ED027C2F0D130F0F5D149
:103EB00020F031F49F3F11F41EF4C0C10EF4E095E0
:103EC000E7FBB6C1E92F3AD280F3BA17620773074E
:103ED0008407950718F071F49EF552C20EF4E09530
:103EE0000B2EBA2FA02D0B01B90190010C01CA01B4
:103EF000A0011124FF27591B99F0593F50F4503E5F
:103F000068F11A16F040A22F232F342F4427585F50
:103F1000F3CF469537952795A795F0405395C9F768
:103F20007EF41F16BA0B620B730B840BBAF0915020
:103F3000A1F0FF0FBB1F661F771F881FC2F70EC0BF
:103F4000BA0F621F731F841F48F487957795679592
:103F5000B795F7959E3F08F0B3CF9395880F08F07B
:103F60009927EE0F97958795089590D158F080E89E
:103F700091E009F49EEF91D128F040E851E059F426
:103F80005EEF09C05BC1FCC1E92FE078D7D168F3CF
:103F9000092E052AC1F3261737074807590738F0B5
:103FA0000E2E07F8E02569F0E025E0640AC0EF6313
:103FB00007F8009407FADB01B9019D01DC01CA0191
:103FC000AD01EF934AD098D10AD05F91552331F0DB
:103FD0002BED3FE049E450FD49EC63CF0895DF93BA
:103FE000DD27B92FBF7740E85FE3161617064807AD
:103FF0005B0710F4D92FCFD19F938F937F936F934B
:104000007CD2E8E6F0E01DD177D12F913F914F911E
:104010005F91D4D1DD2349F09058A2EA2AED3FE028
:1040200049EC5FE3D0785D274DDFDF9165C1DCD0DF
:1040300008F481E0089539D1E3956FC10CD05CC1DB
:104040002CD140F023D130F021F45F3F19F0F0C0C3
:10405000511197C1F3C072D198F39923C9F3552335
:10406000B1F3951B550BBB27AA276217730784076B
:1040700038F09F5F5F4F220F331F441FAA1FA9F321
:1040800033D00E2E3AF0E0E830D091505040E69513
:10409000001CCAF729D0FE2F27D0660F771F881F74
:1040A000BB1F261737074807AB07B0E809F0BB0B63
:1040B000802DBF01FF2793585F4F2AF09E3F510587
:1040C00068F0B6C05EC15F3FECF3983EDCF38695C6
:1040D00077956795B795F7959F5FC9F7880F911DFD
:1040E0009695879597F90895E1E0660F771F881FE9
:1040F000BB1F621773078407BA0720F0621B730B9C
:10410000840BBA0BEE1F88F7E095089504D06894ED
:10411000B11137C108951AD188F09F5790F0B92F87
:104120009927B751A0F0D1F0660F771F881F991F0C
:104130001AF0BA95C9F712C0B13081F021D1B1E0BF
:1041400008951EC1672F782F8827B85F39F0B93FCF
:10415000CCF3869577956795B395D9F73EF490950E
:104160008095709561957F4F8F4F9F4F0895E8948C
:1041700009C097FB3EF490958095709561957F4FAF
:104180008F4F9F4F9923A9F0F92F96E9BB2793955D
:10419000F695879577956795B795F111F8CFFAF46D
:1041A000BB0F11F460FF1BC06F5F7F4F8F4F9F4F9E
:1041B00016C0882311F096E911C0772321F09EE8FC
:1041C000872F762F05C0662371F096E8862F70E062
:1041D00060E02AF09A95660F771F881FDAF7880F3C
:1041E0009695879597F90895990F0008550FAA0B92
:1041F000E0E8FEEF16161706E807F907C0F01216FA
:104200001306E407F50798F0621B730B840B950BFC
:1042100039F40A2661F0232B242B252B21F4089551
:104220000A2609F4A140A6958FEF811D811D0895EE
:1042300097F99F6780E870E060E008959FEF80EC59
:104240000895DF93CF931F930F93FF92EF92DF9226
:104250007B018C01689405C0DA2EEF01AFD0FE011E
:10426000E894A5912591359145915591AEF3EF01D3
:1042700029DEFE019701A801DA9479F7DF90EF902B
:10428000FF900F911F91CF91DF91089500240A9420
:104290001616170618060906089500240A94121621
:1042A0001306140605060895C9CF50D0E8F3E89424
:1042B000E0E0BB279F57F0F02AED3FE049EC06C055
:1042C000EE0FBB0F661F771F881F28F0B23A6207F8
:1042D0007307840728F0B25A620B730B840BE395C3
:1042E0009A9572F7803830F49A95BB0F661F771F46
:1042F000881FD2F790480AC1092E0394000C11F4CC
:10430000882352F0BB0F40F4BF2B11F460FF04C0B0
:104310006F5F7F4F8F4F9F4F0895EF93E0FF06C071
:10432000A2EA2AED3FE049EC5FEBCCDDE5DF0F9040
:10433000039401FC9058E5E9F0E0FBC057FD90586C
:10434000440F551F59F05F3F71F04795880F97FB59
:10435000991F61F09F3F79F0879508951216130613
:104360001406551FF2CF4695F1DF08C01616170642
:104370001806991FF1CF8695710561050894089577
:10438000E894BB2766277727CB0197F908952CDFA0
:1043900008F48FEF08959B01AC0160E070E080E8C5
:1043A0009FE34CCE0BD0A8CF71DF28F076DF18F05A
:1043B000952309F03DCF42CF1124E3CFBFDFA0F317
:1043C000959FD1F3950F50E0551F629FF001729FAA
:1043D000BB27F00DB11D639FAA27F00DB11DAA1FC9
:1043E000649F6627B00DA11D661F829F2227B00D16
:1043F000A11D621F739FB00DA11D621F839FA00DA1
:10440000611D221F749F3327A00D611D231F849FF0
:10441000600D211D822F762F6A2F11249F57504047
:104420008AF0E1F088234AF0EE0FFF1FBB1F661FE2
:10443000771F881F91505040A9F79E3F510570F09B
:10444000F7CE9FCF5F3FECF3983EDCF386957795F0
:104450006795B795F795E7959F5FC1F7FE2B880F96
:10446000911D9695879597F908959F931EDF0F905C
:1044700007FCEE5F52CF11F40EF4E0CE45C066DFCC
:10448000D0F39923D9F3CEF39F57550B87FF4AD02A
:104490000024A0E640EA900180585695979528F4AC
:1044A000805C660F771F881F20F0261737074807A4
:1044B00030F4621B730B840B202931294A2BA695FB
:1044C00017940794202531254A2758F7660F771F40
:1044D000881F20F026173707480730F4620B730B4C
:1044E000840B200D311D411DA09581F7B901842F4A
:1044F0009158880F9695879508959B01AC0152CFEE
:1045000073DE880B990B08959F3F31F0915020F492
:10451000879577956795B795880F911D969587959F
:1045200097F9089591505040660F771F881FD2F772
:1045300008959F938F937F936F93FF93EF939B01C6
:10454000AC0130DFEF91FF917CDE2F913F914F91D5
:104550005F9128CFA1E21A2EAA1BBB1BFD010DC043
:10456000AA1FBB1FEE1FFF1FA217B307E407F50723
:1045700020F0A21BB30BE40BF50B661F771F881FFF
:10458000991F1A9469F760957095809590959B0195
:10459000AC01BD01CF010895EE0FFF1F0590F4910E
:0845A000E02D0994F894FFCF0F
:1045A80001000000B00B5ADADADA0800E80300006C
:1045B800B603800000047265736574006E616E0056
:1045C800696E66006F7666002E0000000000A40C7D
:1045D80000000000620D5E090E0D370D1E0D570D0F
:1045E80000000000430F160FEB0EF30E060F150F19
:1045F80000000000C00FF50F0F101A103810D60F6A
:10460800D8105B10341044118511ED0F0000000024
:104618002615EC153C15000000004E1D971D4A1D7F
:10462800AB1DF11D641D5B1E761D8B1DAA1E931DFF
:0A4638000A1ED41D2F1D361D461D5D
:00000001FF
