:100000000C9491000C94B9000C94B9000C94B900B4
:100010000C94B9000C94B9000C94B9000C94B9007C
:100020000C94B9000C94B9000C94B9000C94B9006C
:100030000C94B9000C94B9000C94B9000C94B9005C
:100040000C9424050C94B9000C94100D0C944A0DDA
:100050000C94B9000C94B9000C94B9000C94B9003C
:100060000C94731B0C94B900084AD73B3BCE016E2D
:1000700084BCBFFDC12F3D6C74319ABD56833DDAFF
:100080003D00C77F11BED9E4BB4C3E916BAAAABE0E
:10009000000000803F05A84CCDB2D44EB93836A937
:1000A000020C50B9918688083CA6AAAA2ABE000074
:1000B00000803F000000000700020100000304066A
:1000C0000000000000000000010204081020408031
:1000D0000102040810200102040810200404040492
:1000E00004040404020202020202030303030303E2
:1000F0000000000023002600290000000000250069
:1001000028002B0000000000240027002A00DE0346
:10011000700C060E2D0F1A118F11EB112616791E79
:10012000841E11241FBECFEFD8E0DEBFCDBF11E08B
:10013000A0E0B1E0EAE8F4E402C005900D92AA392B
:10014000B107D9F723E0AAE9B1E001C01D92A23AB4
:10015000B207E1F711E0C2E2D1E004C02297FE014C
:100160000E943F22CE30D107C9F70E9416050C9499
:10017000A51E0C940000EF92FF920F931F93CF9354
:10018000DF9300D0CDB7DEB7062F142F682F88E994
:1001900092E029833A830E940D0F602F88E992E054
:1001A0000E94B40E2981022FE22E3A81F32E8E2D69
:1001B000801B811740F4F70161917F0188E992E08B
:1001C0000E94B40EF4CF88E992E00E942A0F91E0D9
:1001D000811190E0892F0F900F90DF91CF911F91A7
:1001E0000F91FF90EF900895CF93DF931F92CDB7BB
:1001F000DEB749839E012F5F3F4F41E00E94BB0065
:100200000F90DF91CF9108953F924F925F926F923E
:100210007F928F929F92AF92BF92CF92DF92EF9296
:10022000FF920F931F93CF93DF9300D000D000D0A5
:10023000CDB7DEB7682E562E742E3A8329830E94DE
:100240006E056B017C01312C412C872D90E09C8345
:100250008B834801A12CB12C3714B0F5662D88E9A9
:1002600092E00E940D0F652D88E992E00E94B40E85
:1002700088E992E00E942A0F662D88E992E00E94A8
:100280000D0F4B815C81431951094132510514F026
:1002900040E250E0662D88E992E00E940A0F88E96A
:1002A00092E00E945C0E892B59F10115110599F11C
:1002B0000E946E056C197D098E099F0968157905E4
:1002C0008A059B0540F11CC001151105A9F10E948A
:1002D0006E056C197D098E099F0920E030E06017DA
:1002E00071078207930740F1872D90E0242D332773
:1002F00027FD309528173907FCF444244A941CC084
:1003000088E992E00E942A0F872D90E2971508F461
:1003100080E2380EA1CFE981FA81E40DF11D47FC9E
:10032000FA95FE83ED8388E992E00E94640EED81E8
:10033000FE8180834394B3CF842D26960FB6F89424
:10034000DEBF0FBECDBFDF91CF911F910F91FF9008
:10035000EF90DF90CF90BF90AF909F908F907F9065
:100360006F905F904F903F9008950F931F93890176
:100370009A0141E00E9404011F910F910895EF92AC
:10038000FF920F931F93CF93DF931F92CDB7DEB7EA
:10039000182F062FF42EE22E209104013091050132
:1003A000AE014F5F5F4F0E94B501898121E030E0CF
:1003B0000F2C01C0220F0A94EAF7EE2019F0482F03
:1003C000422B03C0422F409548234983602F812F41
:1003D0000E94F4000F90DF91CF911F910F91FF9039
:1003E000EF900895DF92EF92FF920F931F93CF93B8
:1003F000DF931F92CDB7DEB7F82EE62ED42E122F44
:100400002091040130910501AE014F5F5F4F0E94C2
:10041000B501882319F14D2D50E0411B51094F5F63
:100420005F4FE1E0F0E002C0EE0FFF1F1A95E2F728
:100430003197042E01C0EE0F0A94EAF701C0000FB5
:100440004A95EAF74E2F409589814823E0234E2BA9
:1004500049836E2D8F2D0E94F40001C080E00F9023
:10046000DF91CF911F910F91FF90EF90DF90089552
:1004700028E6FC01208308950F93062F22E044E034
:100480006BE1FC0180810E94F2010F9108950F93AE
:10049000062F22E044E06CE1FC0180810E94F20121
:1004A0000F9108958F929F92AF92BF92CF92DF9259
:1004B000EF92FF920F931F93CF93DF93EC014B01C9
:1004C0005A01690142E067E3FC0181917F010E94CA
:1004D000F4006AE070E080E090E00E949D0541E059
:1004E0006AE08CE00E94F4006AE070E080E090E056
:1004F0000E949D050091040110910501970146E0BD
:1005000063E08CE00E9404018A8190E0982F8827A4
:100510002981822BF401918380838C8190E0982F34
:1005200088272B81822BF501918380838E8190E037
:10053000982F88272D81822BF60191838083DF916C
:10054000CF911F910F91FF90EF90DF90CF90BF90D0
:10055000AF909F908F900895262F46E06BE6FC01A8
:1005600080810C94BF010F93062F23E042E06BE6DD
:10057000FC0180810E94F2010F910895CF93DF93D7
:10058000EC0161E00E94B30260E0CE010E943C02F7
:1005900060E0CE010E94470260E0CE01DF91CF9182
:1005A0000C94AC02CF93DF93EC010E9438021F86BB
:1005B000188A198A1A8A1B8A1C8A1D8A1E8A1F8A0F
:1005C000188E198E1A8EDF91CF910895CF93DF93F5
:1005D000EC0188E992E00E94F30ECE01DF91CF9109
:1005E0000C94BE02CF92DF92EF92FF92CF93DF93F3
:1005F000EC019C01215E3F4FAC01435E5F4FBC01AB
:10060000655E7F4F0E9452026D8D7E8D645671092A
:10061000882777FD8095982F0E942A206B017C0106
:100620006B8D7C8D6C507109882777FD8095982F94
:100630000E942A206B8B7C8B8D8B9E8BCF8AD88ED1
:10064000E98EFA8EDF91CF91FF90EF90DF90CF90FF
:100650000895FC012081318142815381648175813B
:10066000868197810C94351FCF93DF93EC010E9414
:10067000F202CE0143960E9429036F87788B898B03
:100680009A8BDF91CF9108958F929F92AF92BF92F4
:10069000CF92DF92EF92FF920F931F93CF93DF934E
:1006A000EC018B01688179818A819B81CC80DD801E
:1006B000EE80FF809B01AC010E9443214B015C0155
:1006C000A7019601C701B6010E9443219B01AC011D
:1006D000C501B4010E94C21E0E94B0216B017C01C1
:1006E000CE010E9429034B015C01F8012081318178
:1006F000428153810E94C21E0E948C1F9B01AC014B
:10070000C701B6010E944321688379838A839B8352
:10071000F8012081318142815381C501B4010E94D9
:10072000C21E0E94A6219B01AC01C701B6010E9416
:1007300043216C837D838E839F83CE01DF91CF9194
:100740001F910F91FF90EF90DF90CF90BF90AF90EF
:100750009F908F9008950F931F93CF93DF9300D0B6
:1007600000D0CDB7DEB78C010E94F202F8014785B8
:10077000508961897289705849835A836B837C835D
:10078000BE016F5F7F4FC80143960E9444030E94E1
:10079000290320E030E044E353E40E9443212BEDA1
:1007A0003FE049E450E40E948F1F0F900F900F909C
:1007B0000F90DF91CF911F910F9108950F9300E05B
:1007C00020E040E060E089ED91E00E94590C88EB68
:1007D00091E00E94D2020DE42AE248EA60EC82EB4A
:1007E00091E00E94590C01E02AE248EA60EC8CEAB0
:1007F00091E00E94590C2AE248EA60EC86EA91E016
:100800000E94590C00E02FEF4FEF6FEF80EA91E06C
:100810000E94590C69E375E08AE991E00F910C940C
:10082000F114EF92FF920F931F93CF93DF93CDB705
:10083000DEB768970FB6F894DEBF0FBECDBF2EE2CD
:1008400031E03A8329838091A2019091A301A09184
:10085000A401B091A5018B839C83AD83BE833887AF
:100860002F838091A8019091A901A091AA01B09134
:10087000AB0189879A87AB87BC873E872D8780919C
:10088000AE019091AF01A091B001B091B1018F87FD
:10089000988BA98BBA8B3C8B2B8B8091B401909158
:1008A000B501A091B601B091B7018D8B9E8BAF8B36
:1008B000B88FCE0101967C018E01095F1F4F9E010A
:1008C000235F3F4FAE014D5E5F4F66E071E080EF0A
:1008D00092E00E943A118AE991E00E94AD1440E052
:1008E00052EC61E070E08EEE91E00E94850D88EBA5
:1008F00091E00E94E60261E08DE00E94270662E03E
:1009000087E00E94270668960FB6F894DEBF0FBEF8
:10091000CDBFDF91CF911F910F91FF90EF90089580
:10092000CF92DF92EF92FF92CF93DF93CDB7DEB7F6
:1009300064970FB6F894DEBF0FBECDBF88EB91E091
:100940000E94AB0320910C0130910D01232B09F083
:1009500048C020E030E044E353E40E94C21E6B0133
:100960007C0122E030E0AB01BC018EEE91E00E9400
:10097000CA0A22E030E0B701A6018AE991E00E94AC
:10098000CA0A6AE971E0CE0101960E94B515CE014E
:1009900001960E945E0F8823F1F0CE0101960E941D
:1009A000800F892BC1F04AE0BE016F5F7F4FCE01FF
:1009B0000E960E940A0B66E171E0CE010E960E942F
:1009C000F60B882321F088EB91E00E943403CE01DE
:1009D0000E960E94320B84E090E090930D0180937C
:1009E0000C0187E00E949606892B21F488EB91E0A8
:1009F0000E94340364E170E080E090E00E949D0575
:100A000080910C0190910D01019790930D018093BD
:100A10000C0164960FB6F894DEBF0FBECDBFDF9118
:100A2000CF91FF90EF90DF90CF9008950E94C30583
:100A30000E941104C0E0D1E0CD276C2F8DE00E9410
:100A400060060E949004F8CF1F920F920FB60F928B
:100A500011242F933F938F939F93AF93BF938091D4
:100A6000E0019091E101A091E201B091E3013091A8
:100A7000DF0123E0230F2D3720F40196A11DB11DC6
:100A800005C026E8230F0296A11DB11D2093DF01AA
:100A90008093E0019093E101A093E201B093E30120
:100AA0008091E4019091E501A091E601B091E70108
:100AB0000196A11DB11D8093E4019093E501A093DF
:100AC000E601B093E701BF91AF919F918F913F9164
:100AD0002F910F900FBE0F901F9018952FB7F8947D
:100AE0006091E0017091E1018091E2019091E30158
:100AF0002FBF08953FB7F8948091E4019091E501EC
:100B0000A091E601B091E70126B5A89B05C02F3F53
:100B100019F00196A11DB11D3FBF6627782F892FBF
:100B20009A2F620F711D811D911D42E0660F771F84
:100B3000881F991F4A95D1F70895CF92DF92EF92BF
:100B4000FF92CF93DF936B017C010E947A05EB014A
:100B5000C114D104E104F10479F00E947A056C1B00
:100B60007D0B683E7340A0F381E0C81AD108E1080C
:100B7000F108C851DC4FECCFDF91CF91FF90EF909F
:100B8000DF90CF900895789484B5826084BD84B559
:100B9000816084BD85B5826085BD85B5816085BD78
:100BA000EEE6F0E0808181608083E1E8F0E0108291
:100BB000808182608083808181608083E0E8F0E0D2
:100BC000808181608083E1EBF0E0808184608083BC
:100BD000E0EBF0E0808181608083EAE7F0E08081F3
:100BE0008460808380818260808380818160808353
:100BF0008081806880831092C1000895833081F0E5
:100C000028F4813099F08230A1F008958630A9F05F
:100C10008730B9F08430D1F4809180008F7D03C09B
:100C2000809180008F7780938000089584B58F77BE
:100C300002C084B58F7D84BD08958091B0008F7708
:100C400003C08091B0008F7D8093B0000895CF9352
:100C5000DF9390E0FC01E853FF4F2491FC01E45244
:100C6000FF4F8491882349F190E0880F991FFC0180
:100C7000EC5FFE4FA591B49186509F4FFC01C5914A
:100C8000D4919FB7611108C0F8948C91209582236C
:100C90008C93888182230AC0623051F4F8948C913D
:100CA000322F309583238C938881822B888304C0D4
:100CB000F8948C91822B8C939FBFDF91CF910895F4
:100CC0000F931F93CF93DF931F92CDB7DEB7282FDB
:100CD00030E0F901EC54FF4F8491F901E853FF4FE4
:100CE0001491F901E452FF4F04910023C9F08823C5
:100CF00021F069830E94FE056981E02FF0E0EE0F8C
:100D0000FF1FE650FF4FA591B4919FB7F8948C91C7
:100D1000611103C01095812301C0812B8C939FBF6B
:100D20000F90DF91CF911F910F910895CF93DF9393
:100D3000282F30E0F901EC54FF4F8491F901E8537A
:100D4000FF4FD491F901E452FF4FC491CC2391F0AD
:100D500081110E94FE05EC2FF0E0EE0FFF1FE05125
:100D6000FF4FA591B4912C912D2381E090E021F4C7
:100D700080E002C080E090E0DF91CF9108956F9213
:100D80007F928F929F92AF92BF92CF92DF92EF921B
:100D9000FF920F931F93CF93DF93EC01CB0120972A
:100DA00081F4DF91CF911F910F91FF90EF90DF9031
:100DB000CF90BF90AF909F908F907F906F900C944A
:100DC000A807FE01E60FF71F9E0122503109E21726
:100DD000F30708F4ACC0D9010D911C9111970617C7
:100DE0001707B8F00530110508F49FC0A80144505A
:100DF00051094617570708F498C002501109061BFD
:100E0000170B019311936D937C93CF010E944008BF
:100E10008CC05B01A01AB10A4E01800E911EA091F8
:100E2000A003B091A103612C712C60E070E01097D9
:100E300009F449C0A815B905C9F5ED90FC901197C2
:100E4000670142E0C40ED11CCA14DB0478F14701EB
:100E50008A189B08640142E0C40ED11C1296BC9013
:100E600012971396AC91B5E0CB16D10440F0B28244
:100E7000A38391828082D9018D939C9309C00E5FD8
:100E80001F4F0E0D1F1DF90111830083EB2DFA2F4B
:100E90006115710531F0DB011396FC93EE93129707
:100EA00044C0F093A103E093A0033FC06D917C91F7
:100EB00011976616770608F43B01BD0112960D9056
:100EC000BC91A02DB4CF60919E0370919F036815D3
:100ED0007905E9F468167906D0F440910E01509135
:100EE0000F014115510541F44DB75EB760911201F4
:100EF00070911301461B570BE417F507C0F4F093EC
:100F00009F03E0939E03F901918380830EC00E94AA
:100F1000A8077C01009759F0A801BE010E94A81EF5
:100F2000CE010E944008C70104C0CE0102C080E08B
:100F300090E0DF91CF911F910F91FF90EF90DF90A4
:100F4000CF90BF90AF909F908F907F906F900895BB
:100F5000CF93DF938230910510F482E090E0E0912E
:100F6000A003F091A10320E030E0A0E0B0E03097D2
:100F700039F14081518148175907B8F0481759078E
:100F800071F482819381109729F013969C938E932C
:100F900012972CC09093A1038093A00327C0211522
:100FA000310531F04217530718F0A901DB0101C0E8
:100FB000EF019A01BD01DF010280F381E02DD7CF5F
:100FC00021153105F9F0281B390B2430310580F447
:100FD0008A819B816115710521F0FB0193838283D6
:100FE00004C09093A1038093A003FE01329644C0F5
:100FF000FE01E20FF31F819391932250310939834F
:1010000028833AC020919E0330919F03232B41F403
:10101000209110013091110130939F0320939E0382
:1010200020910E0130910F012115310541F42DB7AA
:101030003EB74091120150911301241B350BE091F2
:101040009E03F0919F03E217F307A0F42E1B3F0BC2
:101050002817390778F0AC014E5F5F4F241735072A
:1010600048F04E0F5F1F50939F0340939E03819360
:10107000919302C0E0E0F0E0CF01DF91CF910895BD
:10108000CF93DF93009709F487C0FC013297138256
:101090001282C091A003D091A103209781F42081F6
:1010A0003181280F391F80919E0390919F038217F1
:1010B000930779F5F0939F03E0939E036DC0DE01E3
:1010C00020E030E0AE17BF0750F412964D915C91CE
:1010D00013979D014115510509F1DA01F3CFB3834F
:1010E000A28340815181840F951F8A179B0771F459
:1010F0008D919C911197840F951F02969183808307
:1011000012968D919C9113979383828321153105BB
:1011100029F4F093A103E093A0033EC0D9011396F4
:10112000FC93EE9312974D915D91A40FB51FEA17B2
:10113000FB0779F480819181840F951F0296D90174
:1011400011969C938E938281938113969C938E9398
:101150001297E0E0F0E08A819B81009719F0FE0190
:10116000EC01F9CFCE01029628813981820F931FBD
:1011700020919E0330919F032817390769F4309717
:1011800029F41092A1031092A00302C013821282CC
:10119000D0939F03C0939E03DF91CF910895CF9288
:1011A000DF92EF92FF920F931F93CF93DF936C0127
:1011B0007A01EB01E60EF71E00E010E0CE15DF0528
:1011C00061F06991D601ED91FC910190F081E02DE3
:1011D000C6010995080F191FF1CFC801DF91CF9102
:1011E0001F910F91FF90EF90DF90CF9008956115C0
:1011F000710581F0DB010D900020E9F7AD01415050
:101200005109461B570BDC01ED91FC910280F381E3
:10121000E02D099480E090E00895DC01ED91FC91CF
:101220000190F081E02D09940F931F93CF93DF93EA
:10123000EC016DE00E940D098C016AE0CE010E9474
:101240000D09800F911FDF91CF911F910F9108958C
:101250008F929F92AF92BF92CF92DF92EF92FF92C6
:101260000F931F93CF93DF93CDB7DEB7A1970FB640
:10127000F894DEBF0FBECDBF7C01C42EE52FCB019D
:10128000D22E19A221E02D1510F02AE0D22E8E01C7
:101290000F5D1F4F8D2C912CA12CB12C6C2D7E2F0E
:1012A000A50194010E941B228C2DD29E801911242D
:1012B000015011098A3014F4805D01C0895CF80185
:1012C0008083211531054105510521F0C22EE32F00
:1012D000CA01E4CFB801C7010E94F708A1960FB672
:1012E000F894DEBF0FBECDBFDF91CF911F910F915C
:1012F000FF90EF90DF90CF90BF90AF909F908F9036
:101300000895CF92DF92EF92FF920F931F93CF93A6
:10131000DF93EC016A017B012115310579F4E88145
:10132000F9810190F081E02D642FDF91CF911F9121
:101330000F91FF90EF90DF90CF9009942A30310504
:10134000E9F477FF1AC06DE20E940D098C01442771
:101350005527BA014C195D096E097F092AE0CE01B3
:101360000E942809800F911FDF91CF911F910F914B
:10137000FF90EF90DF90CF9008952AE0B701A6018B
:10138000CE01DF91CF911F910F91FF90EF90DF90F1
:10139000CF900C9428092115310541F4DC01ED9121
:1013A000FC910190F081E02D642F09940C942809A0
:1013B0009A01462F50E060E070E00C94CB094F9208
:1013C0005F926F927F928F929F92AF92BF92CF92D5
:1013D000DF92EF92FF920F931F93CF93DF93EC0175
:1013E0006A017B01B22E9A01AB01C701B6010E94CE
:1013F000F121882319F06CE171E027C02601370143
:10140000E89477F82FEF3FEF4FE75FE7C301B201B2
:101410000E94F12181110DC02FEF3FEF4FE75FE7F1
:10142000C301B2010E94881F18161CF460E271E02B
:101430000CC02FEF3FEF4FE75FE4C701B6010E94FA
:1014400038211816ACF464E271E0CE01DF91CF913F
:101450001F910F91FF90EF90DF90CF90BF90AF90D2
:101460009F908F907F906F905F904F900C94F708B3
:101470002FEF3FEF4FE75FECC701B6010E94881FD7
:1014800087FDE1CF20E030E0A901C701B6010E944D
:10149000881F87FF0AC06DE2CE010E940D098C01F2
:1014A000F7FAF094F7F8F09402C000E010E0A12CF5
:1014B00060E070E080E09FE3AB1441F020E030E0BA
:1014C00040E251E40E948F1FA394F6CF9B01AC0130
:1014D000C701B6010E94C21E6B017C010E94FC1F65
:1014E0002B013C010E9428209B01AC01C701B601E1
:1014F0000E94C11E6B017C012AE0B301A201CE0152
:101500000E942809080F191FBB2039F068E271E01A
:10151000CE010E94F708080F191F7B2C772041F19C
:1015200020E030E040E251E4C701B6010E944321CF
:101530006B017C010E94F71F4B01AA2497FCA09429
:10154000BA2C2AE030E0B501A401CE010E94810945
:10155000080F191FC501B4010E942A209B01AC018C
:10156000C701B6010E94C11E6B017C017A94D6CFDF
:10157000C801DF91CF911F910F91FF90EF90DF9005
:10158000CF90BF90AF909F908F907F906F905F9023
:101590004F9008950F931F93CF93DF93EC010E9418
:1015A000DF098C01CE010E941409800F911FDF9189
:1015B000CF911F910F9108950F931F93CF93DF93B6
:1015C000EC010E946E05688779878A879B87E8818E
:1015D000F9810680F781E02DCE01099597FF15C0AE
:1015E0000E946E05088519852A853B85601B710B55
:1015F000820B930B0C811D812E813F816017710737
:101600008207930720F38FEF9FEFDF91CF911F9118
:101610000F910895EF92FF920F931F93CF93DF9353
:10162000EC018B01E42E69E271E00E94A00BC8017D
:101630000E94DC0AFF24E7FCF09497FD0BC08E1596
:101640009F0541F0682FCE010E94E30BC8010E9464
:10165000DC0AF3CFCE01DF91CF911F910F91FF9064
:10166000EF900895FC01808191810C944008CF9304
:10167000DF93EC0188819981009711F00E94400866
:10168000198218821D821C821B821A82DF91CF91DF
:1016900008950F931F93CF93DF93EC018B016F5F3E
:1016A0007F4F888199810E94BF06009731F099830E
:1016B00088831B830A8381E001C080E0DF91CF91A2
:1016C0001F910F910895CF93DF93EC018881998149
:1016D000892B29F08A819B818617970760F4CE01B8
:1016E0000E94490B882341F08C819D81892B19F43C
:1016F000E881F981108281E0DF91CF910895EF9226
:10170000FF920F931F93CF93DF93EC017B018A012C
:10171000BA010E94630B811104C0CE010E94370BF5
:1017200007C01D830C83B701888199810E94BA1E6E
:10173000CE01DF91CF911F910F91FF90EF9008950F
:10174000FC01118210821382128215821482168289
:101750006115710559F0FB0101900020E9F7AF0117
:1017600041505109461B570B0C947F0B0895EF9283
:10177000FF920F931F93CF93DF93EC017B010C81BA
:101780001D816115710511F480E016C041155105E8
:1017900091F0040F151FB8010E94630B8823A1F379
:1017A000288139818C819D81B701820F931F0E940E
:1017B000BA1E1D830C8381E0DF91CF911F910F91A1
:1017C000FF90EF900895CF93DF9300D0CDB7DEB7B1
:1017D00069831A8241E050E0BE016F5F7F4F0E9433
:1017E000B70B0F900F90DF91CF910895FC012481EA
:1017F0003581232B31F421E061157105A1F0FB0146
:1018000008C0FC01808191816115710531F421E0EE
:10181000FC018081882339F005C00E94B11E21E0BF
:10182000892B09F020E0822F0895AF92BF92CF92CA
:10183000DF92EF92FF920F931F93CF93DF936C0190
:101840007B01C0E0D0E000E010E0F601EC0FFD1FEE
:101850004AE050E06281C7010E94D8095C016EE253
:10186000C7010E940D098A0D9B1D080F191F2196A3
:10187000C330D10551F74AE050E0F6016581C70158
:101880000E94D809800F911FDF91CF911F910F9176
:10189000FF90EF90DF90CF90BF90AF9008952EE231
:1018A00031E0FC013183208312821382148215827D
:1018B00008950F93FC018EE291E09183808362830F
:1018C0004383248305830F910895FB014081518157
:1018D00062817381FC01428353836483758308951D
:1018E0008EE291E09093E9018093E8011092EA0181
:1018F0001092EB011092EC011092ED010895FC01A1
:1019000024853585F901E05CFF4F80819181329615
:1019100020813181821B930B8F7399270895FC01DD
:1019200084859585FC01E05CFF4F408151813296B2
:10193000208131814217530741F00190F081E02D61
:10194000E80FF91F808190E008958FEF9FEF0895D1
:10195000FC0184859585FC01E05CFF4F408151814D
:101960003296208131814217530779F0A081B181ED
:10197000A80FB91F8C91208131812F5F3F4F2F73AA
:1019800033273183208390E008958FEF9FEF0895F0
:10199000FC0181A1882329F0A489B5898C9186FF57
:1019A000FBCF11A20895CF93DF93FC0126853785E5
:1019B000D901A05CBF4F8D919C91119701968F73B7
:1019C0009927E901CE5BDF4F48815981841795073C
:1019D000D9F30D90BC91A02DA20FB31F6C93A685D7
:1019E000B785A05CBF4F11969C938E93A689B7894B
:1019F0002C9181E090E0078C02C0880F991F0A9417
:101A0000E2F7282B2C9381E081A30488F589E02D4F
:101A100080818064808381E090E0DF91CF910895A0
:101A20001F920F920FB60F9211242F933F934F9353
:101A30008F939F93EF93FF938091C00082FD1CC012
:101A40004091C600809194029091950201968F7307
:101A5000992720919602309197028217930771F08F
:101A6000E0919402F0919502EC5AFD4F40839093DF
:101A700095028093940202C08091C600FF91EF917D
:101A80009F918F914F913F912F910F900FBE0F908B
:101A90001F9018951F920F920FB60F9211242F933B
:101AA0003F938F939F93EF93FF9320915002309138
:101AB000510280915202909153022817390731F454
:101AC0008091C1008F7D8093C10014C0E0915202CB
:101AD000F0915302E05FFD4F20818091520290917E
:101AE000530201968F739927909353028093520269
:101AF0002093C600FF91EF919F918F913F912F917D
:101B00000F900FBE0F901F901895CF92DF92EF921B
:101B1000FF92CF93DF93EC016A017B01411581EEC7
:101B2000580761057105F9F0EC89FD8981E090E0C5
:101B300008A002C0880F991F0A94E2F7808360E032
:101B400079E08DE390E0A70196010E941B222150CD
:101B50003109410951095695479537952795211522
:101B600080E1380798F0EC89FD89108260E874E81C
:101B70008EE190E0A70196010E941B2221503109BD
:101B8000410951095695479537952795E889F9896F
:101B90003083EA89FB89208319A2EE89FF8940817D
:101BA00081E090E09C010C8C02C0220F331F0A944C
:101BB000E2F7422B4083EE89FF8940819C010D8C26
:101BC00002C0220F331F0A94E2F7422B4083EE89B2
:101BD000FF8940819C010E8C02C0220F331F0A94A2
:101BE000E2F7422B4083EE89FF8920810F8C02C0EF
:101BF000880F991F0A94E2F7809582238083DF91F2
:101C0000CF91FF90EF90DF90CF9008951092F10167
:101C10001092F00188EE93E0A0E0B0E08093F20132
:101C20009093F301A093F401B093F50184E391E064
:101C30009093EF018093EE0184E592E09093FB0195
:101C40008093FA0180E192E09093FD018093FC0182
:101C500085EC90E09093FF018093FE0184EC90E08E
:101C6000909301028093000280EC90E09093030235
:101C70008093020281EC90E090930502809304022D
:101C800082EC90E0909307028093060286EC90E04D
:101C9000909309028093080284E080930A0283E013
:101CA00080930B0287E080930C0285E080930D0205
:101CB00081E080930E0208958091C80290E0209107
:101CC000C902821B910908952091C9028091C8021E
:101CD000281750F4E22FF0E0E653FD4F808190E0AA
:101CE0002F5F2093C90208958FEF9FEF0895E09131
:101CF000C9028091C802E81730F4F0E0E653FD4FC6
:101D0000808190E008958FEF9FEF08950895CF921E
:101D1000DF92EF92FF920F931F93CF93DF937C019B
:101D2000CB018A012091A402222389F0EB016B01EF
:101D3000C40ED51ECC15DD0569F06991D701ED9172
:101D4000FC910190F081E02DC7010995F3CF642F3C
:101D50000E944A1BC801DF91CF911F910F91FF9004
:101D6000EF90DF90CF900895CF93DF931F92CDB780
:101D7000DEB769832091A4022223D1F02091A5022D
:101D8000203240F021E030E0FC013383228380E008
:101D900090E015C08091A602E82FF0E0E955FD4FD4
:101DA000998190838F5F8093A6028093A50205C0DE
:101DB00061E0CE0101960E944A1B81E090E00F9005
:101DC000DF91CF910895FC011382128248EE53E017
:101DD00060E070E0448355836683778384E491E018
:101DE0009183808308951092C9021092C8021092C4
:101DF000A6021092A5020C94951A862F413208F083
:101E000040E26AEC72E00E94B31A1092C902809319
:101E1000C802089521E00C94FD0E81E08093A40295
:101E20006093C7021092A6021092A50208950F9324
:101E3000062F21E04091A50267EA72E08091C70277
:101E40000E94F71A1092A6021092A5021092A40204
:101E50000F91089561E00C94170F88E992E00C94BB
:101E6000E30ECF93DF931F92CDB7DEB76983DC011A
:101E7000ED91FC910280F381E02D41E050E0BE0144
:101E80006F5F7F4F09950F90DF91CF910895CF93AA
:101E9000DF93EC01E881F9810480F581E02DCE012A
:101EA0000995892B41F0E881F9810680F781E02DC1
:101EB000CE010995EFCFDF91CF91089521E0FC018C
:101EC0008485843009F420E0822F08950F931F93B6
:101ED000CF93DF93EC018A018C85843021F00E943E
:101EE0007C19892B39F481E090E09B838A8380E020
:101EF00090E001C0C801DF91CF911F910F9108952B
:101F0000FC016485643021F082E193E00C944C176D
:101F100080E090E00895CF93DF931F92CDB7DEB7B6
:101F200041E050E0BE016F5F7F4FFC0184850E945D
:101F3000CE19181619061CF4898190E002C08FEFA3
:101F40009FEF0F90DF91CF910895FC0184850C9451
:101F5000CE190F931F93CF93DF931F92CDB7DEB7A8
:101F60008C01DC01ED91FC910480F581E02D099557
:101F7000892B51F0BE016F5F7F4FF80184850E946D
:101F8000121A898190E002C08FEF9FEF0F90DF91CE
:101F9000CF911F910F910895CF92DF92EF92FF9210
:101FA0000F931F93CF93DF93CDB7DEB7AF970FB6E5
:101FB000F894DEBF0FBECDBF7C018B016A01CE015C
:101FC00001960E944F0CCE0109960E94061ECE017A
:101FD0008A960E944F0C60EF72E0CE0184960E94B8
:101FE0007F11BE016C5D7F4FCE0101960E949D1155
:101FF000AE01465D5F4FB801CE0101960E9402140A
:1020000081309105C1F4D701ED91FC910484F585EF
:10201000E02D8EE291E09DA38CA30CA51DA52EA51D
:102020003FA50EA31FA328A739A7A601BE016C5D7B
:102030007F4FC7010995AF960FB6F894DEBF0FBE6C
:10204000CDBFDF91CF911F910F91FF90EF90DF9067
:10205000CF900895FC01262F1382128248EE53E0A0
:1020600060E070E0448355836683778384E591E084
:102070009183808324870895FC018485843039F01E
:1020800090E0982F88278D5F9B4F0C94D61680E0A8
:102090000895AF92BF92CF92DF92EF92FF920F938B
:1020A0001F93CF93DF93EC015B016A018C85843031
:1020B00009F04EC033E0E32E34E0F32E00E010E0F0
:1020C000C7010E94D616811102C00C8709C08B7F00
:1020D0008831D9F30F5F1F4FF3940430110581F756
:1020E0008C858430A9F120911401309115012F5F66
:1020F0003F4F2115310511F420E034E030931501F4
:1021000020931401409114015091150120E061E0E9
:102110000E94EB18B5016E5F7F4FA6018C850E946F
:102120003F19811103C084E08C8712C0CE010E9448
:102130003C10873151F061E070E080E090E00E9457
:102140009D05CE010E943C10ECCF81E090E002C0E2
:1021500080E090E0DF91CF911F910F91FF90EF9081
:10216000DF90CF90BF90AF900895CF92DF92EF9223
:10217000FF92CF93DF93EC018C85843081F10E9434
:1021800075190E946E056B017C01CE010E943C1006
:10219000882359F00E946E056C197D098E099F09EC
:1021A000683E73408105910598F0CE010E943C1075
:1021B000882319F08C850E94DD18EC85F0E0EE0F85
:1021C000FF1FE850FD4F1182108284E08C8707C00A
:1021D00061E070E080E090E00E949D05D6CFDF9145
:1021E000CF91FF90EF90DF90CF900895CF93DF9342
:1021F000EC018C858430D1F0CE010E943C108431FA
:10220000A9F0882399F0883189F08C3169F4E8814C
:10221000F9810480F581E02DCE01099521E0892B1B
:1022200009F420E0822F03C081E001C080E0DF914B
:10223000CF9108950F9300E020E040E060E08AEE47
:1022400092E00E94590C0F91089544E050E0BC01C7
:1022500081E090E00C94A71644E050E0BC0185E0DA
:1022600090E00C94A71644E050E0BC018FE090E0B1
:102270000C94A7168F929F92AF92BF92CF92DF924B
:10228000EF92FF920F931F93CF93DF9300D0CDB7C0
:10229000DEB74C016A01590182E193E069837A83D8
:1022A0000E945D1646E050E069817A8189E090E005
:1022B0000E94A716C60102960E943311C801029619
:1022C0000E942511C70102960E942C11F50142813E
:1022D000538164817581F4014283538364837583E0
:1022E0000F900F90DF91CF911F910F91FF90EF9082
:1022F000DF90CF90BF90AF909F908F9008952EE287
:1023000031E0FC0131832083FB01428153816481F0
:102310007581FC01428353836483758308950F9311
:1023200000E020E040E060E080E093E00E94590C93
:1023300080EF92E00F910C944F0CFB01428153818E
:1023400064817581FC0142835383648375831782A2
:1023500016820895CF93FB0181918111FDCFFB017E
:1023600080E090E020E030E0CAE06191662309F16E
:102370002430310564F56E3271F48F3F910509F018
:1023800034F5DA01A20FB31F12968C932F5F3F4FE3
:1023900080E090E0EACFDC01CA9FC001CB9F900DA6
:1023A0001124772767FD709560537109860F971F79
:1023B000DCCF8F3F910509F054F4243031053CF413
:1023C000FA01E20FF31F828381E090E002C080E017
:1023D00090E0CF9108950F9300E020E040E060E0AE
:1023E00086E093E00E94590C0F910895AF92BF923E
:1023F000CF92DF92EF92FF920F931F93CF93DF93D1
:1024000000D01F92CDB7DEB76C017B010E946E0534
:10241000F601778366838601085F1F4FB6016A5F06
:102420007F4F42E050E0C8010E94081D81E090E02B
:102430009A83898342E050E0BE016F5F7F4FC801FD
:102440000E94081D80E091E09A83898342E050E079
:10245000BE016F5F7F4FC8010E94081D1A8219825A
:1024600042E050E0BE016F5F7F4FC8010E94081D2F
:1024700042E050E0BE016F5F7F4FC8010E94081D1F
:1024800042E050E0BE016F5F7F4FC8010E94081D0F
:102490006701F6018081882311F1F7016F018191B5
:1024A000811115C05601AE18BF081A141B0494F40C
:1024B000AB8241E050E0BE016D5F7F4FC8010E94DA
:1024C000081DA501B701C8010E94081D03C08E3276
:1024D00029F7E8CF7601FFEFEF1AFF0ADACF1B8268
:1024E00041E050E0BE016D5F7F4FC8010E94081DB2
:1024F000E12CFF24F394FA82E98242E050E0BE012D
:102500006F5F7F4FC8010E94081DFA82E98242E096
:1025100050E0BE016F5F7F4FC8010E94081D81E03F
:1025200090E00F900F900F90DF91CF911F910F913E
:10253000FF90EF90DF90CF90BF90AF9008954F92B3
:102540005F926F927F928F929F92AF92BF92CF9243
:10255000DF92EF92FF920F931F93CF93DF93CDB74C
:10256000DEB763970FB6F894DEBF0FBECDBF7C0118
:102570005B016A010E946E052B013C018701085F27
:102580001F4F4501A12CB12CC8010E947B1D1816BC
:10259000190694F00E946E05641975098609970959
:1025A00086169706A806B906D0F062E370E080E0D0
:1025B00090E00E949D05E8CFF7014281538164813C
:1025C0007581818D928DA38DB48D481759076A0747
:1025D0007B0741F4858D968DC59721F406C08FEF5A
:1025E0009FEFF9C08EEF9FEFF6C0C8010E94BB1CA1
:1025F0000C970CF4EEC04CE050E0BE016F5F7F4FD3
:10260000C8010E94451D8B819C81982789279827A6
:102610009A8B898BF7014681578129813A8142172C
:10262000530711F497FD06C0C8010E94D51C8CEF1A
:102630009FEFD1C08F709270892B31F0C8010E943A
:10264000D51C8BEF9FEFC7C0AF80B884BA24AB24F2
:10265000BA24A114B10419F0E12CF12C23C0C80153
:102660000E94D51C8AEF9FEFB6C041E050E0BE014A
:10267000635F7F4FC8010E94451D8D8581111BC07E
:102680008D858111F2CFC8010E941C1DC8010E94D6
:102690001C1DC8010E941C1DC8010E941C1DFFEFCB
:1026A000EF1AFF0A8D819E81982789279827E816BF
:1026B000F906D8F20AC08D859FEF980F9D87882371
:1026C000F9F2C8010E941C1DF6CFE12CF12C41E06B
:1026D00050E0BE016D5E7F4FC8010E94451D8B8991
:1026E000982F907C61F4882371F08B899FEF980F6D
:1026F0009B8B882341F0C8010E941C1DF6CFC801A6
:102700000E941C1D1B8A8B898111E1CF42E050E0A1
:10271000BE01615F7F4FC8010E94451D42E050E04D
:10272000BE01635F7F4FC8010E94451DC8010E9422
:102730001C1DC8010E941C1DC8010E941C1DC8014F
:102740000E941C1D42E050E0BE016F5E7F4FC80139
:102750000E94451D8F8598898115914029F48D85AA
:102760009E858115914019F0812C912C16C0898984
:102770009A898115944031F0C8010E94D51C87EFD9
:102780009FEF29C0B6016E5F7F4F44E050E0C80163
:102790000E94451D81E090E01EC089899A89982792
:1027A000892798278816990638F4C8010E941C1DAD
:1027B0002FEF821A920AF1CF8FEFE81AF80AEA1483
:1027C000FB0409F084CFC8010E94D51C86EF9FEF5F
:1027D00002C08DEF9FEF63960FB6F894DEBF0FBE79
:1027E000CDBFDF91CF911F910F91FF90EF90DF90C0
:1027F000CF90BF90AF909F908F907F906F905F90A1
:102800004F9008958F929F92AF92BF92CF92DF9296
:10281000EF92FF920F931F93CF93DF9300D000D0DE
:1028200000D0CDB7DEB78C015B016A010E94AA110E
:102830004C01009709F05FC0F80142815381648127
:1028400075818091080390910903A0910A03B091CA
:102850000B03481759076A077B0709F450C00E9409
:102860006E057801F8E0EF0EF11C6F7077277C5F42
:10287000C7010E94CC1D813009F045C08EE291E075
:102880009A838983F80182819381A481B5818B83A6
:102890009C83AD83BE8345E350E0BE016F5F7F4FF5
:1028A000C7010E94FC1C892B19F4812C912C1FC09C
:1028B000B501C8010E94F611892BB9F3C7010E9426
:1028C000041D892B91F333E0A32EB12CA60168E8F7
:1028D00073E1C8010E949F124C01F1E0AF1AB108E8
:1028E000A114B10421F08F3F2FEF920779F3C701B4
:1028F0000E94E71C08C088248394912C04C09EEF9A
:10290000892E99249A94C40126960FB6F894DEBFB6
:102910000FBECDBFDF91CF911F910F91FF90EF9030
:10292000DF90CF90BF90AF909F908F900895CF93FE
:10293000DF931F92CDB7DEB76983DC01ED91FC9187
:102940000280F381E02D41E050E0BE016F5F7F4FD8
:1029500009950F90DF91CF910895EF92FF920F9319
:102960001F93CF93DF93CDB7DEB72D970FB6F894B3
:10297000DEBF0FBECDBF7C0100E010E0602FCE01B6
:1029800001960E942A10CE0101960E943C108111EE
:1029900016C0F7014481558120E061E0802F0E943C
:1029A000EB18802F0E942B19F70184819581F80183
:1029B000EE0FFF1FE850FD4F9183808305C00F5F2E
:1029C0001F4F04301105D1F62D960FB6F894DEBFD7
:1029D0000FBECDBFDF91CF911F910F91FF90EF9070
:1029E0000895FC011382128280E791E09183808335
:1029F000758364830895BF92CF92DF92EF92FF9226
:102A00000F931F93CF93DF93CDB7DEB72D970FB6FC
:102A1000F894DEBF0FBECDBF8C0148EFC42E42E05C
:102A2000D42EB12CE12CF12C6B2DCE0101960E94FD
:102A30002A10D6012D913D916D01F8018481958177
:102A400028173907B1F4CE0101960E943C10843159
:102A500069F0CE0101960E943C108C3151F4CE01F8
:102A600001960E94800F892B99F003C0EE24E39415
:102A7000F12CB394F4E0BF12D7CFEF2871F4D80152
:102A8000ED91FC910480F581E02DC801099505C008
:102A9000CE0101960E94B510ECCF2D960FB6F8949A
:102AA000DEBF0FBECDBFDF91CF911F910F91FF9081
:102AB000EF90DF90CF90BF9008957F928F929F927A
:102AC000AF92BF92CF92DF92EF92FF920F931F933C
:102AD000CF93DF93CDB7DEB72D970FB6F894DEBF57
:102AE0000FBECDBF6C015B014A010E94FB1458EF81
:102AF000E52E52E0F52E712C00E010E0672DCE019E
:102B000001960E942A10F701219131917F01F6016F
:102B1000848195812817390731F4CE0101960E94EE
:102B20003C108731C9F07394F4E07F12E7CFC801FD
:102B30002D960FB6F894DEBF0FBECDBFDF91CF91BB
:102B40001F910F91FF90EF90DF90CF90BF90AF90CB
:102B50009F908F907F900895A401B501CE010196BA
:102B60000E94660F080F191FDECFBF92CF92DF922F
:102B7000EF92FF920F931F93CF93DF93CDB7DEB702
:102B80002D970FB6F894DEBF0FBECDBF8C016B0141
:102B9000CB010E94FB1468EFE62E62E0F62EB12C0A
:102BA0006B2DCE0101960E942A10F70121913191DF
:102BB0007F01F601848195812817390761F4CE01E0
:102BC00001960E943C10873179F0CE0101960E9457
:102BD0003C108C3149F0B394F4E0BF12E1CF64E0D3
:102BE000C8010E942A1021C0CE0101960E94800FC8
:102BF000892B89F38B819C81F801938382838D815A
:102C00009E81AF81B88584839583A683B7834985E8
:102C10005A856B857C85408751876287738784E5F9
:102C200091E0918380838D858487C8012D960FB6AE
:102C3000F894DEBF0FBECDBFDF91CF911F910F91F2
:102C4000FF90EF90DF90CF90BF9008950F9300E03A
:102C500020E040E060E08CE093E00E94590C0F918E
:102C600008958EBD0DB407FEFDCF8EB508952A9848
:102C700008952A9A08951F93CF93DF9300D0CDB77C
:102C8000DEB7182F6A8399830E94371680EF0E945F
:102C900031169981892F0E943116812F0E94311699
:102CA0006A81862F0E9431160E94391681E00F90AA
:102CB0000F90DF91CF911F910895CF93DF93EC0197
:102CC0006CE271E080E090E00E949D050E948F1E02
:102CD000229A60E880E090E00E943B1665E58BE177
:102CE00090E00E943B1665E58AE190E00E943B1669
:102CF00080E090E49983888380E090E699878887D4
:102D000080E098E49B838A8380E098E69B878A87AB
:102D100080E090E59D838C8380E090E79D878C87A1
:102D200080E098E59F838E8380E098E79F878E8779
:102D3000DF91CF910895FB01282F30E02C5F3F4FAA
:102D4000922F8827642F8E0F9F1F0C943B16CF92D3
:102D5000DF92EF92FF920F931F93CF93DF93EC01DB
:102D60007A018B016C01C40ED51ECC15DD05A1F0D6
:102D70000E94371680EF0E9431168D2F0E94311667
:102D80008C2F0E9431162196F80181918F010E94AB
:102D900031160E943916E9CFC701DF91CF911F91FB
:102DA0000F91FF90EF90DF90CF9008951F93CF93F6
:102DB000DF931F92CDB7DEB7182F99830E94371685
:102DC0008FE00E9431169981892F0E943116812F40
:102DD0000E94311680E00E94311689830E943916C4
:102DE00089810F90DF91CF911F910895282F30E0B6
:102DF0002C5F3F4F922F8827860F971F0C94D61673
:102E00001F93CF93DF93182F60E270E00E94F616B5
:102E1000C82FD0E061E270E0812F0E94F616DC2F0F
:102E2000CC279E01282BC901DF91CF911F910895D6
:102E3000FF920F931F93CF93DF93F62EC0E0D0E065
:102E40008F2D0E9400178C01009721F08F2D0E947A
:102E50000017EC01C017D10799F7CE01DF91CF9190
:102E60001F910F91FF9008951F93CF93DF93182F19
:102E700066E270E00E94F616C82FD0E067E270E0CC
:102E8000812F0E94F616DC2FCC279E01282BC9012A
:102E9000DF91CF911F910895FF920F931F93CF93CE
:102EA000DF93F62EC0E0D0E08F2D0E9434178C0106
:102EB000009721F08F2D0E943417EC01C017D10725
:102EC00099F7CE01DF91CF911F910F91FF90089557
:102ED0006F927F929F92AF92BF92CF92DF92EF92CA
:102EE000FF920F931F93CF93DF931F92CDB7DEB75F
:102EF000D82E962E3A01590164E270E0892D99830B
:102F00000E94F616E82EF12C65E270E0892D0E94F1
:102F1000F616FE2CEE24E82AE60CF71C9701377013
:102F20006D2C9981792E690C711C690C711CD3016F
:102F3000ED91FC91E20FF31FC901800F911F8130C9
:102F40009840A0F0C12C48E0D42EC21AD30AA601A2
:102F5000B501CF010E94A716A8014C195D09B50162
:102F60006C0D7D1DF3018081918103C0A801B50125
:102F7000CF010E94A716E00EF11E4F2D64E270E013
:102F8000892D0E949B164E2D65E270E0892D0F90D1
:102F9000DF91CF911F910F91FF90EF90DF90CF9035
:102FA000BF90AF909F907F906F900C949B160F9363
:102FB0001F9389019A0140E050E00E9468171F9119
:102FC0000F910895CF92DF92EF92FF920F931F938C
:102FD000CF93DF93EC017A018B016C01C40ED51EF7
:102FE000CC15DD05A9F00E9437168FE00E9431163E
:102FF0008D2F0E9431168C2F0E943116219680E071
:103000000E943116F80181938F010E943916E8CF92
:10301000C701DF91CF911F910F91FF90EF90DF904B
:10302000CF900895CF92DF92EF92FF920F931F936C
:10303000CF93DF9369015770EC01C60FD11DC60F06
:10304000D11D88859985840F951F9A01200F311F06
:103050002130384090F0E12C68E0F62EE41AF50AB1
:10306000A701B6010E94E217A8014E195F09B60137
:103070006E0D7F1D8885998502C0A801B601DF917C
:10308000CF911F910F91FF90EF90DF90CF900C9414
:10309000E2178F929F92AF92BF92CF92DF92EF9200
:1030A000FF920F931F93CF93DF936C01962E5A01DB
:1030B0007901802E68E270E0892D0E94F616C82FF3
:1030C000D0E069E270E0892D0E94F616DC2FCC2753
:1030D000C82B87019501AE01692DC6010E94121807
:1030E00081101AC0CE0DDF1D4D2F68E270E0892DD2
:1030F0000E949B164C2F69E270E0892DDF91CF91E1
:103100001F910F91FF90EF90DF90CF90BF90AF9005
:103110009F908F900C949B16DF91CF911F910F91F0
:10312000FF90EF90DF90CF90BF90AF909F908F90E7
:103130000895CF93C62F61E070E08C2F0E949B16FC
:1031400061E070E08C2F0E94F6168111F9CFCF91CB
:10315000089590E0982F882744E050E0845F9B4FCB
:103160000C94A71662E070E00C94F616CF93DF93F0
:10317000C82FD62F472F64E070E00E949B164D2F7A
:1031800065E070E08C2FDF91CF910C949B16462F59
:1031900062E070E00C949B16CF93DF93C82FD62F7C
:1031A000472F60E170E00E949B164D2F61E170E0B7
:1031B0008C2FDF91CF910C949B16CF93C82F40E1B9
:1031C00050E0682F82E193E00E9499186FEF8C2FF6
:1031D000CF910C94C718EF92FF921F93CF93DF9378
:1031E00000D0CDB7DEB7182F7A018FEF860F85306C
:1031F00048F5812F2A8369830E94DD182A8169811D
:10320000462F422B60E070E0812F0E949B16E11454
:10321000F10411F0B7010AC06091220370912303F9
:103220006F5F7F4F7093230360932203812F0E946F
:10323000B61841E050E0612F82E193E00E949918B6
:1032400081E001C080E00F900F90DF91CF911F913E
:10325000FF90EF900895CF93C82F63E070E00E9435
:10326000F616833149F442E050E06C2F82E193E09E
:103270000E94991881E001C080E0CF9108951F93CA
:10328000CF93DF93182FFB01EA0180818F3F51F428
:1032900081818F3F91F482818F3F79F483818F3FC9
:1032A00061F41EC0811109C08181811106C0828133
:1032B000811103C08381882399F0209789F0BF0191
:1032C000812F0E94A918BE01812F0E94CC1844E0D2
:1032D00050E0612F82E193E00E94991881E001C0E3
:1032E00080E0DF91CF911F91089548E050E0682F72
:1032F00082E193E00C949918DF92EF92FF920F9382
:103300001F93CF93DF93D82E8B01EA01413088E0E1
:10331000580710F0C0E0D8E06D2D82E193E00E94E4
:1033200018177C0163E070E08D2D0E94F61687313E
:1033300011F08C3121F4EC16FD0670F302C0C0E0F0
:10334000D0E09E01A8016D2D82E193E00E94D71785
:1033500040E250E06D2D82E193E00E9499188D2D9E
:103360000E94B21884FD0DC063E070E08D2D0E94B4
:10337000F6168111F4CF8D2D0E94DD1880E090E0CB
:1033800005C060E18D2D0E94C718CE01DF91CF915D
:103390001F910F91FF90EF90DF900895DF92EF92D1
:1033A000FF920F931F93CF93DF93D82E7B018A0157
:1033B000682F82E193E00E944C17EC01009799F48A
:1033C00063E070E08D2D0E94F616843111F18823A0
:1033D00001F1C1E0D0E08C3111F4C0E0D0E0D19532
:1033E000C195D10916C0081719070CF4E8011C167D
:1033F0001D067CF400E09E01A7016D2D82E193E0A3
:103400000E94491840E450E06D2D82E193E00E9453
:103410009918CE01DF91CF911F910F91FF90EF90FE
:10342000DF9008950F93AB0101E021E030E0682FB9
:1034300082E193E00E94491881E090E00F910895A5
:10344000BF92CF92DF92EF92FF920F931F93CF9391
:10345000DF93B82E7B016A01E901682F82E193E0D6
:103460000E9418178C179D0730F46B2D82E193E0B2
:103470000E941817EC018E019601A7016B2D82E1C5
:1034800093E00E946817CE01DF91CF911F910F91B9
:10349000FF90EF90DF90CF90BF9008951F93CF9350
:1034A000DF93182FFB01EA018081811109C081811E
:1034B000811106C08281811103C08381882369F054
:1034C000209759F0BF01812F0E94A918BE01812FBA
:1034D0000E94CC1881E090E002C080E090E0DF9193
:1034E000CF911F910895CF93C82F40E250E0682FED
:1034F00082E193E00E9499188C2F0E94B21884FDFB
:103500000CC08C2F0E94B21883FFF6CF68E18C2F7D
:103510000E94C71880E090E006C060E18C2F0E94F6
:10352000C71881E090E0CF9108951092910381E057
:1035300080938F0310928E0361E082E10E94600607
:1035400061E083E10E946006E9EBF0E080818E7F1C
:10355000808380818D7F808388E48093B80085E4B8
:103560008093BC000895413208F03FC090919103D0
:103570009111FCCF91E09093910320938F032FEF53
:103580002093240310926903240F209368039093DF
:10359000900390919003880F892B809390038091E2
:1035A0008E03813041F410928E03809190038093BA
:1035B000BB0085EC01C085EE8093BC008091910337
:1035C0008130E1F380916903841710F4409169031D
:1035D0002AE633E0FB01D9018A2F821B841718F4F5
:1035E0008D918193F9CF842F089580E008950F93F2
:1035F000413208F046C0909191039111FCCF92E0C6
:103600009093910300938F039FEF90932403109264
:10361000690340936803FB016AE673E0DB019A2FBC
:10362000961B941718F491919D93F9CF10929003E3
:1036300090919003880F892B8093900380918E0343
:10364000813041F410928E03809190038093BB00EF
:1036500085EC01C085EE8093BC00222321F080918F
:1036600091038230E1F3809124038F3F61F08091D8
:103670002403803251F080912403803341F483E0AD
:1036800007C081E005C080E003C082E001C084E0A3
:103690000F910895613298F420919103243089F4B8
:1036A00060934603FC0188E493E0DC012A2F281B89
:1036B000261718F421912D93F9CF80E0089581E029
:1036C000089582E0089585ED8093BC008091BC0050
:1036D00084FDFCCF10929103089585EC8093BC008B
:1036E0001092910308951F920F920FB60F9211241A
:1036F0002F933F934F935F936F937F938F939F93FA
:10370000AF93BF93EF93FF938091B900887F80368A
:1037100009F49CC068F5883209F45BC090F48031EC
:1037200009F454C038F4882309F4F5C0883009F44A
:103730004DC0F5C0883109F44CC0803209F45DC039
:10374000EEC0803409F468C048F4803309F455C0F1
:10375000883309F0E4C080932403A8C0803509F4BD
:103760004FC0883509F45DC0883409F0D8C0D5C091
:10377000883909F4C6C0A8F4883709F467C038F45A
:10378000883609F463C0803709F460C0C8C088383F
:1037900009F4B7C0803909F45FC0803809F0BFC0B0
:1037A0005BC0803B09F485C038F4803A09F466C0F8
:1037B000883A09F47EC0B3C0803C09F4A6C0883CB6
:1037C00009F4A3C0883B09F489C0A9C08091900383
:1037D00010C09091690380916803981770F5E0918B
:1037E000690381E08E0F80936903F0E0E659FC4F96
:1037F00080818093BB0085EC85C0809324038DC0BD
:10380000E091690381E08E0F809369038091BB0092
:10381000F0E0E659FC4F8083909169038091680342
:103820006DC0E091690381E08E0F80936903809100
:10383000BB00F0E0E659FC4F808380918F0381113B
:103840006CC081E080938E0384EA60C083E0809343
:10385000910310922503CFCF80912503803208F089
:1038600050C0E091250381E08E0F80932503809165
:10387000BB00F0E0EA5DFC4F8083BDCF8091250363
:10388000803230F4E0912503F0E0EA5DFC4F1082D5
:103890000E94631B6091250370E0E0918A03F09120
:1038A0008B0386E293E00995109225030E946D1B1D
:1038B00036C084E080939103109247031092460330
:1038C000E0918C03F0918D0309958091460381115D
:1038D00005C081E08093460310924803E0914703BE
:1038E00081E08E0F80934703F0E0E85BFC4F80811E
:1038F0008093BB009091470380914603981708F48A
:103900007ACF85E88093BC000AC085EC8093BC0028
:103910001092910304C0109224030E94631BFF9134
:10392000EF91BF91AF919F918F917F916F915F9137
:103930004F913F912F910F900FBE0F901F901895B0
:10394000DC01ED91FC91008CF18DE02D09942EE2CB
:1039500031E0FC0131832083FB0141895289638975
:103960007489FC0142835383648375830895FC0149
:10397000858996890895FC01818D928D0895CF9354
:10398000DF931F92CDB7DEB76983DC01ED91FC9127
:103990000280F381E02D41E050E0BE016F5F7F4F78
:1039A00009950F90DF91CF910895CF93DF93EC01AC
:1039B000898D9A8D892B41F0E881F9810680F78104
:1039C000E02DCE010995F4CFDF91CF910895CF93EB
:1039D000DF93EC018C85843061F00E94DD18EC856A
:1039E000F0E0EE0FFF1FE850FD4F1182108284E0DF
:1039F0008C87DF91CF910895FC01108E178A6E5F3E
:103A00007F4F84850C944E1AFC0184850C94731AA4
:103A1000CF93DF93EC019A018F89988DAB01BC01A4
:103A20008C850E94201A2F89388D280F391F388FD6
:103A30002F8BDF91CF9108950F931F93CF93DF9337
:103A40001F92CDB7DEB78C01FC01818D928D892B41
:103A500059F041E050E0BE016F5F7F4F84850E94C6
:103A6000CE19181619061CF08FEF9FEF08C0F80149
:103A7000818D928D0197928F818F898190E00F9037
:103A8000DF91CF911F910F910895CF93DF93EC01B8
:103A9000898D9A8D009719F48FEF9FEF10C048170A
:103AA000590708F0AC018C850E94CE19181619062A
:103AB0009CF7298D3A8D281B390B3A8F298FDF917E
:103AC000CF910895CF93DF931F92CDB7DEB7FC015E
:103AD000218D328D232B49F0BE016F5F7F4F84858E
:103AE0000E94121A898190E002C08FEF9FEF0F9021
:103AF000DF91CF9108950F931F93CF93DF93CDB7AD
:103B0000DEB728970FB6F894DEBF0FBECDBF8C018D
:103B1000DC01ED91FC910284F385E02D0995F8011B
:103B2000648582E193E00E944C17892B41F148E0C3
:103B300050E0BE016F5F7F4FD8011C968C910E94B0
:103B4000CE1918161906ECF4BE016F5F7F4FC8013D
:103B50000F960E94650C8D8190E0982F88272E810A
:103B6000820F911DF801968B858B8F8190E0982FA5
:103B700088272885820F911D928F818F02C080E057
:103B800090E028960FB6F894DEBF0FBECDBFDF9150
:103B9000CF911F910F910895CF92DF92EF92FF92F4
:103BA0000F931F93CF93DF93EC016B018C858430CF
:103BB00019F543E0E42E44E0F42E00E010E0C701E4
:103BC0000E94D616811102C00C8708C08831E1F32B
:103BD0000F5F1F4FF3940430110589F78C858430F3
:103BE00059F0DE86CD861A8E198E20E0A60162E09D
:103BF0000E94EB1881E001C080E0DF91CF911F911E
:103C00000F91FF90EF90DF90CF900895FC01138209
:103C1000128248EE53E060E070E04483558366838F
:103C200077838AE791E09183808384E08487CF0162
:103C30000F960C944F0CCF92DF92EF92FF920F935E
:103C40001F93CF93DF93CDB7DEB7AF970FB6F8943E
:103C5000DEBF0FBECDBF7C018B016A01CE01019694
:103C60000E944F0CCE0109960E94061ECE018A9634
:103C70000E944F0C60EF72E0CE0184960E947F118B
:103C8000BE016C5D7F4FCE0101960E949D11AE0179
:103C9000465D5F4FB801CE0101960E94021481304B
:103CA0009105C1F4D701ED91FC910088F189E02DD7
:103CB0008EE291E09DA38CA30CA51DA52EA53FA58A
:103CC0000EA31FA328A739A7A601BE016C5D7F4FD5
:103CD000C7010995AF960FB6F894DEBF0FBECDBFF2
:103CE000DF91CF911F910F91FF90EF90DF90CF90D8
:103CF00008950F9300E020E040E060E082E993E067
:103D00000E94590C0F9108950F9300E020E040E0CD
:103D100060E088E993E00E94590C0F91089561E0FA
:103D20008AE00E94600661E08AE00E9427068CB566
:103D300080618CBD8CB580648CBD61E08DE00E949B
:103D4000270661E08BE00C942706F8940C9443223C
:103D5000FB01DC0102C001900D9241505040D8F7A8
:103D60000895FB01DC018D91019080190110D9F3B8
:103D7000990B0895FB01DC0101900D920020E1F701
:103D800008955058BB27AA270ED027C2F0D130F093
:103D9000F5D120F031F49F3F11F41EF4C0C10EF4B0
:103DA000E095E7FBB6C1E92F3AD280F3BA17620774
:103DB00073078407950718F071F49EF552C20EF44C
:103DC000E0950B2EBA2FA02D0B01B90190010C012B
:103DD000CA01A0011124FF27591B99F0593F50F443
:103DE000503E68F11A16F040A22F232F342F44279B
:103DF000585FF3CF469537952795A795F040539593
:103E0000C9F77EF41F16BA0B620B730B840BBAF062
:103E10009150A1F0FF0FBB1F661F771F881FC2F7CD
:103E20000EC0BA0F621F731F841F48F487957795E1
:103E30006795B795F7959E3F08F0B3CF9395880F98
:103E400008F09927EE0F97958795089590D158F02F
:103E500080E891E009F49EEF91D128F040E851E02C
:103E600059F45EEF09C05BC1FCC1E92FE078D7D1FE
:103E700068F3092E052AC1F32617370748075907A3
:103E800038F00E2E07F8E02569F0E025E0640AC05E
:103E9000EF6307F8009407FADB01B9019D01DC012B
:103EA000CA01AD01EF934AD098D10AD05F91552352
:103EB00031F02BED3FE049E450FD49EC63CF08952C
:103EC000DF93DD27B92FBF7740E85FE316161706AB
:103ED00048075B0710F4D92FCFD19F938F937F931F
:103EE0006F937CD2E8E6F0E01DD177D12F913F911E
:103EF0004F915F91D4D1DD2349F09058A2EA2AED89
:103F00003FE049EC5FE3D0785D274DDFDF9165C18D
:103F1000DCD008F481E0089539D1E3956FC10CD06D
:103F20005CC12CD140F023D130F021F45F3F19F077
:103F3000F0C0511197C1F3C072D198F39923C9F31E
:103F40005523B1F3951B550BBB27AA27621773079F
:103F5000840738F09F5F5F4F220F331F441FAA1F53
:103F6000A9F333D00E2E3AF0E0E830D09150504013
:103F7000E695001CCAF729D0FE2F27D0660F771FC1
:103F8000881FBB1F261737074807AB07B0E809F0A3
:103F9000BB0B802DBF01FF2793585F4F2AF09E3F38
:103FA000510568F0B6C05EC15F3FECF3983EDCF3AC
:103FB000869577956795B795F7959F5FC9F7880FB1
:103FC000911D9695879597F90895E1E0660F771F03
:103FD000881FBB1F621773078407BA0720F0621B94
:103FE000730B840BBA0BEE1F88F7E095089504D08D
:103FF0006894B11137C108951AD188F09F5790F095
:10400000B92F9927B751A0F0D1F0660F771F881FFD
:10401000991F1AF0BA95C9F712C0B13081F021D1B9
:10402000B1E008951EC1672F782F8827B85F39F057
:10403000B93FCCF3869577956795B395D9F73EF45C
:1040400090958095709561957F4F8F4F9F4F089504
:10405000E89409C097FB3EF4909580957095619522
:104060007F4F8F4F9F4F9923A9F0F92F96E9BB27D8
:104070009395F695879577956795B795F111F8CF54
:10408000FAF4BB0F11F460FF1BC06F5F7F4F8F4FBF
:104090009F4F16C0882311F096E911C0772321F0B5
:1040A0009EE8872F762F05C0662371F096E8862F4D
:1040B00070E060E02AF09A95660F771F881FDAF7A4
:1040C000880F9695879597F90895990F0008550FD1
:1040D000AA0BE0E8FEEF16161706E807F907C0F08E
:1040E00012161306E407F50798F0621B730B840B96
:1040F000950B39F40A2661F0232B242B252B21F470
:1041000008950A2609F4A140A6958FEF811D811D0F
:10411000089597F99F6780E870E060E008959FEF49
:1041200080EC0895DF93CF931F930F93FF92EF924C
:10413000DF927B018C01689405C0DA2EEF01AFD0CD
:10414000FE01E894A5912591359145915591AEF3E5
:10415000EF0129DEFE019701A801DA9479F7DF90DB
:10416000EF90FF900F911F91CF91DF910895002460
:104170000A941616170618060906089500240A94CC
:1041800012161306140605060895C9CF50D0E8F399
:10419000E894E0E0BB279F57F0F02AED3FE049ECC0
:1041A00006C0EE0FBB0F661F771F881F28F0B23ABC
:1041B00062077307840728F0B25A620B730B840BF3
:1041C000E3959A9572F7803830F49A95BB0F661F85
:1041D000771F881FD2F790480AC1092E0394000C5C
:1041E00011F4882352F0BB0F40F4BF2B11F460FF91
:1041F00004C06F5F7F4F8F4F9F4F0895EF93E0FF95
:1042000006C0A2EA2AED3FE049EC5FEBCCDDE5DF3A
:104210000F90039401FC9058E5E9F0E0FBC057FDD6
:104220009058440F551F59F05F3F71F04795880F24
:1042300097FB991F61F09F3F79F0879508951216BB
:1042400013061406551FF2CF4695F1DF08C0161667
:1042500017061806991FF1CF869571056105089418
:104260000895E894BB2766277727CB0197F908952F
:104270002CDF08F48FEF08959B01AC0160E070E043
:1042800080E89FE34CCE0BD0A8CF71DF28F076DF1B
:1042900018F0952309F03DCF42CF1124E3CFBFDFC3
:1042A000A0F3959FD1F3950F50E0551F629FF00149
:1042B000729FBB27F00DB11D639FAA27F00DB11DA2
:1042C000AA1F649F6627B00DA11D661F829F22272B
:1042D000B00DA11D621F739FB00DA11D621F839FB2
:1042E000A00D611D221F749F3327A00D611D231F88
:1042F000849F600D211D822F762F6A2F11249F57D6
:1043000050408AF0E1F088234AF0EE0FFF1FBB1FF8
:10431000661F771F881F91505040A9F79E3F510597
:1043200070F0F7CE9FCF5F3FECF3983EDCF38695BD
:1043300077956795B795F795E7959F5FC1F7FE2B42
:10434000880F911D9695879597F908959F931EDF85
:104350000F9007FCEE5F52CF11F40EF4E0CE45C093
:1043600066DFD0F39923D9F3CEF39F57550B87FF20
:104370004AD00024A0E640EA9001805856959795CF
:1043800028F4805C660F771F881F20F026173707F8
:10439000480730F4621B730B840B202931294A2B08
:1043A000A69517940794202531254A2758F7660FBC
:1043B000771F881F20F026173707480730F4620B55
:1043C000730B840B200D311D411DA09581F7B901A0
:1043D000842F9158880F9695879508959B01AC017D
:1043E00052CF73DE880B990B08959F3F31F09150A7
:1043F00020F4879577956795B795880F911D9695C9
:10440000879597F9089591505040660F771F881F40
:10441000D2F708959F938F937F936F93FF93EF93BA
:104420009B01AC0130DFEF91FF917CDE2F913F913A
:104430004F915F9128CFA1E21A2EAA1BBB1BFD0151
:104440000DC0AA1FBB1FEE1FFF1FA217B307E40773
:10445000F50720F0A21BB30BE40BF50B661F771FCB
:10446000881F991F1A9469F76095709580959095AB
:104470009B01AC01BD01CF010895EE0FFF1F059018
:0A448000F491E02D0994F894FFCFA9
:10448A0001000000E803B00B5ADADADA080000008B
:10449A00A203800000047265736574006E616E0089
:1044AA00696E66006F7666002E0000000000150C2B
:1044BA0000000000D30CCF087F0CA80C8F0CC80C8E
:1044CA0000000000B40E870E5C0E640E770E860E96
:1044DA0000000000310F660F800F8B0FA90F470FE6
:1044EA004910CC0FA50FB510F6105E0F00000000A2
:1044FA0097145D15AD1400000000BF1C081DBB1CFD
:10450A001C1D621DD51CCC1DE71CFC1C1B1E041D9A
:0A451A007B1D451DA01CA71CB71C4B
:00000001FF
