:100000000C9491000C94B9000C94B9000C94B900B4
:100010000C94B9000C94B9000C94B9000C94B9007C
:100020000C94B9000C94B9000C94B9000C94B9006C
:100030000C94B9000C94B9000C94B9000C94B9005C
:100040000C9467050C94B9000C94460B0C94800B2F
:100050000C94B9000C94B9000C94B9000C94B9003C
:100060000C945B1A0C94B900084AD73B3BCE016E46
:1000700084BCBFFDC12F3D6C74319ABD56833DDAFF
:100080003D00C77F11BED9E4BB4C3E916BAAAABE0E
:10009000000000803F05A84CCDB2D44EB93836A937
:1000A000020C50B9918688083CA6AAAA2ABE000074
:1000B00000803F000000000700020100000304066A
:1000C0000000000000000000010204081020408031
:1000D0000102040810200102040810200404040492
:1000E00004040404020202020202030303030303E2
:1000F0000000000023002600290000000000250069
:1001000028002B0000000000240027002A003102F4
:10011000A60A3C0C630D500FC50F21105C14611D25
:100120006C1D11241FBECFEFD8E0DEBFCDBF11E0A4
:10013000A0E0B1E0EAEFF1E402C005900D92AA3828
:10014000B107D9F723E0AAE8B1E001C01D92AD3AAA
:10015000B207E1F711E0C2E2D1E004C02297FE014C
:100160000E94F720CE30D107C9F70E9442030C94B9
:100170008D1D0C9400007F928F929F92AF92BF9240
:10018000CF92DF92EF92FF920F931F93CF93DF9363
:10019000EC01762E5A01490120E030E44CE156E4AE
:1001A000C701B6010E94FF1F0E94DB1E472D50E1D0
:1001B000450290011124A50144275E71352F359524
:1001C000322B388395013695279529839401207C1D
:1001D0003F7196E0359527959A95E1F7B694BA2C3C
:1001E000AA24B794A794A22AAA8298012227387138
:1001F000232F259525952595880C991C880C991CED
:1002000028292B83980153E0369527955A95E1F7D5
:100210002C839B0122273F7175E0000F111F7A95F7
:10022000E1F7032B0D836E83DF91CF911F910F9127
:10023000FF90EF90DF90CF90BF90AF909F908F9006
:100240007F9008959F92AF92BF92CF92DF92EF92EC
:10025000FF920F931F93CF93DF93EC01962E5A01D9
:10026000CA010E948F016B017C01F501078D10A16D
:10027000258D368D438D548D692DCE010E94BB0096
:10028000DF91CF911F910F91FF90EF90DF90CF9072
:10029000BF90AF909F900895CF93DF93EC010E94A1
:1002A000CD041F86188A198A1A8A1B8A1C8A1D8AFD
:1002B0001E8A1F8A188E198E1A8E40E050E060E068
:1002C0007FE349A35AA36BA37CA340E050E060E224
:1002D00071E44DA35EA36FA378A71DA61EA61FA65B
:1002E00018AA19AA1AAA1BAA1CAADF91CF910895CD
:1002F000CF93DF93EC0183EA92E00E94290DCE01B7
:10030000DF91CF910C945305FC0120813181428112
:10031000538164817581868197810C941D1E43965B
:100320000E94840120E030E044E353E40E94FF1F78
:100330002BED3FE049E450E40E94731E0895CF93F3
:10034000DF93EC0143960E9484016F87788B898B41
:100350009A8BDF91CF9108954F925F926F927F9227
:100360008F929F92AF92BF92CF92DF92EF92FF92C5
:10037000CF93DF93EC019C01215E3F4FAC01435EC4
:100380005F4FBC01655E7F4F0E94E7048F849888B1
:10039000A988BA886D8D7E8D64567109882777FD8E
:1003A0008095982F0E940E1F6B017C016B8D7C8DB8
:1003B0006C507109882777FD8095982F0E940E1F39
:1003C0006B8B7C8B8D8B9E8BCF8AD88EE98EFA8E31
:1003D0009B01AC010E94FF1F2B013C01A70196016C
:1003E000C701B6010E94FF1F9B01AC01C301B2010E
:1003F0000E94AA1D0E946C206B017C01CE014396D5
:100400000E948401A50194010E94A91D4B015C0179
:100410000E94701E9B01AC01C701B6010E94FF1F24
:100420006B8B7C8B8D8B9E8BC501B4010E946220EF
:100430009B01AC01C701B6010E94FF1F6F8B788F33
:10044000898F9A8FDF91CF91FF90EF90DF90CF90BF
:10045000BF90AF909F908F907F906F905F904F90E4
:1004600008950F9300E020E040E060E084EE91E02A
:100470000E948F0A8FEA91E00E944C010CE220E07A
:1004800048EA60EC82EA91E00E948F0A0AE220E0EA
:1004900048EA60EC8CE991E00E948F0A20E048EA8B
:1004A00060EC86E991E00E948F0A00E02FEF4FEFA9
:1004B0006FEF80E991E00E948F0A69E375E08AE8B6
:1004C00091E00F910C942713EF92FF920F931F93DB
:1004D000CF93DF93CDB7DEB768970FB6F894DEBF42
:1004E0000FBECDBF2EE131E03A8329838091920186
:1004F00090919301A0919401B09195018B839C837D
:10050000AD83BE8338872F838091980190919901A4
:10051000A0919A01B0919B0189879A87AB87BC878C
:100520003E872D8780919E0190919F01A091A0010F
:10053000B091A1018F87988BA98BBA8B3C8B2B8BA9
:100540008091A4019091A501A091A601B091A7016D
:100550008D8B9E8BAF8BB88FCE0101967C018E0167
:10056000095F1F4F9E01235F3F4FAE014D5E5F4FFE
:1005700064E071E08BEF92E00E94700F8AE891E0F6
:100580000E94E31240E052EC61E070E089EF91E0FC
:100590000E94BB0B8FEA91E00E94780161E08DE040
:1005A0000E946A0662E087E00E946A0668960FB6BB
:1005B000F894DEBF0FBECDBFDF91CF911F910F9199
:1005C000FF90EF900895CF93DF93CDB7DEB7649798
:1005D0000FB6F894DEBF0FBECDBF8FEA91E00E9448
:1005E000AC014FEA51E060E088EA91E00E9422010C
:1005F00047E050E068EA71E08AE891E00E949313D6
:100600006AE871E0CE0101960E94EB13CE010196DB
:100610000E94940D8823F1F0CE0101960E94B60D40
:10062000892BC1F04AE0BE016F5F7F4FCE010E966D
:100630000E94400964E171E0CE010E960E942C0AEE
:10064000882321F08FEA91E00E949F01CE010E964F
:100650000E94680987E00E94D906892B21F48FEA5D
:1006600091E00E949F0164E170E080E090E00E94D0
:10067000E00564960FB6F894DEBF0FBECDBFDF91E4
:10068000CF9108950E9406060E946402C0E0D1E066
:10069000CD276C2F8DE00E94A3060E94E302F8CFC5
:1006A000EF92FF920F931F93CF93DF9300D0CDB7BC
:1006B000DEB7062F142F682F83EA92E029833A834E
:1006C0000E94430D602F83EA92E00E94EA0C298188
:1006D000022FE22E3A81F32E8E2D801B811740F4DB
:1006E000F70161917F0183EA92E00E94EA0CF4CF66
:1006F00083EA92E00E94600D91E0811190E0892FE1
:100700000F900F90DF91CF911F910F91FF90EF907D
:100710000895CF93DF931F92CDB7DEB749839E0133
:100720002F5F3F4F41E00E9450030F90DF91CF9128
:1007300008953F924F925F926F927F928F929F9215
:10074000AF92BF92CF92DF92EF92FF920F931F93DF
:10075000CF93DF9300D000D000D0CDB7DEB7682EA6
:10076000562E742E3A8329830E94B1056B017C01B9
:10077000312C412C872D90E09C838B834801A12C48
:10078000B12C3714B0F5662D83EA92E00E94430D38
:10079000652D83EA92E00E94EA0C83EA92E00E94CF
:1007A000600D662D83EA92E00E94430D4B815C81CF
:1007B000431951094132510514F040E250E0662DD1
:1007C00083EA92E00E94400D83EA92E00E94920C3C
:1007D000892B59F10115110599F10E94B1056C1988
:1007E0007D098E099F09681579058A059B0540F1E9
:1007F0001CC001151105A9F10E94B1056C197D09F4
:100800008E099F0920E030E0601771078207930787
:1008100040F1872D90E0242D332727FD30952817B0
:100820003907FCF444244A941CC083EA92E00E94F5
:10083000600D872D90E2971508F480E2380EA1CF65
:10084000E981FA81E40DF11D47FCFA95FE83ED8301
:1008500083EA92E00E949A0CED81FE8180834394AA
:10086000B3CF842D26960FB6F894DEBF0FBECDBF52
:10087000DF91CF911F910F91FF90EF90DF90CF907C
:10088000BF90AF909F908F907F906F905F904F90B0
:100890003F9008950F931F9389019A0141E00E94B0
:1008A00099031F910F910895EF92FF920F931F9359
:1008B000CF93DF931F92CDB7DEB7182F062FF42EFC
:1008C000E22E20910A0130910B01AE014F5F5F4F84
:1008D0000E944A04898121E030E00F2C01C0220FE0
:1008E0000A94EAF7EE2019F0482F422B03C0422F5A
:1008F000409548234983602F812F0E9489030F90E0
:10090000DF91CF911F910F91FF90EF900895DF92AB
:10091000EF92FF920F931F93CF93DF931F92CDB768
:10092000DEB7F82EE62ED42E122F20910A01309138
:100930000B01AE014F5F5F4F0E944A04882319F1FB
:100940004D2D50E0411B51094F5F5F4FE1E0F0E05A
:1009500002C0EE0FFF1F1A95E2F73197042E01C077
:10096000EE0F0A94EAF701C0000F4A95EAF74E2FFE
:10097000409589814823E0234E2B49836E2D8F2D8E
:100980000E94890301C080E00F90DF91CF911F91F9
:100990000F91FF90EF90DF90089528E6FC012083EF
:1009A00008950F93062F22E044E06BE1FC01808163
:1009B0000E9487040F9108950F93062F22E044E0D0
:1009C0006CE1FC0180810E9487040F9108958F9251
:1009D0009F92AF92BF92CF92DF92EF92FF920F93CE
:1009E0001F93CF93DF93EC014B015A01690142E061
:1009F00067E3FC0181917F010E9489036AE070E056
:100A000080E090E00E94E00541E06AE08CE00E9416
:100A100089036AE070E080E090E00E94E0050091C8
:100A20000A0110910B01970146E063E08CE00E94FF
:100A300099038A8190E0982F88272981822BF401DD
:100A4000918380838C8190E0982F88272B81822B43
:100A5000F501918380838E8190E0982F88272D81E6
:100A6000822BF60191838083DF91CF911F910F91AB
:100A7000FF90EF90DF90CF90BF90AF909F908F90BE
:100A80000895262F46E06BE6FC0180810C94540407
:100A90000F93062F23E042E06BE6FC0180810E9469
:100AA00087040F910895CF93DF93EC0161E00E94DA
:100AB000480560E0CE010E94D10460E0CE010E94B2
:100AC000DC0460E0CE01DF91CF910C9441051F92D0
:100AD0000F920FB60F9211242F933F938F939F93F2
:100AE000AF93BF938091EB019091EC01A091ED0148
:100AF000B091EE013091EA0123E0230F2D3720F46D
:100B00000196A11DB11D05C026E8230F0296A11D67
:100B1000B11D2093EA018093EB019093EC01A09327
:100B2000ED01B093EE018091EF019091F001A09161
:100B3000F101B091F2010196A11DB11D8093EF0169
:100B40009093F001A093F101B093F201BF91AF91A6
:100B50009F918F913F912F910F900FBE0F901F90FB
:100B600018952FB7F8946091EB017091EC0180918A
:100B7000ED019091EE012FBF08953FB7F894809159
:100B8000EF019091F001A091F101B091F20126B531
:100B9000A89B05C02F3F19F00196A11DB11D3FBFB5
:100BA0006627782F892F9A2F620F711D811D911D45
:100BB00042E0660F771F881F991F4A95D1F7089565
:100BC000CF92DF92EF92FF92CF93DF936B017C0184
:100BD0000E94BD05EB01C114D104E104F10479F0D8
:100BE0000E94BD056C1B7D0B683E7340A0F381E045
:100BF000C81AD108E108F108C851DC4FECCFDF91E9
:100C0000CF91FF90EF90DF90CF900895789484B5C6
:100C1000826084BD84B5816084BD85B5826085BDF8
:100C200085B5816085BDEEE6F0E0808181608083DE
:100C3000E1E8F0E0108280818260808380818160C1
:100C40008083E0E8F0E0808181608083E1EBF0E088
:100C5000808184608083E0EBF0E08081816080832C
:100C6000EAE7F0E080818460808380818260808315
:100C70008081816080838081806880831092C10040
:100C80000895833081F028F4813099F08230A1F00A
:100C900008958630A9F08730B9F08430D1F480917E
:100CA00080008F7D03C0809180008F7780938000CB
:100CB000089584B58F7702C084B58F7D84BD089573
:100CC0008091B0008F7703C08091B0008F7D8093BA
:100CD000B0000895CF93DF9390E0FC01E853FF4FFD
:100CE0002491FC01E452FF4F8491882349F190E064
:100CF000880F991FFC01EC5FFE4FA591B4918650BF
:100D00009F4FFC01C591D4919FB7611108C0F89421
:100D10008C91209582238C93888182230AC0623033
:100D200051F4F8948C91322F309583238C938881E1
:100D3000822B888304C0F8948C91822B8C939FBF64
:100D4000DF91CF9108950F931F93CF93DF931F925D
:100D5000CDB7DEB7282F30E0F901EC54FF4F849176
:100D6000F901E853FF4F1491F901E452FF4F049148
:100D70000023C9F0882321F069830E94410669811C
:100D8000E02FF0E0EE0FFF1FE650FF4FA591B4916A
:100D90009FB7F8948C91611103C01095812301C015
:100DA000812B8C939FBF0F90DF91CF911F910F915B
:100DB0000895CF93DF93282F30E0F901EC54FF4FD3
:100DC0008491F901E853FF4FD491F901E452FF4FA8
:100DD000C491CC2391F081110E944106EC2FF0E0E8
:100DE000EE0FFF1FE051FF4FA591B4912C912D23E1
:100DF00081E090E021F480E002C080E090E0DF91AB
:100E0000CF9108956F927F928F929F92AF92BF92EF
:100E1000CF92DF92EF92FF920F931F93CF93DF93C6
:100E2000EC01CB01209781F4DF91CF911F910F91BD
:100E3000FF90EF90DF90CF90BF90AF909F908F90FA
:100E40007F906F900C94EB07FE01E60FF71F9E0159
:100E500022503109E217F30708F4ACC0D9010D9113
:100E60001C91119706171707B8F00530110508F403
:100E70009FC0A801445051094617570708F498C06D
:100E800002501109061B170B019311936D937C936C
:100E9000CF010E9483088CC05B01A01AB10A4E01E9
:100EA000800E911EA091AB03B091AC03612C712C0C
:100EB00060E070E0109709F449C0A815B905C9F5BC
:100EC000ED90FC901197670142E0C40ED11CCA144A
:100ED000DB0478F147018A189B08640142E0C40EE4
:100EE000D11C1296BC9012971396AC91B5E0CB161C
:100EF000D10440F0B282A38391828082D9018D9384
:100F00009C9309C00E5F1F4F0E0D1F1DF901118329
:100F10000083EB2DFA2F6115710531F0DB0113967B
:100F2000FC93EE93129744C0F093AC03E093AB03B1
:100F30003FC06D917C9111976616770608F43B01CE
:100F4000BD0112960D90BC91A02DB4CF6091A90364
:100F50007091AA0368157905E9F468167906D0F44A
:100F600040910C0150910D014115510541F44DB7CF
:100F70005EB76091100170911101461B570BE41789
:100F8000F507C0F4F093AA03E093A903F901918354
:100F900080830EC00E94EB077C01009759F0A801E6
:100FA000BE010E94901DCE010E948308C70104C0AB
:100FB000CE0102C080E090E0DF91CF911F910F91B0
:100FC000FF90EF90DF90CF90BF90AF909F908F9069
:100FD0007F906F900895CF93DF938230910510F446
:100FE00082E090E0E091AB03F091AC0320E030E0D0
:100FF000A0E0B0E0309739F140815181481759079E
:10100000B8F04817590771F482819381109729F03D
:1010100013969C938E9312972CC09093AC0380935D
:10102000AB0327C02115310531F04217530718F0E3
:10103000A901DB0101C0EF019A01BD01DF010280BE
:10104000F381E02DD7CF21153105F9F0281B390B9D
:101050002430310580F48A819B816115710521F06E
:10106000FB019383828304C09093AC038093AB0312
:10107000FE01329644C0FE01E20FF31F819391936B
:1010800022503109398328833AC02091A903309135
:10109000AA03232B41F420910E0130910F013093CC
:1010A000AA032093A90320910C0130910D01211571
:1010B000310541F42DB73EB7409110015091110117
:1010C000241B350BE091A903F091AA03E217F30763
:1010D000A0F42E1B3F0B2817390778F0AC014E5FA8
:1010E0005F4F2417350748F04E0F5F1F5093AA0338
:1010F0004093A9038193919302C0E0E0F0E0CF0117
:10110000DF91CF910895CF93DF93009709F487C0C3
:10111000FC01329713821282C091AB03D091AC03D1
:10112000209781F420813181280F391F8091A903F4
:101130009091AA038217930779F5F093AA03E0939D
:10114000A9036DC0DE0120E030E0AE17BF0750F408
:1011500012964D915C9113979D014115510509F12E
:10116000DA01F3CFB383A28340815181840F951FAD
:101170008A179B0771F48D919C911197840F951F8D
:1011800002969183808312968D919C9113979383FD
:1011900082832115310529F4F093AC03E093AB036E
:1011A0003EC0D9011396FC93EE9312974D915D9139
:1011B000A40FB51FEA17FB0779F480819181840F92
:1011C000951F0296D90111969C938E9382819381EB
:1011D00013969C938E931297E0E0F0E08A819B81B6
:1011E000009719F0FE01EC01F9CFCE01029628819B
:1011F0003981820F931F2091A9033091AA032817E8
:10120000390769F4309729F41092AC031092AB03BC
:1012100002C013821282D093AA03C093A903DF9164
:10122000CF9108950F931F93CF93DF93EC010E940A
:10123000B105688779878A879B87E881F98106806D
:10124000F781E02DCE01099597FF15C00E94B105E9
:10125000088519852A853B85601B710B820B930BD2
:101260000C811D812E813F816017710782079307D2
:1012700020F38FEF9FEFDF91CF911F910F91089592
:10128000EF92FF920F931F93CF93DF93EC018B01AB
:10129000E42E69E171E00E94D609C8010E9412099A
:1012A000FF24E7FCF09497FD0BC08E159F0541F0DD
:1012B000682FCE010E94190AC8010E941209F3CFBB
:1012C000CE01DF91CF911F910F91FF90EF90089584
:1012D000FC01808191810C948308CF93DF93EC0112
:1012E00088819981009711F00E94830819821882E1
:1012F0001D821C821B821A82DF91CF9108950F9369
:101300001F93CF93DF93EC018B016F5F7F4F888139
:1013100099810E940207009731F0998388831B838B
:101320000A8381E001C080E0DF91CF911F910F918E
:101330000895CF93DF93EC0188819981892B29F05F
:101340008A819B818617970760F4CE010E947F09EE
:10135000882341F08C819D81892B19F4E881F981E2
:10136000108281E0DF91CF910895EF92FF920F9369
:101370001F93CF93DF93EC017B018A01BA010E9496
:101380009909811104C0CE010E946D0907C01D8317
:101390000C83B701888199810E94A21DCE01DF9143
:1013A000CF911F910F91FF90EF900895FC01118252
:1013B00010821382128215821482168261157105C1
:1013C00059F0FB0101900020E9F7AF0141505109AC
:1013D000461B570B0C94B5090895EF92FF920F939B
:1013E0001F93CF93DF93EC017B010C811D8161156D
:1013F000710511F480E016C04115510591F0040FFC
:10140000151FB8010E9499098823A1F32881398109
:101410008C819D81B701820F931F0E94A21D1D83A5
:101420000C8381E0DF91CF911F910F91FF90EF909E
:101430000895CF93DF9300D0CDB7DEB769831A82CA
:1014400041E050E0BE016F5F7F4F0E94ED090F90B9
:101450000F90DF91CF910895FC0124813581232BDA
:1014600031F421E061157105A1F0FB0108C0FC0118
:10147000808191816115710531F421E0FC01808149
:10148000882339F005C00E94991D21E0892B09F0BD
:1014900020E0822F0895AF92BF92CF92DF92EF9219
:1014A000FF920F931F93CF93DF936C017B01C0E0FA
:1014B000D0E000E010E0F601EC0FFD1F4AE050E044
:1014C0006281C7010E9476195C016EE2C7010E9429
:1014D00009198A0D9B1D080F191F2196C330D105CC
:1014E00051F74AE050E0F6016581C7010E94761984
:1014F000800F911FDF91CF911F910F91FF90EF907F
:10150000DF90CF90BF90AF9008952EE131E0FC01C5
:1015100031832083128213821482158208950F93DF
:10152000FC018EE191E09183808362834383248375
:1015300005830F910895FB01408151816281738180
:10154000FC01428353836483758308958EE191E0A7
:101550009093F4018093F3011092F5011092F6013B
:101560001092F7011092F8010895FC012485358549
:10157000F901E05CFF4F80819181329620813181B9
:10158000821B930B8F7399270895FC0184859585A1
:10159000FC01E05CFF4F4081518132962081318116
:1015A0004217530741F00190F081E02DE80FF91F39
:1015B000808190E008958FEF9FEF0895FC0184856E
:1015C0009585FC01E05CFF4F40815181329620817E
:1015D00031814217530779F0A081B181A80FB91F5B
:1015E0008C91208131812F5F3F4F2F7333273183BF
:1015F000208390E008958FEF9FEF0895FC0181A173
:10160000882329F0A489B5898C9186FFFBCF11A28C
:101610000895CF93DF93FC0126853785D901A05C1F
:10162000BF4F8D919C91119701968F739927E90176
:10163000CE5BDF4F4881598184179507D9F30D9010
:10164000BC91A02DA20FB31F6C93A685B785A05C9B
:10165000BF4F11969C938E93A689B7892C9181E0F8
:1016600090E0078C02C0880F991F0A94E2F7282B9C
:101670002C9381E081A30488F589E02D808180642A
:10168000808381E090E0DF91CF9108951F920F92C7
:101690000FB60F9211242F933F934F938F939F93E5
:1016A000EF93FF938091C00082FD1CC04091C60063
:1016B00080919F029091A00201968F7399272091AB
:1016C000A1023091A2028217930771F0E0919F026C
:1016D000F091A002E15AFD4F40839093A0028093C5
:1016E0009F0202C08091C600FF91EF919F918F9160
:1016F0004F913F912F910F900FBE0F901F90189513
:101700001F920F920FB60F9211242F933F938F9336
:101710009F93EF93FF9320915B0230915C02809145
:101720005D0290915E022817390731F48091C10063
:101730008F7D8093C10014C0E0915D02F0915E0244
:10174000E55EFD4F208180915D0290915E020196E1
:101750008F73992790935E0280935D022093C60059
:10176000FF91EF919F918F913F912F910F900FBE1D
:101770000F901F901895CF92DF92EF92FF92CF9328
:10178000DF93EC016A017B01411581EE5807610589
:101790007105F9F0EC89FD8981E090E008A002C0B4
:1017A000880F991F0A94E2F7808360E079E08DE367
:1017B00090E0A70196010E94D320215031094109F0
:1017C00051095695479537952795211580E138079A
:1017D00098F0EC89FD89108260E874E88EE190E071
:1017E000A70196010E94D3202150310941095109D6
:1017F0005695479537952795E889F9893083EA8981
:10180000FB89208319A2EE89FF89408181E090E065
:101810009C010C8C02C0220F331F0A94E2F7422B6A
:101820004083EE89FF8940819C010D8C02C0220F0C
:10183000331F0A94E2F7422B4083EE89FF894081EF
:101840009C010E8C02C0220F331F0A94E2F7422B38
:101850004083EE89FF8920810F8C02C0880F991F79
:101860000A94E2F7809582238083DF91CF91FF90E5
:10187000EF90DF90CF9008951092FC011092FB0141
:1018800088EE93E0A0E0B0E08093FD019093FE012C
:10189000A093FF01B093000284E291E09093FA01DB
:1018A0008093F9018FE592E0909306028093050200
:1018B0008BE192E0909308028093070285EC90E020
:1018C00090930A028093090284EC90E090930C02BA
:1018D00080930B0280EC90E090930E0280930D02B7
:1018E00081EC90E09093100280930F0282EC90E0E4
:1018F000909312028093110286EC90E09093140270
:101900008093130284E08093150283E08093160293
:1019100087E08093170285E08093180281E080932E
:10192000190208958091D30290E02091D402821B85
:10193000910908952091D4028091D302281750F480
:10194000E22FF0E0EB52FD4F808190E02F5F20937B
:10195000D40208958FEF9FEF0895E091D402809113
:10196000D302E81730F4F0E0EB52FD4F808190E0B5
:1019700008958FEF9FEF08950895CF92DF92EF9231
:10198000FF920F931F93CF93DF937C01CB018A01CA
:101990002091AF02222389F0EB016B01C40ED51E0A
:1019A000CC15DD0569F06991D701ED91FC910190AD
:1019B000F081E02DC7010995F3CF642F0E94321A00
:1019C000C801DF91CF911F910F91FF90EF90DF90B1
:1019D000CF900895CF93DF931F92CDB7DEB7698381
:1019E0002091AF022223D1F02091B002203240F0AA
:1019F00021E030E0FC013383228380E090E015C0D9
:101A00008091B102E82FF0E0EE54FD4F9981908370
:101A10008F5F8093B1028093B00205C061E0CE0178
:101A200001960E94321A81E090E00F90DF91CF91F1
:101A30000895FC011382128248EE53E060E070E0EA
:101A4000448355836683778384E391E09183808325
:101A500008951092D4021092D3021092B102109203
:101A6000B0020C947D19862F413208F040E265EDFA
:101A700072E00E949B191092D4028093D3020895C1
:101A800021E00C94330D81E08093AF026093D20289
:101A90001092B1021092B00208950F93062F21E028
:101AA0004091B00262EB72E08091D2020E94DF1995
:101AB0001092B1021092B0021092AF020F910895ED
:101AC00061E00C944D0D83EA92E00C94190DCF93D4
:101AD000DF931F92CDB7DEB76983DC01ED91FC91F6
:101AE0000280F381E02D41E050E0BE016F5F7F4F47
:101AF00009950F90DF91CF910895CF93DF93EC017B
:101B0000E881F9810480F581E02DCE010995892BCA
:101B100041F0E881F9810680F781E02DCE01099539
:101B2000EFCFDF91CF91089521E0FC0184858430CF
:101B300009F420E0822F08950F931F93CF93DF9332
:101B4000EC018A018C85843021F00E94B217892B28
:101B500039F481E090E09B838A8380E090E001C0CB
:101B6000C801DF91CF911F910F910895FC01648509
:101B7000643021F08DE193E00C94821580E090E0D8
:101B80000895CF93DF931F92CDB7DEB741E050E0C9
:101B9000BE016F5F7F4FFC0184850E9404181816F8
:101BA00019061CF4898190E002C08FEF9FEF0F901F
:101BB000DF91CF910895FC0184850C9404180F9354
:101BC0001F93CF93DF931F92CDB7DEB78C01DC015B
:101BD000ED91FC910480F581E02D0995892B51F060
:101BE000BE016F5F7F4FF80184850E94481889818C
:101BF00090E002C08FEF9FEF0F90DF91CF911F9188
:101C00000F910895CF92DF92EF92FF920F931F935F
:101C1000CF93DF93CDB7DEB7AF970FB6F894DEBFA3
:101C20000FBECDBF7C018B016A01CE0101960E94DF
:101C3000850ACE0109960E94EE1CCE018A960E946A
:101C4000850A6BEF72E0CE0184960E94B50FBE014B
:101C50006C5D7F4FCE0101960E94D30FAE01465DB1
:101C60005F4FB801CE0101960E9438128130910574
:101C7000C1F4D701ED91FC910484F585E02D8EE14E
:101C800091E09DA38CA30CA51DA52EA53FA50EA399
:101C90001FA328A739A7A601BE016C5D7F4FC7010E
:101CA0000995AF960FB6F894DEBF0FBECDBFDF919A
:101CB000CF911F910F91FF90EF90DF90CF900895FB
:101CC000FC01262F1382128248EE53E060E070E0A0
:101CD000448355836683778384E491E09183808392
:101CE00024870895FC018485843039F090E0982F92
:101CF00088278D5F9B4F0C940C1580E00895AF9260
:101D0000BF92CF92DF92EF92FF920F931F93CF93E8
:101D1000DF93EC015B016A018C85843009F04EC0D1
:101D200033E0E32E34E0F32E00E010E0C7010E9420
:101D30000C15811102C00C8709C08B7F8831D9F343
:101D40000F5F1F4FF3940430110581F78C858430A9
:101D5000A9F120911201309113012F5F3F4F2115FE
:101D6000310511F420E034E0309313012093120187
:101D7000409112015091130120E061E00E9421176F
:101D8000B5016E5F7F4FA6018C850E94751781118A
:101D900003C084E08C8712C0CE010E94720E87318E
:101DA00051F061E070E080E090E00E94E005CE013B
:101DB0000E94720EECCF81E090E002C080E090E0E3
:101DC000DF91CF911F910F91FF90EF90DF90CF9017
:101DD000BF90AF900895CF92DF92EF92FF92CF9392
:101DE000DF93EC018C85843081F10E94AB170E9457
:101DF000B1056B017C01CE010E94720E882359F05F
:101E00000E94B1056C197D098E099F09683E7340D7
:101E10008105910598F0CE010E94720E882319F079
:101E20008C850E941317EC85F0E0EE0FFF1FED5F2D
:101E3000FC4F1182108284E08C8707C061E070E063
:101E400080E090E00E94E005D6CFDF91CF91FF9037
:101E5000EF90DF90CF900895CF93DF93EC018C85C6
:101E60008430D1F0CE010E94720E8431A9F0882313
:101E700099F0883189F08C3169F4E881F981048026
:101E8000F581E02DCE01099521E0892B09F420E0B0
:101E9000822F03C081E001C080E0DF91CF910895DF
:101EA0000F9300E020E040E060E085EF92E00E94C8
:101EB0008F0A0F91089544E050E0BC0181E090E06A
:101EC0000C94DD1444E050E0BC0185E090E00C94FB
:101ED000DD1444E050E0BC018FE090E00C94DD1490
:101EE0008F929F92AF92BF92CF92DF92EF92FF922A
:101EF0000F931F93CF93DF9300D0CDB7DEB74C0184
:101F00006A0159018DE193E069837A830E949314F9
:101F100046E050E069817A8189E090E00E94DD141A
:101F2000C60102960E94690FC80102960E945B0FCB
:101F3000C70102960E94620FF501428153816481BC
:101F40007581F40142835383648375830F900F90EE
:101F5000DF91CF911F910F91FF90EF90DF90CF9085
:101F6000BF90AF909F908F9008952EE131E0FC01DB
:101F700031832083FB014281538164817581FC019F
:101F8000428353836483758308950F9300E020E0B8
:101F900040E060E08BE093E00E948F0A8BEF92E0DC
:101FA0000F910C94850AFB014281538164817581F4
:101FB000FC014283538364837583178216820895DC
:101FC000CF93FB0181918111FDCFFB0180E090E077
:101FD00020E030E0CAE06191662309F12430310548
:101FE00064F56E3271F48F3F910509F034F5DA0132
:101FF000A20FB31F12968C932F5F3F4F80E090E0AB
:10200000EACFDC01CA9FC001CB9F900D1124772736
:1020100067FD709560537109860F971FDCCF8F3F66
:10202000910509F054F4243031053CF4FA01E20F33
:10203000F31F828381E090E002C080E090E0CF91C6
:1020400008950F9300E020E040E060E081E193E03C
:102050000E948F0A0F910895AF92BF92CF92DF92A4
:10206000EF92FF920F931F93CF93DF9300D01F92B5
:10207000CDB7DEB76C017B010E94B105F601778315
:1020800066838601085F1F4FB6016A5F7F4F42E09B
:1020900050E0C8010E94F01B81E090E09A838983A0
:1020A00042E050E0BE016F5F7F4FC8010E94F01B0D
:1020B00080E091E09A83898342E050E0BE016F5F47
:1020C0007F4FC8010E94F01B1A82198242E050E043
:1020D000BE016F5F7F4FC8010E94F01B42E050E0DD
:1020E000BE016F5F7F4FC8010E94F01B42E050E0CD
:1020F000BE016F5F7F4FC8010E94F01B6701F601B0
:102100008081882311F1F7016F018191811115C040
:102110005601AE18BF081A141B0494F4AB8241E0B8
:1021200050E0BE016D5F7F4FC8010E94F01BA5010A
:10213000B701C8010E94F01B03C08E3229F7E8CF17
:102140007601FFEFEF1AFF0ADACF1B8241E050E081
:10215000BE016D5F7F4FC8010E94F01BE12CFF2480
:10216000F394FA82E98242E050E0BE016F5F7F4F54
:10217000C8010E94F01BFA82E98242E050E0BE01F1
:102180006F5F7F4FC8010E94F01B81E090E00F90CD
:102190000F900F90DF91CF911F910F91FF90EF90D3
:1021A000DF90CF90BF90AF9008954F925F926F9263
:1021B0007F928F929F92AF92BF92CF92DF92EF92D7
:1021C000FF920F931F93CF93DF93CDB7DEB7639743
:1021D0000FB6F894DEBF0FBECDBF7C015B016A0174
:1021E0000E94B1052B013C018701085F1F4F45018B
:1021F000A12CB12CC8010E94631C1816190694F07A
:102200000E94B10564197509860997098616970613
:10221000A806B906D0F062E370E080E090E00E948A
:10222000E005E8CFF7014281538164817581818D9A
:10223000928DA38DB48D481759076A077B0741F427
:10224000858D968DC59721F406C08FEF9FEFF9C05D
:102250008EEF9FEFF6C0C8010E94A31B0C970CF4F1
:10226000EEC04CE050E0BE016F5F7F4FC8010E949E
:102270002D1C8B819C819827892798279A8B898B85
:10228000F7014681578129813A814217530711F49A
:1022900097FD06C0C8010E94BD1B8CEF9FEFD1C007
:1022A0008F709270892B31F0C8010E94BD1B8BEF9B
:1022B0009FEFC7C0AF80B884BA24AB24BA24A1145E
:1022C000B10419F0E12CF12C23C0C8010E94BD1B00
:1022D0008AEF9FEFB6C041E050E0BE01635F7F4FE1
:1022E000C8010E942D1C8D8581111BC08D85811117
:1022F000F2CFC8010E94041CC8010E94041CC8013E
:102300000E94041CC8010E94041CFFEFEF1AFF0A80
:102310008D819E81982789279827E816F906D8F29B
:102320000AC08D859FEF980F9D878823F9F2C80119
:102330000E94041CF6CFE12CF12C41E050E0BE01DC
:102340006D5E7F4FC8010E942D1C8B89982F907C59
:1023500061F4882371F08B899FEF980F9B8B882302
:1023600041F0C8010E94041CF6CFC8010E94041C61
:102370001B8A8B898111E1CF42E050E0BE01615F91
:102380007F4FC8010E942D1C42E050E0BE01635FF8
:102390007F4FC8010E942D1CC8010E94041CC80167
:1023A0000E94041CC8010E94041CC8010E94041C55
:1023B00042E050E0BE016F5E7F4FC8010E942D1CBD
:1023C0008F8598898115914029F48D859E85811589
:1023D000914019F0812C912C16C089899A89811518
:1023E000944031F0C8010E94BD1B87EF9FEF29C0C8
:1023F000B6016E5F7F4F44E050E0C8010E942D1C83
:1024000081E090E01EC089899A89982789279827BA
:102410008816990638F4C8010E94041C2FEF821A0E
:10242000920AF1CF8FEFE81AF80AEA14FB0409F0D8
:1024300084CFC8010E94BD1B86EF9FEF02C08DEFC5
:102440009FEF63960FB6F894DEBF0FBECDBFDF914E
:10245000CF911F910F91FF90EF90DF90CF90BF90A1
:10246000AF909F908F907F906F905F904F90089566
:102470008F929F92AF92BF92CF92DF92EF92FF9294
:102480000F931F93CF93DF9300D000D000D0CDB730
:10249000DEB78C015B016A010E94E00F4C010097DE
:1024A00009F05FC0F8014281538164817581809198
:1024B000130390911403A0911503B09116034817CC
:1024C00059076A077B0709F450C00E94B1057801DB
:1024D000F8E0EF0EF11C6F7077277C5FC7010E9458
:1024E000B41C813009F045C08EE191E09A83898364
:1024F000F80182819381A481B5818B839C83AD8314
:10250000BE8345E350E0BE016F5F7F4FC7010E946D
:10251000E41B892B19F4812C912C1FC0B501C80133
:102520000E942C10892BB9F3C7010E94EC1B892B48
:1025300091F333E0A32EB12CA60168E873E1C80142
:102540000E94D5104C01F1E0AF1AB108A114B104FA
:1025500021F08F3F2FEF920779F3C7010E94CF1B25
:1025600008C088248394912C04C09EEF892E99245E
:102570009A94C40126960FB6F894DEBF0FBECDBF65
:10258000DF91CF911F910F91FF90EF90DF90CF904F
:10259000BF90AF909F908F900895CF93DF931F923D
:1025A000CDB7DEB76983DC01ED91FC910280F38148
:1025B000E02D41E050E0BE016F5F7F4F09950F9025
:1025C000DF91CF910895EF92FF920F931F93CF93D6
:1025D000DF93CDB7DEB72D970FB6F894DEBF0FBEF1
:1025E000CDBF7C0100E010E0602FCE0101960E947B
:1025F000600ECE0101960E94720E811116C0F70185
:102600004481558120E061E0802F0E942117802FB6
:102610000E946117F70184819581F801EE0FFF1F79
:10262000ED5FFC4F9183808305C00F5F1F4F043027
:102630001105D1F62D960FB6F894DEBF0FBECDBFB3
:10264000DF91CF911F910F91FF90EF900895FC01C2
:102650001382128280E691E0918380837583648384
:102660000895BF92CF92DF92EF92FF920F931F9344
:10267000CF93DF93CDB7DEB72D970FB6F894DEBFBB
:102680000FBECDBF8C0143E0C42E43E0D42EB12C4D
:10269000E12CF12C6B2DCE0101960E94600ED6012B
:1026A0002D913D916D01F80184819581281739079D
:1026B000B1F4CE0101960E94720E843169F0CE0110
:1026C00001960E94720E8C3151F4CE0101960E9447
:1026D000B60D892B99F003C0EE24E394F12CB3944A
:1026E000F4E0BF12D7CFEF2871F4D801ED91FC913F
:1026F0000480F581E02DC801099505C0CE01019641
:102700000E94EB0EECCF2D960FB6F894DEBF0FBEF5
:10271000CDBFDF91CF911F910F91FF90EF90DF9090
:10272000CF90BF9008957F928F929F92AF92BF9269
:10273000CF92DF92EF92FF920F931F93CF93DF938D
:10274000CDB7DEB72D970FB6F894DEBF0FBECDBF65
:102750006C015B014A010E94311353E0E52E53E006
:10276000F52E712C00E010E0672DCE0101960E943D
:10277000600EF701219131917F01F60184819581ED
:102780002817390731F4CE0101960E94720E873165
:10279000C9F07394F4E07F12E7CFC8012D960FB60D
:1027A000F894DEBF0FBECDBFDF91CF911F910F9187
:1027B000FF90EF90DF90CF90BF90AF909F908F9061
:1027C0007F900895A401B501CE0101960E949C0D51
:1027D000080F191FDECFBF92CF92DF92EF92FF92C8
:1027E0000F931F93CF93DF93CDB7DEB72D970FB61F
:1027F000F894DEBF0FBECDBF8C016B01CB010E94F0
:10280000311363E0E62E63E0F62EB12C6B2DCE0182
:1028100001960E94600EF701219131917F01F6012E
:10282000848195812817390761F4CE0101960E94B1
:10283000720E873179F0CE0101960E94720E8C31B2
:1028400049F0B394F4E0BF12E1CF64E0C8010E9404
:10285000600E21C0CE0101960E94B60D892B89F32E
:102860008B819C81F801938382838D819E81AF81CE
:10287000B88584839583A683B78349855A856B85FC
:102880007C85408751876287738784E491E09183D8
:1028900080838D858487C8012D960FB6F894DEBF9E
:1028A0000FBECDBFDF91CF911F910F91FF90EF90A1
:1028B000DF90CF90BF9008950F9300E020E040E0BC
:1028C00060E087E193E00E948F0A0F9108958EBD2A
:1028D0000DB407FEFDCF8EB508952A9808952A9A63
:1028E00008951F93CF93DF9300D0CDB7DEB7182F95
:1028F0006A8399830E946D1480EF0E946714998106
:10290000892F0E946714812F0E9467146A81862F85
:102910000E9467140E946F1481E00F900F90DF9166
:10292000CF911F910895CF93DF93EC016CE271E09A
:1029300080E090E00E94E0050E94771D229A60E806
:1029400080E090E00E94711465E58BE190E00E94C8
:10295000711465E58AE190E00E94711480E090E4D2
:102960009983888380E090E69987888780E098E45F
:102970009B838A8380E098E69B878A8780E090E546
:102980009D838C8380E090E79D878C8780E098E52D
:102990009F838E8380E098E79F878E87DF91CF911A
:1029A0000895FB01282F30E02C5F3F4F922F88279E
:1029B000642F8E0F9F1F0C947114CF92DF92EF92B1
:1029C000FF920F931F93CF93DF93EC017A018B015A
:1029D0006C01C40ED51ECC15DD05A1F00E946D144E
:1029E00080EF0E9467148D2F0E9467148C2F0E9425
:1029F00067142196F80181918F010E9467140E944B
:102A00006F14E9CFC701DF91CF911F910F91FF9014
:102A1000EF90DF90CF9008951F93CF93DF931F9295
:102A2000CDB7DEB7182F99830E946D148FE00E94F6
:102A300067149981892F0E946714812F0E9467145F
:102A400080E00E94671489830E946F1489810F902F
:102A5000DF91CF911F910895282F30E02C5F3F4FD9
:102A6000922F8827860F971F0C940C151F93CF93D6
:102A7000DF93182F60E270E00E942C15C82FD0E081
:102A800061E270E0812F0E942C15DC2FCC279E0183
:102A9000282BC901DF91CF911F910895FF920F93C9
:102AA0001F93CF93DF93F62EC0E0D0E08F2D0E94CE
:102AB00036158C01009721F08F2D0E943615EC0100
:102AC000C017D10799F7CE01DF91CF911F910F91D8
:102AD000FF9008951F93CF93DF93182F66E270E065
:102AE0000E942C15C82FD0E067E270E0812F0E9471
:102AF0002C15DC2FCC279E01282BC901DF91CF910B
:102B00001F910895FF920F931F93CF93DF93F62E9B
:102B1000C0E0D0E08F2D0E946A158C01009721F053
:102B20008F2D0E946A15EC01C017D10799F7CE01CD
:102B3000DF91CF911F910F91FF9008956F927F9237
:102B40009F92AF92BF92CF92DF92EF92FF920F933C
:102B50001F93CF93DF931F92CDB7DEB7D82E962E5B
:102B60003A01590164E270E0892D99830E942C1585
:102B7000E82EF12C65E270E0892D0E942C15FE2CC8
:102B8000EE24E82AE60CF71C970137706D2C99812A
:102B9000792E690C711C690C711CD301ED91FC91AB
:102BA000E20FF31FC901800F911F81309840A0F000
:102BB000C12C48E0D42EC21AD30AA601B501CF0118
:102BC0000E94DD14A8014C195D09B5016C0D7D1D35
:102BD000F3018081918103C0A801B501CF010E945A
:102BE000DD14E00EF11E4F2D64E270E0892D0E948D
:102BF000D1144E2D65E270E0892D0F90DF91CF91B9
:102C00001F910F91FF90EF90DF90CF90BF90AF900A
:102C10009F907F906F900C94D1140F931F93890114
:102C20009A0140E050E00E949E151F910F91089577
:102C3000CF92DF92EF92FF920F931F93CF93DF9388
:102C4000EC017A018B016C01C40ED51ECC15DD059B
:102C5000A9F00E946D148FE00E9467148D2F0E94CE
:102C600067148C2F0E946714219680E00E946714DD
:102C7000F80181938F010E946F14E8CFC701DF91A3
:102C8000CF911F910F91FF90EF90DF90CF9008951B
:102C9000CF92DF92EF92FF920F931F93CF93DF9328
:102CA00069015770EC01C60FD11DC60FD11D888573
:102CB0009985840F951F9A01200F311F21303840CC
:102CC00090F0E12C68E0F62EE41AF50AA701B601AF
:102CD0000E941816A8014E195F09B6016E0D7F1DDE
:102CE0008885998502C0A801B601DF91CF911F9117
:102CF0000F91FF90EF90DF90CF900C9418168F9269
:102D00009F92AF92BF92CF92DF92EF92FF920F937A
:102D10001F93CF93DF936C01962E5A017901802E79
:102D200068E270E0892D0E942C15C82FD0E069E27E
:102D300070E0892D0E942C15DC2FCC27C82B870131
:102D40009501AE01692DC6010E94481681101AC076
:102D5000CE0DDF1D4D2F68E270E0892D0E94D11449
:102D60004C2F69E270E0892DDF91CF911F910F9177
:102D7000FF90EF90DF90CF90BF90AF909F908F909B
:102D80000C94D114DF91CF911F910F91FF90EF9090
:102D9000DF90CF90BF90AF909F908F900895CF938A
:102DA000C62F61E070E08C2F0E94D11461E070E0CA
:102DB0008C2F0E942C158111F9CFCF91089590E0AE
:102DC000982F882744E050E0845F9B4F0C94DD14DB
:102DD00062E070E00C942C15CF93DF93C82FD62FB0
:102DE000472F64E070E00E94D1144D2F65E070E041
:102DF0008C2FDF91CF910C94D114462F62E070E0BC
:102E00000C94D114CF93DF93C82FD62F472F60E1B6
:102E100070E00E94D1144D2F61E170E08C2FDF91A2
:102E2000CF910C94D114CF93C82F40E150E0682F7C
:102E30008DE193E00E94CF166FEF8C2FCF910C9411
:102E4000FD16EF92FF921F93CF93DF9300D0CDB783
:102E5000DEB7182F7A018FEF860F853048F5812F66
:102E60002A8369830E9413172A816981462F422B86
:102E700060E070E0812F0E94D114E114F10411F0A0
:102E8000B7010AC060912D0370912E036F5F7F4FD1
:102E900070932E0360932D03812F0E94EC1641E066
:102EA00050E0612F8DE193E00E94CF1681E001C0D8
:102EB00080E00F900F90DF91CF911F91FF90EF90E6
:102EC0000895CF93C82F63E070E00E942C158331E2
:102ED00049F442E050E06C2F8DE193E00E94CF1660
:102EE00081E001C080E0CF9108951F93CF93DF93DD
:102EF000182FFB01EA0180818F3F51F481818F3FC0
:102F000091F482818F3F79F483818F3F61F41EC0F9
:102F1000811109C08181811106C08281811103C0A4
:102F20008381882399F0209789F0BF01812F0E9427
:102F3000DF16BE01812F0E94021744E050E0612F8E
:102F40008DE193E00E94CF1681E001C080E0DF9127
:102F5000CF911F91089548E050E0682F8DE193E0F4
:102F60000C94CF16DF92EF92FF920F931F93CF93A3
:102F7000DF93D82E8B01EA01413088E0580710F02A
:102F8000C0E0D8E06D2D8DE193E00E944E157C01EC
:102F900063E070E08D2D0E942C15873111F08C318B
:102FA00021F4EC16FD0670F302C0C0E0D0E09E01F3
:102FB000A8016D2D8DE193E00E940D1640E250E0D6
:102FC0006D2D8DE193E00E94CF168D2D0E94E816A5
:102FD00084FD0DC063E070E08D2D0E942C158111E1
:102FE000F4CF8D2D0E94131780E090E005C060E1C2
:102FF0008D2D0E94FD16CE01DF91CF911F910F9173
:10300000FF90EF90DF900895DF92EF92FF920F9381
:103010001F93CF93DF93D82E7B018A01682F8DE118
:1030200093E00E948215EC01009799F463E070E050
:103030008D2D0E942C15843111F1882301F1C1E0FE
:10304000D0E08C3111F4C0E0D0E0D195C195D10928
:1030500016C0081719070CF4E8011C161D067CF4AD
:1030600000E09E01A7016D2D8DE193E00E947F1687
:1030700040E450E06D2D8DE193E00E94CF16CE012B
:10308000DF91CF911F910F91FF90EF90DF90089506
:103090000F93AB0101E021E030E0682F8DE193E078
:1030A0000E947F1681E090E00F910895BF92CF9229
:1030B000DF92EF92FF920F931F93CF93DF93B82E7F
:1030C0007B016A01E901682F8DE193E00E944E15B2
:1030D0008C179D0730F46B2D8DE193E00E944E1507
:1030E000EC018E019601A7016B2D8DE193E00E940A
:1030F0009E15CE01DF91CF911F910F91FF90EF9020
:10310000DF90CF90BF9008951F93CF93DF93182F38
:10311000FB01EA018081811109C08181811106C012
:103120008281811103C08381882369F0209759F03F
:10313000BF01812F0E94DF16BE01812F0E9402175E
:1031400081E090E002C080E090E0DF91CF911F919C
:103150000895CF93C82F40E250E0682F8DE193E0AF
:103160000E94CF168C2F0E94E81684FD0CC08C2F75
:103170000E94E81683FFF6CF68E18C2F0E94FD16AF
:1031800080E090E006C060E18C2F0E94FD1681E097
:1031900090E0CF910895CF92DF92EF92FF920F933C
:1031A0001F93CF93DF936C017A01EB01E60EF71EBC
:1031B00000E010E0CE15DF0561F06991D601ED91D8
:1031C000FC910190F081E02DC6010995080F191FAF
:1031D000F1CFC801DF91CF911F910F91FF90EF9038
:1031E000DF90CF9008956115710581F0DB010D909E
:1031F0000020E9F7AD0141505109461B570BDC0196
:10320000ED91FC910280F381E02D099480E090E043
:103210000895DC01ED91FC910190F081E02D09947D
:103220008F929F92AF92BF92CF92DF92EF92FF92D6
:103230000F931F93CF93DF93CDB7DEB7A1970FB650
:10324000F894DEBF0FBECDBF7C01C42EE52FCB01AD
:10325000D22E19A221E02D1510F02AE0D22E8E01D7
:103260000F5D1F4F8D2C912CA12CB12C6C2D7E2F1E
:10327000A50194010E94D3208C2DD29E8019112487
:10328000015011098A3014F4805D01C0895CF80195
:103290008083211531054105510521F0C22EE32F10
:1032A000CA01E4CFB801C7010E94F318A1960FB676
:1032B000F894DEBF0FBECDBFDF91CF911F910F916C
:1032C000FF90EF90DF90CF90BF90AF909F908F9046
:1032D00008952115310541F4DC01ED91FC91019037
:1032E000F081E02D642F09940C9410199A01462F57
:1032F00050E060E070E00C94691910929C0381E04A
:1033000080939A031092990361E082E10E94A306E0
:1033100061E083E10E94A306E9EBF0E080818E7F0B
:10332000808380818D7F808388E48093B80085E4EA
:103330008093BC000895413208F03FC090919C03F7
:103340009111FCCF91E090939C0320939A032FEF6F
:1033500020932F0310927403240F209373039093F0
:103360009B0390919B03880F892B80939B038091F3
:103370009903813041F41092990380919B038093CB
:10338000BB0085EC01C085EE8093BC0080919C035E
:103390008130E1F380917403841710F44091740339
:1033A00025E733E0FB01D9018A2F821B841718F42B
:1033B0008D918193F9CF842F089580E008950F9324
:1033C000413208F046C090919C039111FCCF92E0ED
:1033D00090939C0300939A039FEF90932F03109276
:1033E000740340937303FB0165E773E0DB019A2FDD
:1033F000961B941718F491919D93F9CF10929B030B
:1034000090919B03880F892B80939B038091990354
:10341000813041F41092990380919B038093BB000B
:1034200085EC01C085EE8093BC00222321F08091C1
:103430009C038230E1F380912F038F3F61F08091F4
:103440002F03803251F080912F03803341F483E0C9
:1034500007C081E005C080E003C082E001C084E0D5
:103460000F910895613298F420919C03243089F4DF
:1034700060935103FC0183E593E0DC012A2F281BB4
:10348000261718F421912D93F9CF80E0089581E05B
:10349000089582E0089585ED8093BC008091BC0082
:1034A00084FDFCCF10929C03089585EC8093BC00B2
:1034B00010929C0308951F920F920FB60F92112441
:1034C0002F933F934F935F936F937F938F939F932C
:1034D000AF93BF93EF93FF938091B900887F8036BD
:1034E00009F49CC068F5883209F45BC090F480311F
:1034F00009F454C038F4882309F4F5C0883009F47D
:103500004DC0F5C0883109F44CC0803209F45DC06B
:10351000EEC0803409F468C048F4803309F455C023
:10352000883309F0E4C080932F03A8C0803509F4E4
:103530004FC0883509F45DC0883409F0D8C0D5C0C3
:10354000883909F4C6C0A8F4883709F467C038F48C
:10355000883609F463C0803709F460C0C8C0883871
:1035600009F4B7C0803909F45FC0803809F0BFC0E2
:103570005BC0803B09F485C038F4803A09F466C02A
:10358000883A09F47EC0B3C0803C09F4A6C0883CE8
:1035900009F4A3C0883B09F489C0A9C080919B03AA
:1035A00010C09091740380917303981770F5E091A7
:1035B000740381E08E0F80937403F0E0EB58FC4FAE
:1035C00080818093BB0085EC85C080932F038DC0E4
:1035D000E091740381E08E0F809374038091BB00AF
:1035E000F0E0EB58FC4F808390917403809173035B
:1035F0006DC0E091740381E08E0F8093740380911D
:10360000BB00F0E0EB58FC4F808380919A0381115E
:103610006CC081E08093990384EA60C083E080936A
:103620009C0310923003CFCF80913003803208F09A
:1036300050C0E091300381E08E0F80933003809181
:10364000BB00F0E0EF5CFC4F8083BDCF8091300386
:10365000803230F4E0913003F0E0EF5CFC4F1082F8
:103660000E944B1A6091300370E0E0919503F09155
:10367000960381E393E00995109230030E94551A56
:1036800036C084E080939C03109252031092510341
:10369000E0919703F091980309958091510381116E
:1036A00005C081E08093510310925303E0915203CF
:1036B00081E08E0F80935203F0E0ED5AFC4F808141
:1036C0008093BB009091520380915103981708F4A6
:1036D0007ACF85E88093BC000AC085EC8093BC005B
:1036E00010929C0304C010922F030E944B1AFF916A
:1036F000EF91BF91AF919F918F917F916F915F916A
:103700004F913F912F910F900FBE0F901F901895E2
:10371000DC01ED91FC91008CF18DE02D09942EE1FE
:1037200031E0FC0131832083FB01418952896389A7
:103730007489FC0142835383648375830895FC017B
:10374000858996890895FC01818D928D0895CF9386
:10375000DF931F92CDB7DEB76983DC01ED91FC9159
:103760000280F381E02D41E050E0BE016F5F7F4FAA
:1037700009950F90DF91CF910895CF93DF93EC01DE
:10378000898D9A8D892B41F0E881F9810680F78136
:10379000E02DCE010995F4CFDF91CF910895CF931D
:1037A000DF93EC018C85843061F00E941317EC8567
:1037B000F0E0EE0FFF1FED5FFC4F1182108284E0FE
:1037C0008C87DF91CF910895FC01108E178A6E5F70
:1037D0007F4F84850C948418FC0184850C94A9186F
:1037E000CF93DF93EC019A018F89988DAB01BC01D7
:1037F0008C850E9456182F89388D280F391F388FD5
:103800002F8BDF91CF9108950F931F93CF93DF9369
:103810001F92CDB7DEB78C01FC01818D928D892B73
:1038200059F041E050E0BE016F5F7F4F84850E94F8
:103830000418181619061CF08FEF9FEF08C0F80146
:10384000818D928D0197928F818F898190E00F9069
:10385000DF91CF911F910F910895CF93DF93EC01EA
:10386000898D9A8D009719F48FEF9FEF10C048173C
:10387000590708F0AC018C850E9404181816190627
:103880009CF7298D3A8D281B390B3A8F298FDF91B0
:10389000CF910895CF93DF931F92CDB7DEB7FC0190
:1038A000218D328D232B49F0BE016F5F7F4F8485C0
:1038B0000E944818898190E002C08FEF9FEF0F901F
:1038C000DF91CF9108950F931F93CF93DF93CDB7DF
:1038D000DEB728970FB6F894DEBF0FBECDBF8C01C0
:1038E000DC01ED91FC910284F385E02D0995F8014E
:1038F00064858DE193E00E948215892B41F148E0B7
:1039000050E0BE016F5F7F4FD8011C968C910E94E2
:10391000041818161906ECF4BE016F5F7F4FC8013A
:103920000F960E949B0A8D8190E0982F88272E8108
:10393000820F911DF801968B858B8F8190E0982FD7
:1039400088272885820F911D928F818F02C080E089
:1039500090E028960FB6F894DEBF0FBECDBFDF9182
:10396000CF911F910F910895CF92DF92EF92FF9226
:103970000F931F93CF93DF93EC016B018C85843001
:1039800019F543E0E42E44E0F42E00E010E0C70116
:103990000E940C15811102C00C8708C08831E1F328
:1039A0000F5F1F4FF3940430110589F78C85843025
:1039B00059F0DE86CD861A8E198E20E0A60162E0CF
:1039C0000E94211781E001C080E0DF91CF911F911B
:1039D0000F91FF90EF90DF90CF900895FC0113823C
:1039E000128248EE53E060E070E0448355836683C2
:1039F00077838AE691E09183808384E08487CF0196
:103A00000F960C94850ACF92DF92EF92FF920F935C
:103A10001F93CF93DF93CDB7DEB7AF970FB6F89470
:103A2000DEBF0FBECDBF7C018B016A01CE010196C6
:103A30000E94850ACE0109960E94EE1CCE018A964C
:103A40000E94850A6BEF72E0CE0184960E94B50F4A
:103A5000BE016C5D7F4FCE0101960E94D30FAE0177
:103A6000465D5F4FB801CE0101960E943812813049
:103A70009105C1F4D701ED91FC910088F189E02D09
:103A80008EE191E09DA38CA30CA51DA52EA53FA5BD
:103A90000EA31FA328A739A7A601BE016C5D7F4F07
:103AA000C7010995AF960FB6F894DEBF0FBECDBF24
:103AB000DF91CF911F910F91FF90EF90DF90CF900A
:103AC00008950F9300E020E040E060E08DE993E08E
:103AD0000E948F0A0F9108950F9300E020E040E0CC
:103AE00060E083EA93E00E948F0A0F91089561E0FD
:103AF0008AE00E94A30661E08AE00E946A068CB513
:103B000080618CBD8CB580648CBD61E08DE00E94CD
:103B10006A0661E08BE00C946A06F8940C94FB2032
:103B2000FB01DC0102C001900D9241505040D8F7DA
:103B30000895FB01DC018D91019080190110D9F3EA
:103B4000990B0895FB01DC0101900D920020E1F733
:103B500008955058BB27AA270ED0FFC1C8D130F016
:103B6000CDD120F031F49F3F11F41EF498C10EF432
:103B7000E095E7FB8EC1E92F12D280F3BA176207F6
:103B800073078407950718F071F49EF52AC20EF4A6
:103B9000E0950B2EBA2FA02D0B01B90190010C015D
:103BA000CA01A0011124FF27591B99F0593F50F475
:103BB000503E68F11A16F040A22F232F342F4427CD
:103BC000585FF3CF469537952795A795F0405395C5
:103BD000C9F77EF41F16BA0B620B730B840BBAF095
:103BE0009150A1F0FF0FBB1F661F771F881FC2F700
:103BF0000EC0BA0F621F731F841F48F48795779514
:103C00006795B795F7959E3F08F0B3CF9395880FCA
:103C100008F09927EE0F97958795089568D158F089
:103C200080E891E009F49EEF69D128F040E851E086
:103C300059F45EEF09C033C1D4C1E92FE078AFD1A8
:103C400068F3092E052AC1F32617370748075907D5
:103C500038F00E2E07F8E02569F0E025E0640AC090
:103C6000EF6307F8009407FADB01B9019D01DC015D
:103C7000CA01AD01EF9346D070D10AD05F915523B0
:103C800031F02BED3FE049E450FD49EC63CF08955E
:103C9000DF93DD27B92FBF7740E85FE316161706DD
:103CA00048075B0710F4D92FA3D19F938F937F937D
:103CB0006F9350D2E8E6F0E0F5D04FD12F913F91CD
:103CC0004F915F91A8D1DD2349F09058A2EA2AEDE7
:103CD0003FE049EC5FE3D0785D274DDFDF913DC1E8
:103CE00015D1E3954BC10CD038C108D140F0FFD0BD
:103CF00030F021F45F3F19F0CCC0511173C1CFC037
:103D00004ED198F39923C9F35523B1F3951B550B65
:103D1000BB27AA2762177307840738F09F5F5F4F9E
:103D2000220F331F441FAA1FA9F333D00E2E3AF0DF
:103D3000E0E830D091505040E695001CCAF729D0F9
:103D4000FE2F27D0660F771F881FBB1F2617370748
:103D50004807AB07B0E809F0BB0B802DBF01FF2778
:103D600093585F4F2AF09E3F510568F092C03AC1C8
:103D70005F3FECF3983EDCF3869577956795B795B2
:103D8000F7959F5FC9F7880F911D9695879597F9CD
:103D90000895E1E0660F771F881FBB1F6217730746
:103DA0008407BA0720F0621B730B840BBA0BEE1F5B
:103DB00088F7E095089504D06894B11113C108956F
:103DC000F6D088F09F5790F0B92F9927B751A0F0FF
:103DD000D1F0660F771F881F991F1AF0BA95C9F79F
:103DE00012C0B13081F0FDD0B1E00895FAC0672F64
:103DF000782F8827B85F39F0B93FCCF3869577954F
:103E00006795B395D9F73EF4909580957095619537
:103E10007F4F8F4F9F4F0895E89409C097FB3EF462
:103E200090958095709561957F4F8F4F9F4F992307
:103E3000A9F0F92F96E9BB279395F6958795779585
:103E40006795B795F111F8CFFAF4BB0F11F460FF45
:103E50001BC06F5F7F4F8F4F9F4F16C0882311F09D
:103E600096E911C0772321F09EE8872F762F05C0B1
:103E7000662371F096E8862F70E060E02AF09A954C
:103E8000660F771F881FDAF7880F9695879597F941
:103E9000089597F99F6780E870E060E008959FEFCC
:103EA00080EC0895DF93CF931F930F93FF92EF92CF
:103EB000DF927B018C01689405C0DA2EEF01ABD054
:103EC000FE01E894A5912591359145915591AEF368
:103ED000EF0151DEFE019701A801DA9479F7DF9036
:103EE000EF90FF900F911F91CF91DF9108950024E3
:103EF0000A941616170618060906089500240A944F
:103F000012161306140605060895C9CF50D0E8F31B
:103F1000E894E0E0BB279F57F0F02AED3FE049EC42
:103F200006C0EE0FBB0F661F771F881F28F0B23A3E
:103F300062077307840728F0B25A620B730B840B75
:103F4000E3959A9572F7803830F49A95BB0F661F07
:103F5000771F881FD2F7904802C1092E0394000CE6
:103F600011F4882352F0BB0F40F4BF2B11F460FF13
:103F700004C06F5F7F4F8F4F9F4F0895EF93E0FF17
:103F800006C0A2EA2AED3FE049EC5FEBF4DDE5DF95
:103F90000F90039401FC9058E5E9F0E0F3C057FD61
:103FA0009058440F551F59F05F3F71F04795880FA7
:103FB00097FB991F61F09F3F79F08795089512163E
:103FC00013061406551FF2CF4695F1DF08C01616EA
:103FD00017061806991FF1CF86957105610508949B
:103FE0000895E894BB2766277727CB0197F90895B2
:103FF0009B01AC0160E070E080E89FE374CE0BD0E1
:10400000ACCF75DF28F07ADF18F0952309F041CFA7
:1040100046CF1124E7CFC3DFA0F3959FD1F3950FCF
:1040200050E0551F629FF001729FBB27F00DB11D3C
:10403000639FAA27F00DB11DAA1F649F6627B00DCC
:10404000A11D661F829F2227B00DA11D621F739FB5
:10405000B00DA11D621F839FA00D611D221F749FC3
:104060003327A00D611D231F849F600D211D822F0A
:10407000762F6A2F11249F5750408AF0E1F0882351
:104080004AF0EE0FFF1FBB1F661F771F881F91505E
:104090005040A9F79E3F510570F0FBCEA3CF5F3F84
:1040A000ECF3983EDCF3869577956795B795F79591
:1040B000E7959F5FC1F7FE2B880F911D9695879519
:1040C00097F908959F9322DF0F9007FCEE5F56CF7C
:1040D00011F40EF4E4CE41C06ADFD0F39923D9F392
:1040E000CEF39F57550B87FF46D00024A0E640EA49
:1040F000900180585695979528F4805C660F771F3D
:10410000881F20F026173707480730F4621B730B0F
:10411000840B202931294A2BA69517940794202532
:1041200031254A2758F7660F771F881F20F026177A
:104130003707480730F4620B730B840B200D311DD9
:10414000411DA09581F7B901842F9158880F96954C
:10415000879508959B01AC0152CF9F3F31F091505C
:1041600020F4879577956795B795880F911D96955B
:10417000879597F9089591505040660F771F881FD3
:10418000D2F708959F938F937F936F93FF93EF934D
:104190009B01AC0134DFEF91FF9184DE2F913F91C1
:1041A0004F915F912CCFA1E21A2EAA1BBB1BFD01E0
:1041B0000DC0AA1FBB1FEE1FFF1FA217B307E40706
:1041C000F50720F0A21BB30BE40BF50B661F771F5E
:1041D000881F991F1A9469F760957095809590953E
:1041E0009B01AC01BD01CF010895EE0FFF1F0590AB
:0A41F000F491E02D0994F894FFCF3C
:1041FA0001000000B00B5ADADADAE8030000AD0376
:10420A0080000004726573657400000000004B0AA8
:10421A0000000000090BCB18B50ADE0AC50AFE0A1F
:10422A0000000000EA0CBD0C920C9A0CAD0CBC0C00
:10423A0000000000670D9C0DB60DC10DDF0D7D0D50
:10424A007F0E020EDB0DEB0E2C0F940D000000000A
:10425A00CD129313E31200000000A71BF01BA31B4F
:10426A00041C4A1CBD1BB41CCF1BE41B031DEC1B06
:0A427A00631C2D1C881B8F1B9F1B6B
:00000001FF
