:100000000C9476000C949E000C949E000C949E0020
:100010000C949E000C949E000C949E000C949E00E8
:100020000C949E000C949E000C949E000C949E00D8
:100030000C949E000C949E000C949E000C949E00C8
:100040000C94F9040C949E000C9423090C945D0903
:100050000C949E000C949E000C949E000C949E00A8
:100060000C94220C0C949E00084AD73B3BCE016EA8
:1000700084BCBFFDC12F3D6C74319ABD56833DDAFF
:100080003D00C77F11BED9E4BB4C3E916BAAAABE0E
:10009000000000803F000000000700020100000394
:1000A0000406000000000000000001020408102007
:1000B00040800102040810200102040810200404FA
:1000C0000404040404040202020202020303030300
:1000D000030300000000250028002B0000000000A2
:1000E000240027002A00E404190A400B11241FBE33
:1000F000CFEFD8E0DEBFCDBF11E0A0E0B1E0E6E099
:10010000F1E202C005900D92AC39B107D9F723E0B6
:10011000ACE9B1E001C01D92A833B207E1F710E0ED
:10012000CCEED0E004C02297FE010E947D10C63EB6
:10013000D107C9F70E94D6040C944F0D0C9400000F
:10014000EF92FF920F931F93CF93DF9300D0CDB721
:10015000DEB7062F142F682F88E792E029833A83B1
:100160000E94200B602F88E792E00E94C70A298135
:10017000022FE22E3A81F32E8E2D801B811740F440
:10018000F70161917F0188E792E00E94C70AF4CFEE
:1001900088E792E00E943D0B91E0811190E0892F69
:1001A0000F900F90DF91CF911F910F91FF90EF90E3
:1001B0000895CF93DF931F92CDB7DEB749839E0199
:1001C0002F5F3F4F41E00E94A0000F90DF91CF9141
:1001D00008953F924F925F926F927F928F929F927B
:1001E000AF92BF92CF92DF92EF92FF920F931F9345
:1001F000CF93DF9300D000D000D0CDB7DEB7682E0C
:10020000562E742E3A8329830E9443056B017C018C
:10021000312C412C872D90E09C838B834801A12CAD
:10022000B12C3714B0F5662D88E792E00E94200BC0
:10023000652D88E792E00E94C70A88E792E00E9455
:100240003D0B662D88E792E00E94200B4B815C817C
:10025000431951094132510514F040E250E0662D36
:1002600088E792E00E941D0B88E792E00E946F0AE7
:10027000892B59F10115110599F10E9443056C195B
:100280007D098E099F09681579058A059B0540F14E
:100290001CC001151105A9F10E9443056C197D09C7
:1002A0008E099F0920E030E06017710782079307ED
:1002B00040F1872D90E0242D332727FD3095281716
:1002C0003907FCF444244A941CC088E792E00E9459
:1002D0003D0B872D90E2971508F480E2380EA1CFF0
:1002E000E981FA81E40DF11D47FCFA95FE83ED8367
:1002F00088E792E00E94770AED81FE818083439433
:10030000B3CF842D26960FB6F894DEBF0FBECDBFB7
:10031000DF91CF911F910F91FF90EF90DF90CF90E1
:10032000BF90AF909F908F907F906F905F904F9015
:100330003F9008950F931F9389019A0141E00E9415
:10034000E9001F910F910895CF92DF92EF92FF92F3
:100350000F931F93CF93DF931F92CDB7DEB7C42EB9
:10036000D22E9701AE014F5F5F4F0E949A01882302
:10037000F1F04C2D50E04D1951094F5F5F4F61E096
:1003800070E002C0660F771FDA94E2F761507109DE
:10039000042E01C0660F0A94EAF72981262330E073
:1003A00002C0359527954A95E2F7F80120830F9012
:1003B000DF91CF911F910F91FF90EF90DF90CF9041
:1003C0000895EF92FF920F931F93CF93DF931F92A5
:1003D000CDB7DEB7182F062FF42EE22E20910001A4
:1003E00030910101AE014F5F5F4F0E949A018981F8
:1003F00021E030E00F2C01C0220F0A94EAF7EE2032
:1004000019F0482F422B03C0422F409548234983BF
:10041000602F812F0E94D9000F90DF91CF911F9103
:100420000F91FF90EF900895DF92EF92FF920F935C
:100430001F93CF93DF931F92CDB7DEB7F82EE62E32
:10044000D42E122F2091000130910101AE014F5F97
:100450005F4F0E949A01882319F14D2D50E0411BF6
:1004600051094F5F5F4FE1E0F0E002C0EE0FFF1F68
:100470001A95E2F73197042E01C0EE0F0A94EAF7BD
:1004800001C0000F4A95EAF74E2F40958981482315
:10049000E0234E2B49836E2D8F2D0E94D90001C081
:1004A00080E00F90DF91CF911F910F91FF90EF901F
:1004B000DF90089528E6FC01208308950F93062F0E
:1004C00022E044E06BE1FC0180810E9414020F9164
:1004D00008950F93062F22E044E06CE1FC01808137
:1004E0000E9414020F9108958F929F92AF92BF9233
:1004F000CF92DF92EF92FF920F931F93CF93DF93F0
:10050000EC014B015A01690142E067E3FC01819172
:100510007F010E94D9006AE070E080E090E00E94D4
:10052000720541E06AE08CE00E94D9006AE070E068
:1005300080E090E00E94720500910001109101019D
:10054000970146E063E08CE00E94E9008A8190E038
:10055000982F88272981822BF401918380838C81B5
:1005600090E0982F88272B81822BF501918380833F
:100570008E8190E0982F88272D81822BF601918320
:100580008083DF91CF911F910F91FF90EF90DF90CB
:10059000CF90BF90AF909F908F900895AF92BF92F1
:1005A000CF92DF92EF92FF920F931F93CF93DF933F
:1005B0007C015B016A01E9010091000110910101D8
:1005C0009C012F5F3F4F43E060E18CE00E94E90017
:1005D000F701618170E060587109882777FD809587
:1005E000982F0E94B80E20E030E040E05FE30E94C8
:1005F000980F20E030E040E05CE30E94980F20E09C
:1006000030E040E85FE30E94530DF50160837183A1
:1006100082839383F701618170E0605871098827B4
:1006200077FD8095982F0E94B80E20E030E040E0E2
:100630005FE30E94980F20E030E040E05CE30E941E
:10064000980F20E030E040E85FE30E94530DF60190
:100650006083718382839383F701618170E06058C6
:100660007109882777FD8095982F0E94B80E20E0A9
:1006700030E040E05FE30E94980F20E030E040E08F
:100680005CE30E94980F20E030E040E85FE30E94C6
:10069000530D688379838A839B83DF91CF911F9168
:1006A0000F91FF90EF90DF90CF90BF90AF900895A3
:1006B000262F46E06BE6FC0180810C94E1010F934C
:1006C000062F23E042E06BE6FC0180810E941402C9
:1006D0000F910895CF93DF93EC0161E00E945F03D7
:1006E00060E0CE010E945E0260E0CE010E946902DD
:1006F00060E0CE01DF91CF910C945803EF92FF920E
:100700000F931F93CF93DF93EC01E0900001F090E3
:1007100001018C010F5F1F4F26E046E065E78881ED
:100720000E94A4018981DF91CF911F910F91FF90C9
:10073000EF9008950E947E0391E0843309F090E0E9
:10074000892F089588E792E00E94060B40E052EC62
:1007500061E070E08EEC91E00E94980964E171E044
:100760008EEC91E00E94C60686EB91E00E946A033F
:1007700060E371E08EEC91E00E94C6066EE471E0E9
:100780008EEC91E00E94A90686EB91E00E949A030C
:10079000882319F062E071E002C06DE071E08EEC38
:1007A00091E00E94C60661E08DE00E94FC052CE904
:1007B00031E040EA51E064EA71E086EB91E00C94AC
:1007C000CE024F925F926F927F928F929F92AF92E2
:1007D000BF92CF92DF92EF92FF920F931F93CF932E
:1007E000DF9320EB31E042EB51E064EB71E086EB0C
:1007F00091E00E9474026091B2017091B30164565D
:100800007109882777FD8095982F0E94B80E6B019B
:100810007C016091B4017091B5016C507109882719
:1008200077FD8095982F0E94B80E4B015C019B01CB
:10083000AC010E94980F2B013C01A7019601C70152
:10084000B6010E94980F9B01AC01C301B2010E9446
:10085000530D0E94FF0F2B013C019B01AC01C50110
:10086000B4010E941D0E4B015C0108EA11E0F80181
:100870006083718382839383CCEAD1E0A3019201E8
:10088000C701B6010E941D0E688379838A839B830A
:1008900022E030E0B501A4018EEC91E00E947E08D8
:1008A00069E671E08EEC91E00E94A90648815981C9
:1008B0006A817B8122E030E08EEC91E00E947E082C
:1008C00069E671E08EEC91E00E94A9066091B001AA
:1008D0007091B1014AE050E08EEC91E00E947B07FC
:1008E00062E671E08EEC91E00E94A906F801208199
:1008F000318142815381688179818A819B810E9403
:10090000C60D20E030E044E353E40E94980F2BED45
:100910003FE049E450E40E941D0EAB01BC0122E01F
:1009200030E08EEC91E00E947E086BE671E08EEC88
:1009300091E00E94C606F8016081718182819381F5
:10094000C880D980EA80FB809B01AC010E94980F8F
:100950004B015C01A7019601C701B6010E94980FE7
:100960009B01AC01C501B4010E94530D0E94FF0F11
:10097000AB01BC0122E030E08EEC91E00E948008E7
:1009800068EC70E080E090E0DF91CF911F910F91D3
:10099000FF90EF90DF90CF90BF90AF909F908F909F
:1009A0007F906F905F904F900C9472050E94980515
:1009B0000E94A203C0E0D1E0CD276C2F8DE00E9401
:1009C00035060E94E103F8CF86EB91E00E945A02BF
:1009D0001092A8011092A9011092AA011092AB01E5
:1009E0001092AC011092AD011092AE011092AF01C5
:1009F00008951F920F920FB60F9211242F933F93D9
:100A00008F939F93AF93BF938091C6019091C7013D
:100A1000A091C801B091C9013091C50123E0230F15
:100A20002D3720F40196A11DB11D05C026E8230F26
:100A30000296A11DB11D2093C5018093C60190931C
:100A4000C701A093C801B093C9018091CA019091D8
:100A5000CB01A091CC01B091CD010196A11DB11D9A
:100A60008093CA019093CB01A093CC01B093CD01A8
:100A7000BF91AF919F918F913F912F910F900FBE9A
:100A80000F901F9018952FB7F8946091C601709140
:100A9000C7018091C8019091C9012FBF08953FB748
:100AA000F8948091CA019091CB01A091CC01B091B2
:100AB000CD0126B5A89B05C02F3F19F00196A11DB9
:100AC000B11D3FBF6627782F892F9A2F620F711DA6
:100AD000811D911D42E0660F771F881F991F4A955F
:100AE000D1F70895CF92DF92EF92FF92CF93DF93E9
:100AF0006B017C010E944F05EB01C114D104E1049C
:100B0000F10479F00E944F056C1B7D0B683E734029
:100B1000A0F381E0C81AD108E108F108C851DC4F00
:100B2000ECCFDF91CF91FF90EF90DF90CF900895C1
:100B3000789484B5826084BD84B5816084BD85B5B8
:100B4000826085BD85B5816085BDEEE6F0E080817F
:100B500081608083E1E8F0E01082808182608083A0
:100B6000808181608083E0E8F0E080818160808323
:100B7000E1EBF0E0808184608083E0EBF0E0808155
:100B800081608083EAE7F0E08081846080838081F7
:100B9000826080838081816080838081806880839F
:100BA0001092C1000895833081F028F4813099F0CB
:100BB0008230A1F008958630A9F08730B9F08430F2
:100BC000D1F4809180008F7D03C0809180008F7769
:100BD00080938000089584B58F7702C084B58F7D9F
:100BE00084BD08958091B0008F7703C08091B000DC
:100BF0008F7D8093B0000895CF93DF9390E0FC0148
:100C0000E655FF4F2491FC01E254FF4F8491882365
:100C100049F190E0880F991FFC01E452FF4FA59124
:100C2000B4918E529F4FFC01C591D4919FB7611131
:100C300008C0F8948C91209582238C93888182231C
:100C40000AC0623051F4F8948C91322F309583238E
:100C50008C938881822B888304C0F8948C91822B9A
:100C60008C939FBFDF91CF9108950F931F93CF93E4
:100C7000DF931F92CDB7DEB7282F30E0F901EA5697
:100C8000FF4F8491F901E655FF4F1491F901E254A9
:100C9000FF4F04910023C9F0882321F069830E944B
:100CA000D3056981E02FF0E0EE0FFF1FEE52FF4FFA
:100CB000A591B4919FB7F8948C91611103C01095E0
:100CC000812301C0812B8C939FBF0F90DF91CF9127
:100CD0001F910F910895CF92DF92EF92FF920F93A1
:100CE0001F93CF93DF936C017A01EB01E60EF71EA1
:100CF00000E010E0CE15DF0561F06991D601ED91BD
:100D0000FC910190F081E02DC6010995080F191F93
:100D1000F1CFC801DF91CF911F910F91FF90EF901C
:100D2000DF90CF9008956115710581F0DB010D9082
:100D30000020E9F7AD0141505109461B570BDC017A
:100D4000ED91FC910280F381E02D099480E090E028
:100D500008950C949306DC01ED91FC910190F081D3
:100D6000E02D09940F931F93CF93DF93EC016DE077
:100D70000E94AB068C016AE0CE010E94AB06800F98
:100D8000911FDF91CF911F910F9108950F931F93A2
:100D9000CF93DF93EC010E9493068C01CE010E9459
:100DA000B206800F911FDF91CF911F910F9108958F
:100DB0008F929F92AF92BF92CF92DF92EF92FF926B
:100DC0000F931F93CF93DF93CDB7DEB7A1970FB6E5
:100DD000F894DEBF0FBECDBF7C01C42EE52FCB0142
:100DE000D22E19A221E02D1510F02AE0D22E8E016C
:100DF0000F5D1F4F8D2C912CA12CB12C6C2D7E2FB3
:100E0000A50194010E9459108C2DD29E80191124A5
:100E1000015011098A3014F4805D01C0895CF80129
:100E20008083211531054105510521F0C22EE32FA4
:100E3000CA01E4CFB801C7010E949306A1960FB67C
:100E4000F894DEBF0FBECDBFDF91CF911F910F9100
:100E5000FF90EF90DF90CF90BF90AF909F908F90DA
:100E60000895CF92DF92EF92FF920F931F93CF934B
:100E7000DF93EC016A017B012115310579F4E881EA
:100E8000F9810190F081E02D642FDF91CF911F91C6
:100E90000F91FF90EF90DF90CF9009942A303105A9
:100EA000E9F477FF1AC06DE20E94AB068C0144277B
:100EB0005527BA014C195D096E097F092AE0CE0158
:100EC0000E94D806800F911FDF91CF911F910F9143
:100ED000FF90EF90DF90CF9008952AE0B701A60130
:100EE000CE01DF91CF911F910F91FF90EF90DF9096
:100EF000CF900C94D8060F931F93CF93DF93EC0100
:100F00009A01AB01662757FD6095762F0E94310745
:100F10008C01CE010E94B206800F911FDF91CF910C
:100F20001F910F9108954F925F926F927F928F92CF
:100F30009F92AF92BF92CF92DF92EF92FF920F9368
:100F40001F93CF93DF93EC016A017B01B22E9A01CC
:100F5000AB01C701B6010E944010882319F060E779
:100F600071E027C026013701E89477F82FEF3FEFB3
:100F70004FE75FE7C301B2010E94401081110DC02D
:100F80002FEF3FEF4FE75FE7C301B2010E94190E59
:100F900018161CF464E771E00CC02FEF3FEF4FE729
:100FA0005FE4C701B6010E948D0F1816ACF468E724
:100FB00071E0CE01DF91CF911F910F91FF90EF90E3
:100FC000DF90CF90BF90AF909F908F907F906F9069
:100FD0005F904F900C9493062FEF3FEF4FE75FEC3D
:100FE000C701B6010E94190E87FDE1CF20E030E075
:100FF000A901C701B6010E94190E87FF0AC06DE260
:10100000CE010E94AB068C01F7FAF094F7F8F09449
:1010100002C000E010E0A12C60E070E080E09FE3FF
:10102000AB1441F020E030E040E251E40E941D0E9C
:10103000A394F6CF9B01AC01C701B6010E94530DEA
:101040006B017C010E948A0E2B013C010E94B60EAE
:101050009B01AC01C701B6010E94520D6B017C01DE
:101060002AE0B301A201CE010E94D806080F191F81
:10107000BB2039F06EE271E0CE010E949306080FAA
:10108000191F7B2C772041F120E030E040E251E451
:10109000C701B6010E94980F6B017C010E94850E6A
:1010A0004B01AA2497FCA094BA2C2AE030E0B501A9
:1010B000A401CE010E943107080F191FC501B40118
:1010C0000E94B80E9B01AC01C701B6010E94520DEF
:1010D0006B017C017A94D6CFC801DF91CF911F912B
:1010E0000F91FF90EF90DF90CF90BF90AF909F90C7
:1010F0008F907F906F905F904F9008950C9493071E
:101100000F931F93CF93DF93EC010E9493078C0101
:10111000CE010E94B206800F911FDF91CF911F91E7
:101120000F910895FC0124853585F901E05CFF4F9E
:1011300080819181329620813181821B930B8F7344
:1011400099270895FC0184859585FC01E05CFF4F9B
:10115000408151813296208131814217530741F0FD
:101160000190F081E02DE80FF91F808190E0089553
:101170008FEF9FEF0895FC0184859585FC01E05C6D
:10118000FF4F4081518132962081318142175307B0
:1011900079F0A081B181A80FB91F8C912081318194
:1011A0002F5F3F4F2F7333273183208390E00895C3
:1011B0008FEF9FEF0895FC0181A1882329F0A48976
:1011C000B5898C9186FFFBCF11A20895CF93DF9351
:1011D000FC0126853785D901A05CBF4F8D919C917C
:1011E000119701968F739927E901CE5BDF4F4881F4
:1011F000598184179507D9F30D90BC91A02DA20FAA
:10120000B31F6C93A685B785A05CBF4F11969C93C6
:101210008E93A689B7892C9181E090E0078C02C05B
:10122000880F991F0A94E2F7282B2C9381E081A361
:101230000488F589E02D80818064808381E090E0DE
:10124000DF91CF9108951F920F920FB60F92112444
:101250002F933F934F938F939F93EF93FF9380919F
:10126000C00082FD1CC04091C60080917402909124
:10127000750201968F73992720917602309177023B
:101280008217930771F0E0917402F0917502EC5CA3
:10129000FD4F4083909375028093740202C0809149
:1012A000C600FF91EF919F918F914F913F912F91A8
:1012B0000F900FBE0F901F9018951F920F920FB6B0
:1012C0000F9211242F933F938F939F93EF93FF934C
:1012D000209130023091310280913202909133029C
:1012E0002817390731F48091C1008F7D8093C100A8
:1012F00014C0E0913202F0913302E051FE4F2081A0
:10130000809132029091330201968F7399279093C6
:101310003302809332022093C600FF91EF919F9198
:101320008F913F912F910F900FBE0F901F901895A6
:10133000CF92DF92EF92FF92CF93DF93EC016A019D
:101340007B01411581EE580761057105F9F0EC89C3
:10135000FD8981E090E008A002C0880F991F0A94DF
:10136000E2F7808360E079E08DE390E0A7019601E9
:101370000E9459102150310941095109569547954C
:1013800037952795211580E1380798F0EC89FD897C
:10139000108260E874E88EE190E0A70196010E9457
:1013A00059102150310941095109569547953795F2
:1013B0002795E889F9893083EA89FB89208319A276
:1013C000EE89FF89408181E090E09C010C8C02C095
:1013D000220F331F0A94E2F7422B4083EE89FF89E4
:1013E00040819C010D8C02C0220F331F0A94E2F74A
:1013F000422B4083EE89FF8940819C010E8C02C004
:10140000220F331F0A94E2F7422B4083EE89FF89B3
:1014100020810F8C02C0880F991F0A94E2F78095F3
:1014200082238083DF91CF91FF90EF90DF90CF9068
:1014300008951092D1011092D00188EE93E0A0E0BF
:10144000B0E08093D2019093D301A093D401B093E4
:10145000D50180E891E09093CF018093CE0184E3A1
:1014600092E09093DB018093DA0180EF91E090931A
:10147000DD018093DC0185EC90E09093DF018093A7
:10148000DE0184EC90E09093E1018093E00180EC38
:1014900090E09093E3018093E20181EC90E09093DF
:1014A000E5018093E40182EC90E09093E701809362
:1014B000E60186EC90E09093E9018093E80184E0F6
:1014C0008093EA0183E08093EB0187E08093EC0155
:1014D00085E08093ED0181E08093EE010895809195
:1014E000A80290E02091A902821B91090895209101
:1014F000A9028091A802281750F4E22FF0E0E655E7
:10150000FD4F808190E02F5F2093A90208958FEF17
:101510009FEF0895E091A9028091A802E81730F4A6
:10152000F0E0E655FD4F808190E008958FEF9FEF4A
:1015300008950895CF92DF92EF92FF920F931F9339
:10154000CF93DF937C01CB018A0120918402222377
:1015500089F0EB016B01C40ED51ECC15DD0569F0D9
:101560006991D701ED91FC910190F081E02DC701C7
:101570000995F3CF642F0E94F90BC801DF91CF9139
:101580001F910F91FF90EF90DF90CF900895CF9330
:10159000DF931F92CDB7DEB76983209184022223A7
:1015A000D1F020918502203240F021E030E0FC01B2
:1015B0003383228380E090E015C080918602E82F7B
:1015C000F0E0E957FD4F998190838F5F8093860209
:1015D0008093850205C061E0CE0101960E94F90B5F
:1015E00081E090E00F90DF91CF910895FC0113828C
:1015F000128248EE53E060E070E0448355836683D6
:10160000778380E991E09183808308951092A90205
:101610001092A80210928602109285020C94440B3C
:10162000862F413208F040E26AEA72E00E94620BC3
:101630001092A9028093A802089521E00C94100B47
:1016400081E0809384026093A70210928602109238
:10165000850208950F93062F21E04091850267E8E7
:1016600072E08091A7020E94A60B1092860210924F
:101670008502109284020F91089561E00C942A0B68
:1016800088E792E00C94F60A1092370381E0809389
:1016900035031092340361E082E10E94350661E077
:1016A00083E10E943506E9EBF0E080818E7F808344
:1016B00080818D7F808388E48093B80085E4809367
:1016C000BC000895413208F03FC09091370391115A
:1016D000FCCF91E090933703209335032FEF2093B5
:1016E000CA0210920F03240F20930E039093360327
:1016F00090913603880F892B8093360380913403B1
:10170000813041F410923403809136038093BB0002
:1017100085EC01C085EE8093BC0080913703813059
:10172000E1F380910F03841710F440910F0320E13F
:1017300033E0FB01D9018A2F821B841718F48D91A5
:101740008193F9CF842F089580E008950F9341325B
:1017500008F046C0909137039111FCCF92E090932E
:101760003703009335039FEF9093CA0210920F0343
:1017700040930E03FB0160E173E0DB019A2F961B9F
:10178000941718F491919D93F9CF1092360390918C
:101790003603880F892B8093360380913403813080
:1017A00041F410923403809136038093BB0085ECA2
:1017B00001C085EE8093BC00222321F08091370385
:1017C0008230E1F38091CA028F3F61F08091CA02BA
:1017D000803251F08091CA02803341F483E007C027
:1017E00081E005C080E003C082E001C084E00F9189
:1017F0000895613298F420913703243089F460937E
:10180000EC02FC018EEE92E0DC012A2F281B261749
:1018100018F421912D93F9CF80E0089581E0089587
:1018200082E0089585ED8093BC008091BC0084FD2A
:10183000FCCF10923703089585EC8093BC00109282
:10184000370308951F920F920FB60F9211242F9312
:101850003F934F935F936F937F938F939F93AF9338
:10186000BF93EF93FF938091B900887F803609F48E
:101870009CC068F5883209F45BC090F4803109F4AB
:1018800054C038F4882309F4F5C0883009F44DC0F9
:10189000F5C0883109F44CC0803209F45DC0EEC057
:1018A000803409F468C048F4803309F455C08833A3
:1018B00009F0E4C08093CA02A8C0803509F44FC083
:1018C000883509F45DC0883409F0D8C0D5C088399E
:1018D00009F4C6C0A8F4883709F467C038F488361C
:1018E00009F463C0803709F460C0C8C0883809F4BF
:1018F000B7C0803909F45FC0803809F0BFC05BC051
:10190000803B09F485C038F4803A09F466C0883A0F
:1019100009F47EC0B3C0803C09F4A6C0883C09F439
:10192000A3C0883B09F489C0A9C08091360310C0C8
:1019300090910F0380910E03981770F5E0910F03BB
:1019400081E08E0F80930F03F0E0E05FFC4F808119
:101950008093BB0085EC85C08093CA028DC0E09166
:101960000F0381E08E0F80930F038091BB00F0E0A6
:10197000E05FFC4F808390910F0380910E036DC058
:10198000E0910F0381E08E0F80930F038091BB00E5
:10199000F0E0E05FFC4F80838091350381116CC0E3
:1019A00081E08093340384EA60C083E0809337034E
:1019B0001092CB02CFCF8091CB02803208F050C082
:1019C000E091CB0281E08E0F8093CB028091BB002F
:1019D000F0E0E453FD4F8083BDCF8091CB02803295
:1019E00030F4E091CB02F0E0E453FD4F10820E940E
:1019F000120C6091CB0270E0E0913003F091310362
:101A00008CEC92E009951092CB020E941C0C36C01F
:101A100084E0809337031092ED021092EC02E09183
:101A20003203F091330309958091EC02811105C0D6
:101A300081E08093EC021092EE02E091ED0281E0F1
:101A40008E0F8093ED02F0E0E251FD4F8081809394
:101A5000BB009091ED028091EC02981708F47ACFC8
:101A600085E88093BC000AC085EC8093BC0010928E
:101A7000370304C01092CA020E94120CFF91EF912A
:101A8000BF91AF919F918F917F916F915F914F9196
:101A90003F912F910F900FBE0F901F901895F894C3
:101AA0000C9481105058BB27AA270ED0FCC1EDD151
:101AB00030F0F2D120F031F49F3F11F41EF4BDC19B
:101AC0000EF4E095E7FBB3C1E92FFED180F3BA171E
:101AD000620773078407950718F071F49EF516C224
:101AE0000EF4E0950B2EBA2FA02D0B01B901900139
:101AF0000C01CA01A0011124FF27591B99F0593F7D
:101B000050F4503E68F11A16F040A22F232F342FC4
:101B10004427585FF3CF469537952795A795F04012
:101B20005395C9F77EF41F16BA0B620B730B840B27
:101B3000BAF09150A1F0FF0FBB1F661F771F881FDF
:101B4000C2F70EC0BA0F621F731F841F48F4879537
:101B500077956795B795F7959E3F08F0B3CF939526
:101B6000880F08F09927EE0F9795879508958DD1E6
:101B700058F080E891E009F49EEF8ED128F040E81B
:101B800051E059F45EEF09C058C1C0C1E92FE078B7
:101B90009BD168F3092E052AC1F32617370748079A
:101BA000590738F00E2E07F8E02569F0E025E064CB
:101BB0000AC0EF6307F8009407FADB01B9019D0141
:101BC000DC01CA01AD01EF9347D06DD10AD05F911E
:101BD000552331F02BED3FE049E450FD49EC63CF54
:101BE0000895DF93DD27B92FBF7740E85FE316162E
:101BF000170648075B0710F4D92F93D19F938F9353
:101C00007F936F933AD2E8E6F0E01AD14CD12F914E
:101C10003F914F915F9198D1DD2349F09058A2EA0E
:101C20002AED3FE049EC5FE3D0785D274DDFDF919F
:101C30003AC1D9D008F481E008950CD034C12CD138
:101C400040F023D130F021F45F3F19F0F0C0511182
:101C50005EC1F3C039D198F39923C9F35523B1F389
:101C6000951B550BBB27AA2762177307840738F00B
:101C70009F5F5F4F220F331F441FAA1FA9F333D06A
:101C80000E2E3AF0E0E830D091505040E695001C1E
:101C9000CAF729D0FE2F27D0660F771F881FBB1FDA
:101CA000261737074807AB07B0E809F0BB0B802DB4
:101CB000BF01FF2793585F4F2AF09E3F510568F000
:101CC000B6C025C15F3FECF3983EDCF3869577956F
:101CD0006795B795F7959F5FC9F7880F911D969502
:101CE000879597F90895E1E0660F771F881FBB1F5E
:101CF000621773078407BA0720F0621B730B840B0B
:101D0000BA0BEE1F88F7E095089504D06894B111DE
:101D1000FEC00895E1D088F09F5790F0B92F992721
:101D2000B751A0F0D1F0660F771F881F991F1AF0E6
:101D3000BA95C9F712C0B13081F0E8D0B1E008958A
:101D4000E5C0672F782F8827B85F39F0B93FCCF30B
:101D5000869577956795B395D9F73EF490958095DC
:101D6000709561957F4F8F4F9F4F0895E89409C0FC
:101D700097FB3EF490958095709561957F4F8F4FBE
:101D80009F4F9923A9F0F92F96E9BB279395F695D4
:101D9000879577956795B795F111F8CFFAF4BB0F52
:101DA00011F460FF1BC06F5F7F4F8F4F9F4F16C0B6
:101DB000882311F096E911C0772321F09EE8872F40
:101DC000762F05C0662371F096E8862F70E060E0FC
:101DD0002AF09A95660F771F881FDAF7880F969575
:101DE000879597F90895990F0008550FAA0BE0E819
:101DF000FEEF16161706E807F907C0F012161306CD
:101E0000E407F50798F0621B730B840B950B39F40C
:101E10000A2661F0232B242B252B21F408950A2672
:101E200009F4A140A6958FEF811D811D089597F9B2
:101E30009F6780E870E060E008959FEF80EC089570
:101E4000DF93CF931F930F93FF92EF92DF927B016B
:101E50008C01689405C0DA2EEF0176D0FE01E8947B
:101E6000A5912591359145915591AEF3EF012CDE69
:101E7000FE019701A801DA9479F7DF90EF90FF90C7
:101E80000F911F91CF91DF91089500240A941616A7
:101E9000170618060906089500240A941216130658
:101EA000140605060895092E0394000C11F48823E6
:101EB00052F0BB0F40F4BF2B11F460FF04C06F5F02
:101EC0007F4F8F4F9F4F089557FD9058440F551FD8
:101ED00059F05F3F71F04795880F97FB991F61F0AC
:101EE0009F3F79F087950895121613061406551F23
:101EF000F2CF4695F1DF08C0161617061806991F8F
:101F0000F1CF86957105610508940895E894BB2783
:101F100066277727CB0197F9089565DF08F48FEFDF
:101F200008959B01AC0160E070E080E89FE385CEFE
:101F30000BD0B9CFAADF28F0AFDF18F0952309F056
:101F400076CF7BCF1124E3CFBFDFA0F3959FD1F3F2
:101F5000950F50E0551F629FF001729FBB27F00D57
:101F6000B11D639FAA27F00DB11DAA1F649F6627AC
:101F7000B00DA11D661F829F2227B00DA11D621FFB
:101F8000739FB00DA11D621F839FA00D611D221FB5
:101F9000749F3327A00D611D231F849F600D211D99
:101FA000822F762F6A2F11249F5750408AF0E1F03C
:101FB00088234AF0EE0FFF1FBB1F661F771F881F85
:101FC00091505040A9F79E3F510570F030CF9FCF00
:101FD0005F3FECF3983EDCF3869577956795B79570
:101FE000F795E7959F5FC1F7FE2B880F911D96959A
:101FF000879597F9089511F40EF41FCF45C06CDF53
:10200000D0F39923D9F3CEF39F57550B87FF4AD0CE
:102010000024A0E640EA900180585695979528F450
:10202000805C660F771F881F20F026173707480748
:1020300030F4621B730B840B202931294A2BA6959F
:1020400017940794202531254A2758F7660F771FE4
:10205000881F20F026173707480730F4620B730BF0
:10206000840B200D311D411DA09581F7B901842FEE
:102070009158880F9695879508959B01AC0158CF8C
:10208000B2DE880B990B08959F3F31F0915020F4F8
:10209000879577956795B795880F911D9695879544
:1020A00097F9089591505040660F771F881FD2F717
:1020B0000895A1E21A2EAA1BBB1BFD010DC0AA1F89
:1020C000BB1FEE1FFF1FA217B307E407F50720F0A1
:1020D000A21BB30BE40BF50B661F771F881F991F1C
:1020E0001A9469F760957095809590959B01AC0165
:1020F000BD01CF010895EE0FFF1F0590F491E02D73
:062100000994F894FFCFE2
:10210600E8037375636365737366756C006661696E
:102116006C656400496E697469616C697A696E6799
:102126002049324320646576696365732E2E2E003E
:1021360054657374696E67206465766963652063A8
:102146006F6E6E656374696F6E732E2E2E004D5022
:10215600553931353020636F6E6E656374696F6E05
:102166002000616E676C65203D2000206465670075
:102176006E616E00696E66006F7666000000000094
:10218600E6086B069208BB08A208DB080000000000
:0C219600C70A9A0A6F0A770A8A0A990A97
:00000001FF
